{
  "contractName": "Store",
  "abi": [
    {
      "inputs": [
        {
          "name": "_wallet",
          "type": "address"
        },
        {
          "name": "_warehouse",
          "type": "address"
        }
      ],
      "payable": false,
      "stateMutability": "nonpayable",
      "type": "constructor"
    },
    {
      "constant": false,
      "inputs": [
        {
          "name": "id",
          "type": "uint256"
        }
      ],
      "name": "purchase",
      "outputs": [
        {
          "name": "success",
          "type": "bool"
        }
      ],
      "payable": true,
      "stateMutability": "payable",
      "type": "function"
    }
  ],
  "bytecode": "0x608060405234801561001057600080fd5b506040516040806102ea8339810180604052810190808051906020019092919080519060200190929190505050816000806101000a81548173ffffffffffffffffffffffffffffffffffffffff021916908373ffffffffffffffffffffffffffffffffffffffff16021790555080600160006101000a81548173ffffffffffffffffffffffffffffffffffffffff021916908373ffffffffffffffffffffffffffffffffffffffff160217905550505061021b806100cf6000396000f300608060405260043610610041576000357c0100000000000000000000000000000000000000000000000000000000900463ffffffff168063efef39a114610046575b600080fd5b6100646004803603810190808035906020019092919050505061007e565b604051808215151515815260200191505060405180910390f35b60008060009054906101000a900473ffffffffffffffffffffffffffffffffffffffff1673ffffffffffffffffffffffffffffffffffffffff166108fc349081150290604051600060405180830381858888f193505050501580156100e7573d6000803e3d6000fd5b50600160009054906101000a900473ffffffffffffffffffffffffffffffffffffffff1673ffffffffffffffffffffffffffffffffffffffff16639f0d6d0f83336040518363ffffffff167c0100000000000000000000000000000000000000000000000000000000028152600401808381526020018273ffffffffffffffffffffffffffffffffffffffff1673ffffffffffffffffffffffffffffffffffffffff16815260200192505050602060405180830381600087803b1580156101ad57600080fd5b505af11580156101c1573d6000803e3d6000fd5b505050506040513d60208110156101d757600080fd5b810190808051906020019092919050505090509190505600a165627a7a723058207443b62f0810f1995e2a0ad446f38253b2e80d3e58119e4a2d5f173ca8f6e48d0029",
  "source": "pragma solidity ^0.4.24;\r\n\r\ninterface Warehouse {\r\n    function setDeliveryAddress(string where) external;\r\n    function ship(uint id, address customer) external returns (bool handled);\r\n}\r\n\r\ncontract Store {\r\n    address wallet;\r\n    Warehouse warehouse;\r\n\r\n    constructor(address _wallet, address _warehouse) public {\r\n        wallet = _wallet;\r\n        warehouse = Warehouse(_warehouse);\r\n    }\r\n\r\n    function purchase(uint id) payable public returns (bool success) {\r\n        wallet.transfer(msg.value);\r\n        return warehouse.ship(id, msg.sender);\r\n    }\r\n}\r\n\r\ncontract TestWarehouse is Warehouse {\r\n    struct Order {\r\n        string deliveryAddress; // Package destination\r\n        address buyer; // Buyer\r\n        uint id; // Order ID\r\n        bool shipped; // Order shipped\r\n    }\r\n\r\n    mapping(address => string) customerDeliveryAddresses; // Delivery addresses\r\n    mapping(uint => Order) orders; // Orders\r\n\r\n    function setDeliveryAddress(string where) external {\r\n        customerDeliveryAddresses[msg.sender] = where; // Set delivery address\r\n    }\r\n\r\n    function ship(uint id, address customer) external returns (bool handled) {\r\n        if (keccak256(abi.encodePacked(customerDeliveryAddresses[customer])) == keccak256(abi.encodePacked(\"\")) || orders[id].shipped == true) { // Check delivery address set\r\n            return false; // Return failed\r\n        }\r\n\r\n        orders[id] = Order(customerDeliveryAddresses[customer], customer, id, true); // Init shipped order\r\n        \r\n        return true; // Return success\r\n    }\r\n}",
  "sourcePath": "R:\\B9Lab-Assignments\\Debugging\\warehouse\\contracts\\warehouse.sol",
  "compiler": {
    "name": "solc",
    "version": "0.4.24+commit.e67f0147.Emscripten.clang"
  },
  "schemaVersion": "2.0.1",
  "updatedAt": "2018-11-04T04:10:18.174Z"
}