{
  "contractName": "TestWarehouse",
  "abi": [
    {
      "constant": false,
      "inputs": [
        {
          "name": "where",
          "type": "string"
        }
      ],
      "name": "setDeliveryAddress",
      "outputs": [],
      "payable": false,
      "stateMutability": "nonpayable",
      "type": "function"
    },
    {
      "constant": false,
      "inputs": [
        {
          "name": "id",
          "type": "uint256"
        },
        {
          "name": "customer",
          "type": "address"
        }
      ],
      "name": "ship",
      "outputs": [
        {
          "name": "handled",
          "type": "bool"
        }
      ],
      "payable": false,
      "stateMutability": "nonpayable",
      "type": "function"
    }
  ],
  "bytecode": "0x608060405234801561001057600080fd5b5061062e806100206000396000f30060806040526004361061004c576000357c0100000000000000000000000000000000000000000000000000000000900463ffffffff1680639f0d6d0f14610051578063e5568317146100b6575b600080fd5b34801561005d57600080fd5b5061009c60048036038101908080359060200190929190803573ffffffffffffffffffffffffffffffffffffffff1690602001909291905050506100f1565b604051808215151515815260200191505060405180910390f35b3480156100c257600080fd5b506100ef60048036038101908080359060200190820180359060200191909192939192939050505061048b565b005b60006040516020018060000190506040516020818303038152906040526040518082805190602001908083835b602083101515610143578051825260208201915060208101905060208303925061011e565b6001836020036101000a0380198251168184511680821785525050505050509050019150506040518091039020600019166000808473ffffffffffffffffffffffffffffffffffffffff1673ffffffffffffffffffffffffffffffffffffffff16815260200190815260200160002060405160200180828054600181600116156101000203166002900480156102105780601f106101ee576101008083540402835291820191610210565b820191906000526020600020905b8154815290600101906020018083116101fc575b50509150506040516020818303038152906040526040518082805190602001908083835b6020831015156102595780518252602082019150602081019050602083039250610234565b6001836020036101000a03801982511681845116808217855250505050505090500191505060405180910390206000191614806102bd5750600115156001600085815260200190815260200160002060030160009054906101000a900460ff161515145b156102cb5760009050610485565b6080604051908101604052806000808573ffffffffffffffffffffffffffffffffffffffff1673ffffffffffffffffffffffffffffffffffffffff1681526020019081526020016000208054600181600116156101000203166002900480601f0160208091040260200160405190810160405280929190818152602001828054600181600116156101000203166002900480156103a95780601f1061037e576101008083540402835291602001916103a9565b820191906000526020600020905b81548152906001019060200180831161038c57829003601f168201915b505050505081526020018373ffffffffffffffffffffffffffffffffffffffff1681526020018481526020016001151581525060016000858152602001908152602001600020600082015181600001908051906020019061040b9291906104dd565b5060208201518160010160006101000a81548173ffffffffffffffffffffffffffffffffffffffff021916908373ffffffffffffffffffffffffffffffffffffffff1602179055506040820151816002015560608201518160030160006101000a81548160ff021916908315150217905550905050600190505b92915050565b81816000803373ffffffffffffffffffffffffffffffffffffffff1673ffffffffffffffffffffffffffffffffffffffff16815260200190815260200160002091906104d892919061055d565b505050565b828054600181600116156101000203166002900490600052602060002090601f016020900481019282601f1061051e57805160ff191683800117855561054c565b8280016001018555821561054c579182015b8281111561054b578251825591602001919060010190610530565b5b50905061055991906105dd565b5090565b828054600181600116156101000203166002900490600052602060002090601f016020900481019282601f1061059e57803560ff19168380011785556105cc565b828001600101855582156105cc579182015b828111156105cb5782358255916020019190600101906105b0565b5b5090506105d991906105dd565b5090565b6105ff91905b808211156105fb5760008160009055506001016105e3565b5090565b905600a165627a7a72305820a058f159ff89611c9697df7e337436a2301a382b8391651021825d9907fab3180029",
  "source": "pragma solidity ^0.4.24;\r\n\r\ninterface Warehouse {\r\n    function setDeliveryAddress(string where) external;\r\n    function ship(uint id, address customer) external returns (bool handled);\r\n}\r\n\r\ncontract Store {\r\n    address wallet;\r\n    Warehouse warehouse;\r\n\r\n    constructor(address _wallet, address _warehouse) public {\r\n        wallet = _wallet;\r\n        warehouse = Warehouse(_warehouse);\r\n    }\r\n\r\n    function purchase(uint id) payable public returns (bool success) {\r\n        wallet.transfer(msg.value);\r\n        return warehouse.ship(id, msg.sender);\r\n    }\r\n}\r\n\r\ncontract TestWarehouse is Warehouse {\r\n    struct Order {\r\n        string deliveryAddress; // Package destination\r\n        address buyer; // Buyer\r\n        uint id; // Order ID\r\n        bool shipped; // Order shipped\r\n    }\r\n\r\n    mapping(address => string) customerDeliveryAddresses; // Delivery addresses\r\n    mapping(uint => Order) orders; // Orders\r\n\r\n    function setDeliveryAddress(string where) external {\r\n        customerDeliveryAddresses[msg.sender] = where; // Set delivery address\r\n    }\r\n\r\n    function ship(uint id, address customer) external returns (bool handled) {\r\n        if (keccak256(abi.encodePacked(customerDeliveryAddresses[customer])) == keccak256(abi.encodePacked(\"\")) || orders[id].shipped == true) { // Check delivery address set\r\n            return false; // Return failed\r\n        }\r\n\r\n        orders[id] = Order(customerDeliveryAddresses[customer], customer, id, true); // Init shipped order\r\n        \r\n        return true; // Return success\r\n    }\r\n}",
  "sourcePath": "R:\\B9Lab-Assignments\\Debugging\\warehouse\\contracts\\warehouse.sol",
  "compiler": {
    "name": "solc",
    "version": "0.4.24+commit.e67f0147.Emscripten.clang"
  },
  "schemaVersion": "2.0.1",
  "updatedAt": "2018-11-04T04:10:18.172Z"
}