{
  "contractName": "TestWarehouse",
  "abi": [
    {
      "constant": false,
      "inputs": [
        {
          "name": "where",
          "type": "string"
        }
      ],
      "name": "setDeliveryAddress",
      "outputs": [],
      "payable": false,
      "stateMutability": "nonpayable",
      "type": "function"
    },
    {
      "constant": false,
      "inputs": [
        {
          "name": "id",
          "type": "uint256"
        },
        {
          "name": "customer",
          "type": "address"
        }
      ],
      "name": "ship",
      "outputs": [
        {
          "name": "handled",
          "type": "bool"
        }
      ],
      "payable": false,
      "stateMutability": "nonpayable",
      "type": "function"
    }
  ],
  "bytecode": "0x608060405234801561001057600080fd5b506107e8806100206000396000f30060806040526004361061004c576000357c0100000000000000000000000000000000000000000000000000000000900463ffffffff1680639f0d6d0f14610051578063e5568317146100b6575b600080fd5b34801561005d57600080fd5b5061009c60048036038101908080359060200190929190803573ffffffffffffffffffffffffffffffffffffffff1690602001909291905050506100f1565b604051808215151515815260200191505060405180910390f35b3480156100c257600080fd5b506100ef600480360381019080803590602001908201803590602001919091929391929390505050610645565b005b6000806000808473ffffffffffffffffffffffffffffffffffffffff1673ffffffffffffffffffffffffffffffffffffffff1681526020019081526020016000208385600160405160200180858054600181600116156101000203166002900480156101945780601f10610172576101008083540402835291820191610194565b820191906000526020600020905b815481529060010190602001808311610180575b50508473ffffffffffffffffffffffffffffffffffffffff1673ffffffffffffffffffffffffffffffffffffffff166c0100000000000000000000000002815260140183815260200182151515157f01000000000000000000000000000000000000000000000000000000000000000281526001019450505050506040516020818303038152906040526040518082805190602001908083835b602083101515610253578051825260208201915060208101905060208303925061022e565b6001836020036101000a038019825116818451168082178552505050505050905001915050604051809103902090506040516020018060000190506040516020818303038152906040526040518082805190602001908083835b6020831015156102d257805182526020820191506020810190506020830392506102ad565b6001836020036101000a0380198251168184511680821785525050505050509050019150506040518091039020600019166000808573ffffffffffffffffffffffffffffffffffffffff1673ffffffffffffffffffffffffffffffffffffffff168152602001908152602001600020604051602001808280546001816001161561010002031660029004801561039f5780601f1061037d57610100808354040283529182019161039f565b820191906000526020600020905b81548152906001019060200180831161038b575b50509150506040516020818303038152906040526040518082805190602001908083835b6020831015156103e857805182526020820191506020810190506020830392506103c3565b6001836020036101000a038019825116818451168082178552505050505050905001915050604051809103902060001916148061045457506001151560016000836000191660001916815260200190815260200160002060040160009054906101000a900460ff161515145b15610462576000915061063e565b60a0604051908101604052806000808673ffffffffffffffffffffffffffffffffffffffff1673ffffffffffffffffffffffffffffffffffffffff1681526020019081526020016000208054600181600116156101000203166002900480601f0160208091040260200160405190810160405280929190818152602001828054600181600116156101000203166002900480156105405780601f1061051557610100808354040283529160200191610540565b820191906000526020600020905b81548152906001019060200180831161052357829003601f168201915b505050505081526020018473ffffffffffffffffffffffffffffffffffffffff168152602001858152602001826000191681526020016001151581525060016000836000191660001916815260200190815260200160002060008201518160000190805190602001906105b4929190610697565b5060208201518160010160006101000a81548173ffffffffffffffffffffffffffffffffffffffff021916908373ffffffffffffffffffffffffffffffffffffffff160217905550604082015181600201556060820151816003019060001916905560808201518160040160006101000a81548160ff021916908315150217905550905050600191505b5092915050565b81816000803373ffffffffffffffffffffffffffffffffffffffff1673ffffffffffffffffffffffffffffffffffffffff1681526020019081526020016000209190610692929190610717565b505050565b828054600181600116156101000203166002900490600052602060002090601f016020900481019282601f106106d857805160ff1916838001178555610706565b82800160010185558215610706579182015b828111156107055782518255916020019190600101906106ea565b5b5090506107139190610797565b5090565b828054600181600116156101000203166002900490600052602060002090601f016020900481019282601f1061075857803560ff1916838001178555610786565b82800160010185558215610786579182015b8281111561078557823582559160200191906001019061076a565b5b5090506107939190610797565b5090565b6107b991905b808211156107b557600081600090555060010161079d565b5090565b905600a165627a7a723058204e4231a8a2f2e5aa675bc8863876e14bf6d4cb748f44da52010b52e9706584890029",
  "source": "pragma solidity ^0.4.24;\r\n\r\ninterface Warehouse {\r\n    function setDeliveryAddress(string where) external;\r\n    function ship(uint id, address customer) external returns (bool handled);\r\n}\r\n\r\ncontract Store {\r\n    address wallet;\r\n    Warehouse warehouse;\r\n\r\n    constructor(address _wallet, address _warehouse) public {\r\n        wallet = _wallet;\r\n        warehouse = Warehouse(_warehouse);\r\n    }\r\n\r\n    function purchase(uint id) payable public returns (bool success) {\r\n        wallet.transfer(msg.value);\r\n        return warehouse.ship(id, msg.sender);\r\n    }\r\n}\r\n\r\ncontract TestWarehouse is Warehouse {\r\n    struct Order {\r\n        string deliveryAddress; // Package destination\r\n        address buyer; // Buyer\r\n        uint ProductID; // Order product ID\r\n        bytes32 ID; // Order ID\r\n        bool shipped; // Order shipped\r\n    }\r\n\r\n    mapping(address => string) customerDeliveryAddresses; // Delivery addresses\r\n    mapping(bytes32 => Order) orders; // Orders\r\n\r\n    function setDeliveryAddress(string where) external {\r\n        customerDeliveryAddresses[msg.sender] = where; // Set delivery address\r\n    }\r\n\r\n    function ship(uint id, address customer) external returns (bool handled) {\r\n        bytes32 productID = keccak256(abi.encodePacked(customerDeliveryAddresses[customer], customer, id, true));\r\n\r\n        if (keccak256(abi.encodePacked(customerDeliveryAddresses[customer])) == keccak256(abi.encodePacked(\"\")) || orders[productID].shipped == true) { // Check delivery address set\r\n            return false; // Return failed\r\n        }\r\n\r\n        orders[productID] = Order(customerDeliveryAddresses[customer], customer, id, productID, true); // Init shipped order\r\n        \r\n        return true; // Return success\r\n    }\r\n}",
  "sourcePath": "R:\\B9Lab-Assignments\\Debugging\\warehouse\\contracts\\warehouse.sol",
  "compiler": {
    "name": "solc",
    "version": "0.4.24+commit.e67f0147.Emscripten.clang"
  },
  "schemaVersion": "2.0.1",
  "updatedAt": "2018-11-04T14:45:19.555Z"
}