{
  "contractName": "RockPaperScissors",
  "abi": [
    {
      "constant": true,
      "inputs": [
        {
          "name": "",
          "type": "bytes32"
        }
      ],
      "name": "Games",
      "outputs": [
        {
          "name": "Initialized",
          "type": "bool"
        },
        {
          "name": "InviteCode",
          "type": "bytes32"
        },
        {
          "name": "GameFinished",
          "type": "bool"
        },
        {
          "name": "Block",
          "type": "uint256"
        },
        {
          "name": "RoundsPlayed",
          "type": "uint256"
        },
        {
          "name": "Winner",
          "type": "address"
        },
        {
          "name": "AllPlayersCommitted",
          "type": "bool"
        }
      ],
      "payable": false,
      "stateMutability": "view",
      "type": "function"
    },
    {
      "anonymous": false,
      "inputs": [
        {
          "indexed": false,
          "name": "FirstPlayer",
          "type": "address"
        },
        {
          "indexed": false,
          "name": "InviteCode",
          "type": "bytes32"
        },
        {
          "indexed": false,
          "name": "Block",
          "type": "uint256"
        }
      ],
      "name": "NewGame",
      "type": "event"
    },
    {
      "anonymous": false,
      "inputs": [
        {
          "indexed": false,
          "name": "Player",
          "type": "address"
        },
        {
          "indexed": false,
          "name": "InviteCode",
          "type": "bytes32"
        },
        {
          "indexed": false,
          "name": "Block",
          "type": "uint256"
        }
      ],
      "name": "PlayerJoinedGame",
      "type": "event"
    },
    {
      "anonymous": false,
      "inputs": [
        {
          "indexed": false,
          "name": "Player",
          "type": "address"
        },
        {
          "indexed": false,
          "name": "Move",
          "type": "uint256"
        },
        {
          "indexed": false,
          "name": "InviteCode",
          "type": "bytes32"
        },
        {
          "indexed": false,
          "name": "Block",
          "type": "uint256"
        }
      ],
      "name": "PlayerMadeMove",
      "type": "event"
    },
    {
      "anonymous": false,
      "inputs": [
        {
          "indexed": false,
          "name": "Player",
          "type": "address"
        },
        {
          "indexed": false,
          "name": "Value",
          "type": "uint256"
        },
        {
          "indexed": false,
          "name": "InviteCode",
          "type": "bytes32"
        },
        {
          "indexed": false,
          "name": "Block",
          "type": "uint256"
        }
      ],
      "name": "PlayerMadeBet",
      "type": "event"
    },
    {
      "anonymous": false,
      "inputs": [
        {
          "indexed": false,
          "name": "Player",
          "type": "address"
        },
        {
          "indexed": false,
          "name": "Value",
          "type": "uint256"
        },
        {
          "indexed": false,
          "name": "InviteCode",
          "type": "bytes32"
        },
        {
          "indexed": false,
          "name": "Block",
          "type": "uint256"
        }
      ],
      "name": "PlayerClaimedBet",
      "type": "event"
    },
    {
      "anonymous": false,
      "inputs": [
        {
          "indexed": false,
          "name": "WinningPlayer",
          "type": "address"
        },
        {
          "indexed": false,
          "name": "LosingPlayer",
          "type": "address"
        },
        {
          "indexed": false,
          "name": "InviteCode",
          "type": "bytes32"
        },
        {
          "indexed": false,
          "name": "Block",
          "type": "uint256"
        }
      ],
      "name": "PlayerWonRound",
      "type": "event"
    },
    {
      "anonymous": false,
      "inputs": [
        {
          "indexed": false,
          "name": "WinningPlayer",
          "type": "address"
        },
        {
          "indexed": false,
          "name": "LosingPlayer",
          "type": "address"
        },
        {
          "indexed": false,
          "name": "InviteCode",
          "type": "bytes32"
        },
        {
          "indexed": false,
          "name": "Block",
          "type": "uint256"
        }
      ],
      "name": "PlayerWon",
      "type": "event"
    },
    {
      "constant": false,
      "inputs": [],
      "name": "newGame",
      "outputs": [
        {
          "name": "_inviteCode",
          "type": "bytes32"
        }
      ],
      "payable": false,
      "stateMutability": "nonpayable",
      "type": "function"
    },
    {
      "constant": false,
      "inputs": [
        {
          "name": "_inviteCode",
          "type": "bytes32"
        }
      ],
      "name": "joinGame",
      "outputs": [],
      "payable": false,
      "stateMutability": "nonpayable",
      "type": "function"
    },
    {
      "constant": false,
      "inputs": [
        {
          "name": "_inviteCode",
          "type": "bytes32"
        },
        {
          "name": "_encryptedMove",
          "type": "bytes32"
        }
      ],
      "name": "commitMove",
      "outputs": [],
      "payable": false,
      "stateMutability": "nonpayable",
      "type": "function"
    },
    {
      "constant": false,
      "inputs": [
        {
          "name": "_inviteCode",
          "type": "bytes32"
        },
        {
          "name": "_move",
          "type": "uint256"
        },
        {
          "name": "_privateKey",
          "type": "bytes32"
        }
      ],
      "name": "revealMove",
      "outputs": [],
      "payable": false,
      "stateMutability": "nonpayable",
      "type": "function"
    },
    {
      "constant": true,
      "inputs": [
        {
          "name": "_inviteCode",
          "type": "bytes32"
        }
      ],
      "name": "getAllPlayersCommitted",
      "outputs": [
        {
          "name": "_allPlayersCommitted",
          "type": "bool"
        }
      ],
      "payable": false,
      "stateMutability": "view",
      "type": "function"
    },
    {
      "constant": false,
      "inputs": [
        {
          "name": "_inviteCode",
          "type": "bytes32"
        }
      ],
      "name": "bet",
      "outputs": [],
      "payable": true,
      "stateMutability": "payable",
      "type": "function"
    },
    {
      "constant": false,
      "inputs": [
        {
          "name": "_inviteCode",
          "type": "bytes32"
        }
      ],
      "name": "claimBet",
      "outputs": [],
      "payable": false,
      "stateMutability": "nonpayable",
      "type": "function"
    },
    {
      "constant": true,
      "inputs": [
        {
          "name": "_inviteCode",
          "type": "bytes32"
        },
        {
          "name": "_address",
          "type": "address"
        }
      ],
      "name": "winCount",
      "outputs": [
        {
          "name": "_winCount",
          "type": "uint256"
        }
      ],
      "payable": false,
      "stateMutability": "view",
      "type": "function"
    }
  ],
  "bytecode": "0x608060405234801561001057600080fd5b506150b0806100206000396000f300608060405260043610610099576000357c0100000000000000000000000000000000000000000000000000000000900463ffffffff16806311d444611461009e578063177413da146100e757806322cd5ea81461010b5780637d03f5f31461013c578063a72408d21461016f578063af2768ec146101d4578063bf47476614610213578063e8d2e78b14610244578063f89ca001146102f3575b600080fd5b3480156100aa57600080fd5b506100cd600480360381019080803560001916906020019092919050505061033c565b604051808215151515815260200191505060405180910390f35b6101096004803603810190808035600019169060200190929190505050610416565b005b34801561011757600080fd5b5061013a600480360381019080803560001916906020019092919050505061075e565b005b34801561014857600080fd5b50610151610fb5565b60405180826000191660001916815260200191505060405180910390f35b34801561017b57600080fd5b506101be6004803603810190808035600019169060200190929190803573ffffffffffffffffffffffffffffffffffffffff169060200190929190505050611346565b6040518082815260200191505060405180910390f35b3480156101e057600080fd5b5061021160048036038101908080356000191690602001909291908035600019169060200190929190505050611406565b005b34801561021f57600080fd5b50610242600480360381019080803560001916906020019092919050505061190e565b005b34801561025057600080fd5b506102736004803603810190808035600019169060200190929190505050611cc6565b60405180881515151581526020018760001916600019168152602001861515151581526020018581526020018481526020018373ffffffffffffffffffffffffffffffffffffffff1673ffffffffffffffffffffffffffffffffffffffff1681526020018215151515815260200197505050505050505060405180910390f35b3480156102ff57600080fd5b5061033a6004803603810190808035600019169060200190929190803590602001909291908035600019169060200190929190505050611d4f565b005b600060011515600080846000191660001916815260200190815260200160002060000160009054906101000a900460ff1615151415156103e4576040517f08c379a00000000000000000000000000000000000000000000000000000000081526004018080602001828103825260148152602001807f47616d6520646f6573206e6f742065786973742e00000000000000000000000081525060200191505060405180910390fd5b600080836000191660001916815260200190815260200160002060070160149054906101000a900460ff169050919050565b60011515600080836000191660001916815260200190815260200160002060000160009054906101000a900460ff1615151415156104bc576040517f08c379a00000000000000000000000000000000000000000000000000000000081526004018080602001828103825260148152602001807f47616d6520646f6573206e6f742065786973742e00000000000000000000000081525060200191505060405180910390fd5b6000806000836000191660001916815260200190815260200160002060050154141515610551576040517f08c379a00000000000000000000000000000000000000000000000000000000081526004018080602001828103825260158152602001807f47616d6520616c726561647920737461727465642e000000000000000000000081525060200191505060405180910390fd5b6105fc3360008084600019166000191681526020019081526020016000206001018054806020026020016040519081016040528092919081815260200182805480156105f257602002820191906000526020600020905b8160009054906101000a900473ffffffffffffffffffffffffffffffffffffffff1673ffffffffffffffffffffffffffffffffffffffff16815260200190600101908083116105a8575b5050505050614d30565b1515610670576040517f08c379a00000000000000000000000000000000000000000000000000000000081526004018080602001828103825260138152602001807f506c61796572206e6f7420696e2067616d652e0000000000000000000000000081525060200191505060405180910390fd5b34600080836000191660001916815260200190815260200160002060080160003373ffffffffffffffffffffffffffffffffffffffff1673ffffffffffffffffffffffffffffffffffffffff168152602001908152602001600020600082825401925050819055507fb261f7e3c46b898f28fa63832cfac6b7aa325d9327d1d9ef2769da3f642b377433348343604051808573ffffffffffffffffffffffffffffffffffffffff1673ffffffffffffffffffffffffffffffffffffffff168152602001848152602001836000191660001916815260200182815260200194505050505060405180910390a150565b600060011515600080846000191660001916815260200190815260200160002060000160009054906101000a900460ff161515141515610806576040517f08c379a00000000000000000000000000000000000000000000000000000000081526004018080602001828103825260148152602001807f47616d6520646f6573206e6f742065786973742e00000000000000000000000081525060200191505060405180910390fd5b600360008084600019166000191681526020019081526020016000206005015414151561089b576040517f08c379a00000000000000000000000000000000000000000000000000000000081526004018080602001828103825260158152602001807f47616d65206861736e27742066696e69736865642e000000000000000000000081525060200191505060405180910390fd5b61094633600080856000191660001916815260200190815260200160002060010180548060200260200160405190810160405280929190818152602001828054801561093c57602002820191906000526020600020905b8160009054906101000a900473ffffffffffffffffffffffffffffffffffffffff1673ffffffffffffffffffffffffffffffffffffffff16815260200190600101908083116108f2575b5050505050614d30565b15156109ba576040517f08c379a00000000000000000000000000000000000000000000000000000000081526004018080602001828103825260138152602001807f506c61796572206e6f7420696e2067616d652e0000000000000000000000000081525060200191505060405180910390fd5b3373ffffffffffffffffffffffffffffffffffffffff16600080846000191660001916815260200190815260200160002060070160009054906101000a900473ffffffffffffffffffffffffffffffffffffffff1673ffffffffffffffffffffffffffffffffffffffff16141515610a9a576040517f08c379a00000000000000000000000000000000000000000000000000000000081526004018080602001828103825260178152602001807f506c61796572206469646e27742077696e2067616d652e00000000000000000081525060200191505060405180910390fd5b610c0b60008084600019166000191681526020019081526020016000206008016000610b67336000808860001916600019168152602001908152602001600020600101805480602002602001604051908101604052809291908181526020018280548015610b5d57602002820191906000526020600020905b8160009054906101000a900473ffffffffffffffffffffffffffffffffffffffff1673ffffffffffffffffffffffffffffffffffffffff1681526020019060010190808311610b13575b5050505050614daf565b73ffffffffffffffffffffffffffffffffffffffff1673ffffffffffffffffffffffffffffffffffffffff16815260200190815260200160002054600080856000191660001916815260200190815260200160002060080160003373ffffffffffffffffffffffffffffffffffffffff1673ffffffffffffffffffffffffffffffffffffffff16815260200190815260200160002054614e4590919063ffffffff16565b9050600080600084600019166000191681526020019081526020016000206008016000610cd9336000808860001916600019168152602001908152602001600020600101805480602002602001604051908101604052809291908181526020018280548015610ccf57602002820191906000526020600020905b8160009054906101000a900473ffffffffffffffffffffffffffffffffffffffff1673ffffffffffffffffffffffffffffffffffffffff1681526020019060010190808311610c85575b5050505050614daf565b73ffffffffffffffffffffffffffffffffffffffff1673ffffffffffffffffffffffffffffffffffffffff168152602001908152602001600020819055506000806000846000191660001916815260200190815260200160002060080160003373ffffffffffffffffffffffffffffffffffffffff1673ffffffffffffffffffffffffffffffffffffffff168152602001908152602001600020819055503373ffffffffffffffffffffffffffffffffffffffff166108fc829081150290604051600060405180830381858888f19350505050158015610dbd573d6000803e3d6000fd5b507f49b9eccd8c556ec199a811793a0c33d24bc8f1aba9fc577b7d2fcde053801dea33610f5160008086600019166000191681526020019081526020016000206008016000610ead336000808a60001916600019168152602001908152602001600020600101805480602002602001604051908101604052809291908181526020018280548015610ea357602002820191906000526020600020905b8160009054906101000a900473ffffffffffffffffffffffffffffffffffffffff1673ffffffffffffffffffffffffffffffffffffffff1681526020019060010190808311610e59575b5050505050614daf565b73ffffffffffffffffffffffffffffffffffffffff1673ffffffffffffffffffffffffffffffffffffffff16815260200190815260200160002054600080876000191660001916815260200190815260200160002060080160003373ffffffffffffffffffffffffffffffffffffffff1673ffffffffffffffffffffffffffffffffffffffff16815260200190815260200160002054614e4590919063ffffffff16565b8443604051808573ffffffffffffffffffffffffffffffffffffffff1673ffffffffffffffffffffffffffffffffffffffff168152602001848152602001836000191660001916815260200182815260200194505050505060405180910390a15050565b6000606080610fc2614ece565b6002604051908082528060200260200182016040528015610ff25781602001602082028038833980820191505090505b50925060036040519080825280602002602001820160405280156110255781602001602082028038833980820191505090505b5091503383600081518110151561103857fe5b9060200190602002019073ffffffffffffffffffffffffffffffffffffffff16908173ffffffffffffffffffffffffffffffffffffffff168152505061012060405190810160405280600115158152602001848152602001844360405160200180838051906020019060200280838360005b838110156110c55780820151818401526020810190506110aa565b50505050905001828152602001925050506040516020818303038152906040526040518082805190602001908083835b60208310151561111a57805182526020820191506020810190506020830392506110f5565b6001836020036101000a038019825116818451168082178552505050505050905001915050604051809103902060001916815260200160001515815260200143815260200160008152602001838152602001600073ffffffffffffffffffffffffffffffffffffffff1681526020016000151581525090508060008083604001516000191660001916815260200190815260200160002060008201518160000160006101000a81548160ff02191690831515021790555060208201518160010190805190602001906111ed929190614f3a565b506040820151816002019060001916905560608201518160030160006101000a81548160ff0219169083151502179055506080820151816004015560a0820151816005015560c082015181600601908051906020019061124e929190614f3a565b5060e08201518160070160006101000a81548173ffffffffffffffffffffffffffffffffffffffff021916908373ffffffffffffffffffffffffffffffffffffffff1602179055506101008201518160070160146101000a81548160ff0219169083151502179055509050507f3d6c02e74ba05913874ba8d477497510df840bf93bfa5a2a8d8943766678a0e333826040015143604051808473ffffffffffffffffffffffffffffffffffffffff1673ffffffffffffffffffffffffffffffffffffffff1681526020018360001916600019168152602001828152602001935050505060405180910390a18060400151935050505090565b6000806000809150600090505b6003811415156113fb578373ffffffffffffffffffffffffffffffffffffffff1660008087600019166000191681526020019081526020016000206006018281548110151561139e57fe5b9060005260206000200160009054906101000a900473ffffffffffffffffffffffffffffffffffffffff1673ffffffffffffffffffffffffffffffffffffffff1614156113ee5781806001019250505b8080600101915050611353565b819250505092915050565b60011515600080846000191660001916815260200190815260200160002060000160009054906101000a900460ff1615151415156114ac576040517f08c379a00000000000000000000000000000000000000000000000000000000081526004018080602001828103825260128152602001807f47616d6520646f6573206e6f742065786974000000000000000000000000000081525060200191505060405180910390fd5b600360008084600019166000191681526020019081526020016000206005015414151515611542576040517f08c379a00000000000000000000000000000000000000000000000000000000081526004018080602001828103825260168152602001807f47616d6520616c72656164792066696e69736865642e0000000000000000000081525060200191505060405180910390fd5b6115ed3360008085600019166000191681526020019081526020016000206001018054806020026020016040519081016040528092919081815260200182805480156115e357602002820191906000526020600020905b8160009054906101000a900473ffffffffffffffffffffffffffffffffffffffff1673ffffffffffffffffffffffffffffffffffffffff1681526020019060010190808311611599575b5050505050614d30565b1515611661576040517f08c379a00000000000000000000000000000000000000000000000000000000081526004018080602001828103825260138152602001807f506c61796572206e6f7420696e2067616d652e0000000000000000000000000081525060200191505060405180910390fd5b600073ffffffffffffffffffffffffffffffffffffffff16600080846000191660001916815260200190815260200160002060010160008154811015156116a457fe5b9060005260206000200160009054906101000a900473ffffffffffffffffffffffffffffffffffffffff1673ffffffffffffffffffffffffffffffffffffffff161415151561175b576040517f08c379a00000000000000000000000000000000000000000000000000000000081526004018080602001828103825260138152602001807f4e6f7420656e6f75676820706c61796572732e0000000000000000000000000081525060200191505060405180910390fd5b806000808460001916600019168152602001908152602001600020600a0160003373ffffffffffffffffffffffffffffffffffffffff1673ffffffffffffffffffffffffffffffffffffffff168152602001908152602001600020816000191690555060006001026000808460001916600019168152602001908152602001600020600a01600061188d33600080886000191660001916815260200190815260200160002060010180548060200260200160405190810160405280929190818152602001828054801561188357602002820191906000526020600020905b8160009054906101000a900473ffffffffffffffffffffffffffffffffffffffff1673ffffffffffffffffffffffffffffffffffffffff1681526020019060010190808311611839575b5050505050614daf565b73ffffffffffffffffffffffffffffffffffffffff1673ffffffffffffffffffffffffffffffffffffffff168152602001908152602001600020546000191614151561190a576001600080846000191660001916815260200190815260200160002060070160146101000a81548160ff0219169083151502179055505b5050565b60011515600080836000191660001916815260200190815260200160002060000160009054906101000a900460ff1615151415156119b4576040517f08c379a00000000000000000000000000000000000000000000000000000000081526004018080602001828103825260148152602001807f47616d6520646f6573206e6f742065786973742e00000000000000000000000081525060200191505060405180910390fd5b6000806000836000191660001916815260200190815260200160002060010160018154811015156119e157fe5b9060005260206000200160009054906101000a900473ffffffffffffffffffffffffffffffffffffffff1673ffffffffffffffffffffffffffffffffffffffff16141515611a97576040517f08c379a00000000000000000000000000000000000000000000000000000000081526004018080602001828103825260128152602001807f47616d6520616c72656164792066756c6c2e000000000000000000000000000081525060200191505060405180910390fd5b6000806000836000191660001916815260200190815260200160002060050154141515611b2c576040517f08c379a00000000000000000000000000000000000000000000000000000000081526004018080602001828103825260158152602001807f47616d6520616c726561647920737461727465642e000000000000000000000081525060200191505060405180910390fd5b336000808360001916600019168152602001908152602001600020600101611bf46000808560001916600019168152602001908152602001600020600101805480602002602001604051908101604052809291908181526020018280548015611bea57602002820191906000526020600020905b8160009054906101000a900473ffffffffffffffffffffffffffffffffffffffff1673ffffffffffffffffffffffffffffffffffffffff1681526020019060010190808311611ba0575b5050505050614e66565b815481101515611c0057fe5b9060005260206000200160006101000a81548173ffffffffffffffffffffffffffffffffffffffff021916908373ffffffffffffffffffffffffffffffffffffffff1602179055507feb9863b2d0818b8590f0108ccbd30a1b74b21f32ba6533329df1aeb0d52ee775338243604051808473ffffffffffffffffffffffffffffffffffffffff1673ffffffffffffffffffffffffffffffffffffffff1681526020018360001916600019168152602001828152602001935050505060405180910390a150565b60006020528060005260406000206000915090508060000160009054906101000a900460ff16908060020154908060030160009054906101000a900460ff16908060040154908060050154908060070160009054906101000a900473ffffffffffffffffffffffffffffffffffffffff16908060070160149054906101000a900460ff16905087565b60008060008060006001026000808960001916600019168152602001908152602001600020600a0160003373ffffffffffffffffffffffffffffffffffffffff1673ffffffffffffffffffffffffffffffffffffffff168152602001908152602001600020546000191614158015611ed3575060006001026000808960001916600019168152602001908152602001600020600a016000611e91336000808d60001916600019168152602001908152602001600020600101805480602002602001604051908101604052809291908181526020018280548015611e8757602002820191906000526020600020905b8160009054906101000a900473ffffffffffffffffffffffffffffffffffffffff1673ffffffffffffffffffffffffffffffffffffffff1681526020019060010190808311611e3d575b5050505050614daf565b73ffffffffffffffffffffffffffffffffffffffff1673ffffffffffffffffffffffffffffffffffffffff168152602001908152602001600020546000191614155b1515611f6d576040517f08c379a000000000000000000000000000000000000000000000000000000000815260040180806020018281038252602a8152602001807f4e6f7420616c6c20706c6179657273206861766520636f6d6d6974746564206181526020017f206d6f7665207965742e0000000000000000000000000000000000000000000081525060400191505060405180910390fd5b6000808860001916600019168152602001908152602001600020600a0160003373ffffffffffffffffffffffffffffffffffffffff1673ffffffffffffffffffffffffffffffffffffffff16815260200190815260200160002054600019168686604051602001808381526020018260001916600019168152602001925050506040516020818303038152906040526040518082805190602001908083835b602083101515612031578051825260208201915060208101905060208303925061200c565b6001836020036101000a0380198251168184511680821785525050505050509050019150506040518091039020600019161415156120fd576040517f08c379a00000000000000000000000000000000000000000000000000000000081526004018080602001828103825260238152602001807f496e76616c6964206d6f76652028646f65736e2774206d6174636820636f6d6d81526020017f697429000000000000000000000000000000000000000000000000000000000081525060400191505060405180910390fd5b60008611801561210d5750600486105b1515612181576040517f08c379a000000000000000000000000000000000000000000000000000000000815260040180806020018281038252600c8152602001807f496e76616c6964206d6f7665000000000000000000000000000000000000000081525060200191505060405180910390fd5b60011515600080896000191660001916815260200190815260200160002060000160009054906101000a900460ff161515141515612227576040517f08c379a00000000000000000000000000000000000000000000000000000000081526004018080602001828103825260148152602001807f47616d6520646f6573206e6f742065786973742e00000000000000000000000081525060200191505060405180910390fd5b6003600080896000191660001916815260200190815260200160002060050154141515156122bd576040517f08c379a00000000000000000000000000000000000000000000000000000000081526004018080602001828103825260168152602001807f47616d6520616c72656164792066696e69736865642e0000000000000000000081525060200191505060405180910390fd5b612368336000808a6000191660001916815260200190815260200160002060010180548060200260200160405190810160405280929190818152602001828054801561235e57602002820191906000526020600020905b8160009054906101000a900473ffffffffffffffffffffffffffffffffffffffff1673ffffffffffffffffffffffffffffffffffffffff1681526020019060010190808311612314575b5050505050614d30565b15156123dc576040517f08c379a00000000000000000000000000000000000000000000000000000000081526004018080602001828103825260138152602001807f506c61796572206e6f7420696e2067616d652e0000000000000000000000000081525060200191505060405180910390fd5b600073ffffffffffffffffffffffffffffffffffffffff166000808960001916600019168152602001908152602001600020600101600081548110151561241f57fe5b9060005260206000200160009054906101000a900473ffffffffffffffffffffffffffffffffffffffff1673ffffffffffffffffffffffffffffffffffffffff16141515156124d6576040517f08c379a00000000000000000000000000000000000000000000000000000000081526004018080602001828103825260138152602001807f4e6f7420656e6f75676820706c61796572732e0000000000000000000000000081525060200191505060405180910390fd5b600080886000191660001916815260200190815260200160002060090160006125a0336000808c6000191660001916815260200190815260200160002060010180548060200260200160405190810160405280929190818152602001828054801561259657602002820191906000526020600020905b8160009054906101000a900473ffffffffffffffffffffffffffffffffffffffff1673ffffffffffffffffffffffffffffffffffffffff168152602001906001019080831161254c575b5050505050614daf565b73ffffffffffffffffffffffffffffffffffffffff1673ffffffffffffffffffffffffffffffffffffffff16815260200190815260200160002080549050600080896000191660001916815260200190815260200160002060090160003373ffffffffffffffffffffffffffffffffffffffff1673ffffffffffffffffffffffffffffffffffffffff16815260200190815260200160002080549050111515156126b2576040517f08c379a000000000000000000000000000000000000000000000000000000000815260040180806020018281038252601e8152602001807f4f7468657220706c61796572206861736e2774206d6f766564207965742e000081525060200191505060405180910390fd5b600080886000191660001916815260200190815260200160002060090160003373ffffffffffffffffffffffffffffffffffffffff1673ffffffffffffffffffffffffffffffffffffffff168152602001908152602001600020805480919060010161271e9190614fc4565b5085600080896000191660001916815260200190815260200160002060090160003373ffffffffffffffffffffffffffffffffffffffff1673ffffffffffffffffffffffffffffffffffffffff1681526020019081526020016000206000808a60001916600019168152602001908152602001600020600501548154811015156127a457fe5b9060005260206000200181905550336000808960001916600019168152602001908152602001600020600b016000612802896000808d6000191660001916815260200190815260200160002060050154614e4590919063ffffffff16565b815260200190815260200160002060006101000a81548173ffffffffffffffffffffffffffffffffffffffff021916908373ffffffffffffffffffffffffffffffffffffffff1602179055507f1d5ad503e2037ec9786501836c2879ce894cbccab52fb32b62235f0ed6ccf49933878943604051808573ffffffffffffffffffffffffffffffffffffffff1673ffffffffffffffffffffffffffffffffffffffff168152602001848152602001836000191660001916815260200182815260200194505050505060405180910390a16000808860001916600019168152602001908152602001600020600901600061299b336000808c6000191660001916815260200190815260200160002060010180548060200260200160405190810160405280929190818152602001828054801561299157602002820191906000526020600020905b8160009054906101000a900473ffffffffffffffffffffffffffffffffffffffff1673ffffffffffffffffffffffffffffffffffffffff1681526020019060010190808311612947575b5050505050614daf565b73ffffffffffffffffffffffffffffffffffffffff1673ffffffffffffffffffffffffffffffffffffffff16815260200190815260200160002080549050600080896000191660001916815260200190815260200160002060090160003373ffffffffffffffffffffffffffffffffffffffff1673ffffffffffffffffffffffffffffffffffffffff168152602001908152602001600020805490501415614d2757600080886000191660001916815260200190815260200160002060090160003373ffffffffffffffffffffffffffffffffffffffff1673ffffffffffffffffffffffffffffffffffffffff168152602001908152602001600020600080896000191660001916815260200190815260200160002060050154815481101515612ac157fe5b9060005260206000200154935060008088600019166000191681526020019081526020016000206009016000612b98336000808c60001916600019168152602001908152602001600020600101805480602002602001604051908101604052809291908181526020018280548015612b8e57602002820191906000526020600020905b8160009054906101000a900473ffffffffffffffffffffffffffffffffffffffff1673ffffffffffffffffffffffffffffffffffffffff1681526020019060010190808311612b44575b5050505050614daf565b73ffffffffffffffffffffffffffffffffffffffff1673ffffffffffffffffffffffffffffffffffffffff168152602001908152602001600020600080896000191660001916815260200190815260200160002060050154815481101515612bfc57fe5b9060005260206000200154925060006001026000808960001916600019168152602001908152602001600020600a0160003373ffffffffffffffffffffffffffffffffffffffff1673ffffffffffffffffffffffffffffffffffffffff168152602001908152602001600020816000191690555060006001026000808960001916600019168152602001908152602001600020600a016000612d3f336000808d60001916600019168152602001908152602001600020600101805480602002602001604051908101604052809291908181526020018280548015612d3557602002820191906000526020600020905b8160009054906101000a900473ffffffffffffffffffffffffffffffffffffffff1673ffffffffffffffffffffffffffffffffffffffff1681526020019060010190808311612ceb575b5050505050614daf565b73ffffffffffffffffffffffffffffffffffffffff1673ffffffffffffffffffffffffffffffffffffffff16815260200190815260200160002081600019169055508284141515614d265760008088600019166000191681526020019081526020016000206006018054809190600101612db99190614ff0565b506001841480612dc95750600183145b156134c8576003841480612ddd5750600383145b1561314a576000808860001916600019168152602001908152602001600020600b016000612e3260016000808c6000191660001916815260200190815260200160002060050154614e4590919063ffffffff16565b815260200190815260200160002060009054906101000a900473ffffffffffffffffffffffffffffffffffffffff1660008089600019166000191681526020019081526020016000206006016000808a6000191660001916815260200190815260200160002060050154815481101515612ea857fe5b9060005260206000200160006101000a81548173ffffffffffffffffffffffffffffffffffffffff021916908373ffffffffffffffffffffffffffffffffffffffff1602179055507f70c5dd4aa77b3c67df232934ca4739f2a4ecd16c97f6ce0844c154a10e743f036000808960001916600019168152602001908152602001600020600b016000612f6160016000808d6000191660001916815260200190815260200160002060050154614e4590919063ffffffff16565b815260200190815260200160002060009054906101000a900473ffffffffffffffffffffffffffffffffffffffff166130b96000808b60001916600019168152602001908152602001600020600b016000612fe360016000808f6000191660001916815260200190815260200160002060050154614e4590919063ffffffff16565b815260200190815260200160002060009054906101000a900473ffffffffffffffffffffffffffffffffffffffff166000808c600019166000191681526020019081526020016000206001018054806020026020016040519081016040528092919081815260200182805480156130af57602002820191906000526020600020905b8160009054906101000a900473ffffffffffffffffffffffffffffffffffffffff1673ffffffffffffffffffffffffffffffffffffffff1681526020019060010190808311613065575b5050505050614daf565b8943604051808573ffffffffffffffffffffffffffffffffffffffff1673ffffffffffffffffffffffffffffffffffffffff1681526020018473ffffffffffffffffffffffffffffffffffffffff1673ffffffffffffffffffffffffffffffffffffffff168152602001836000191660001916815260200182815260200194505050505060405180910390a16134c3565b60028414806131595750600283145b156134c2576000808860001916600019168152602001908152602001600020600b0160006131ae60026000808c6000191660001916815260200190815260200160002060050154614e4590919063ffffffff16565b815260200190815260200160002060009054906101000a900473ffffffffffffffffffffffffffffffffffffffff1660008089600019166000191681526020019081526020016000206006016000808a600019166000191681526020019081526020016000206005015481548110151561322457fe5b9060005260206000200160006101000a81548173ffffffffffffffffffffffffffffffffffffffff021916908373ffffffffffffffffffffffffffffffffffffffff1602179055507f70c5dd4aa77b3c67df232934ca4739f2a4ecd16c97f6ce0844c154a10e743f036000808960001916600019168152602001908152602001600020600b0160006132dd60026000808d6000191660001916815260200190815260200160002060050154614e4590919063ffffffff16565b815260200190815260200160002060009054906101000a900473ffffffffffffffffffffffffffffffffffffffff166134356000808b60001916600019168152602001908152602001600020600b01600061335f60026000808f6000191660001916815260200190815260200160002060050154614e4590919063ffffffff16565b815260200190815260200160002060009054906101000a900473ffffffffffffffffffffffffffffffffffffffff166000808c6000191660001916815260200190815260200160002060010180548060200260200160405190810160405280929190818152602001828054801561342b57602002820191906000526020600020905b8160009054906101000a900473ffffffffffffffffffffffffffffffffffffffff1673ffffffffffffffffffffffffffffffffffffffff16815260200190600101908083116133e1575b5050505050614daf565b8943604051808573ffffffffffffffffffffffffffffffffffffffff1673ffffffffffffffffffffffffffffffffffffffff1681526020018473ffffffffffffffffffffffffffffffffffffffff1673ffffffffffffffffffffffffffffffffffffffff168152602001836000191660001916815260200182815260200194505050505060405180910390a15b5b6149a8565b60028414806134d75750600283145b15613f395760018414806134eb5750600183145b15613858576000808860001916600019168152602001908152602001600020600b01600061354060026000808c6000191660001916815260200190815260200160002060050154614e4590919063ffffffff16565b815260200190815260200160002060009054906101000a900473ffffffffffffffffffffffffffffffffffffffff1660008089600019166000191681526020019081526020016000206006016000808a60001916600019168152602001908152602001600020600501548154811015156135b657fe5b9060005260206000200160006101000a81548173ffffffffffffffffffffffffffffffffffffffff021916908373ffffffffffffffffffffffffffffffffffffffff1602179055507f70c5dd4aa77b3c67df232934ca4739f2a4ecd16c97f6ce0844c154a10e743f036000808960001916600019168152602001908152602001600020600b01600061366f60026000808d6000191660001916815260200190815260200160002060050154614e4590919063ffffffff16565b815260200190815260200160002060009054906101000a900473ffffffffffffffffffffffffffffffffffffffff166137c76000808b60001916600019168152602001908152602001600020600b0160006136f160026000808f6000191660001916815260200190815260200160002060050154614e4590919063ffffffff16565b815260200190815260200160002060009054906101000a900473ffffffffffffffffffffffffffffffffffffffff166000808c600019166000191681526020019081526020016000206001018054806020026020016040519081016040528092919081815260200182805480156137bd57602002820191906000526020600020905b8160009054906101000a900473ffffffffffffffffffffffffffffffffffffffff1673ffffffffffffffffffffffffffffffffffffffff1681526020019060010190808311613773575b5050505050614daf565b8943604051808573ffffffffffffffffffffffffffffffffffffffff1673ffffffffffffffffffffffffffffffffffffffff1681526020018473ffffffffffffffffffffffffffffffffffffffff1673ffffffffffffffffffffffffffffffffffffffff168152602001836000191660001916815260200182815260200194505050505060405180910390a1613bd1565b60038414806138675750600383145b15613bd0576000808860001916600019168152602001908152602001600020600b0160006138bc60036000808c6000191660001916815260200190815260200160002060050154614e4590919063ffffffff16565b815260200190815260200160002060009054906101000a900473ffffffffffffffffffffffffffffffffffffffff1660008089600019166000191681526020019081526020016000206006016000808a600019166000191681526020019081526020016000206005015481548110151561393257fe5b9060005260206000200160006101000a81548173ffffffffffffffffffffffffffffffffffffffff021916908373ffffffffffffffffffffffffffffffffffffffff1602179055507f70c5dd4aa77b3c67df232934ca4739f2a4ecd16c97f6ce0844c154a10e743f036000808960001916600019168152602001908152602001600020600b0160006139eb60036000808d6000191660001916815260200190815260200160002060050154614e4590919063ffffffff16565b815260200190815260200160002060009054906101000a900473ffffffffffffffffffffffffffffffffffffffff16613b436000808b60001916600019168152602001908152602001600020600b016000613a6d60036000808f6000191660001916815260200190815260200160002060050154614e4590919063ffffffff16565b815260200190815260200160002060009054906101000a900473ffffffffffffffffffffffffffffffffffffffff166000808c60001916600019168152602001908152602001600020600101805480602002602001604051908101604052809291908181526020018280548015613b3957602002820191906000526020600020905b8160009054906101000a900473ffffffffffffffffffffffffffffffffffffffff1673ffffffffffffffffffffffffffffffffffffffff1681526020019060010190808311613aef575b5050505050614daf565b8943604051808573ffffffffffffffffffffffffffffffffffffffff1673ffffffffffffffffffffffffffffffffffffffff1681526020018473ffffffffffffffffffffffffffffffffffffffff1673ffffffffffffffffffffffffffffffffffffffff168152602001836000191660001916815260200182815260200194505050505060405180910390a15b5b6000808860001916600019168152602001908152602001600020600b016000613c2160026000808c6000191660001916815260200190815260200160002060050154614e4590919063ffffffff16565b815260200190815260200160002060009054906101000a900473ffffffffffffffffffffffffffffffffffffffff1660008089600019166000191681526020019081526020016000206006016000808a6000191660001916815260200190815260200160002060050154815481101515613c9757fe5b9060005260206000200160006101000a81548173ffffffffffffffffffffffffffffffffffffffff021916908373ffffffffffffffffffffffffffffffffffffffff1602179055507f70c5dd4aa77b3c67df232934ca4739f2a4ecd16c97f6ce0844c154a10e743f036000808960001916600019168152602001908152602001600020600b016000613d5060026000808d6000191660001916815260200190815260200160002060050154614e4590919063ffffffff16565b815260200190815260200160002060009054906101000a900473ffffffffffffffffffffffffffffffffffffffff16613ea86000808b60001916600019168152602001908152602001600020600b016000613dd260026000808f6000191660001916815260200190815260200160002060050154614e4590919063ffffffff16565b815260200190815260200160002060009054906101000a900473ffffffffffffffffffffffffffffffffffffffff166000808c60001916600019168152602001908152602001600020600101805480602002602001604051908101604052809291908181526020018280548015613e9e57602002820191906000526020600020905b8160009054906101000a900473ffffffffffffffffffffffffffffffffffffffff1673ffffffffffffffffffffffffffffffffffffffff1681526020019060010190808311613e54575b5050505050614daf565b8943604051808573ffffffffffffffffffffffffffffffffffffffff1673ffffffffffffffffffffffffffffffffffffffff1681526020018473ffffffffffffffffffffffffffffffffffffffff1673ffffffffffffffffffffffffffffffffffffffff168152602001836000191660001916815260200182815260200194505050505060405180910390a16149a7565b6003841480613f485750600383145b156149a6576002841480613f5c5750600283145b156142c9576000808860001916600019168152602001908152602001600020600b016000613fb160036000808c6000191660001916815260200190815260200160002060050154614e4590919063ffffffff16565b815260200190815260200160002060009054906101000a900473ffffffffffffffffffffffffffffffffffffffff1660008089600019166000191681526020019081526020016000206006016000808a600019166000191681526020019081526020016000206005015481548110151561402757fe5b9060005260206000200160006101000a81548173ffffffffffffffffffffffffffffffffffffffff021916908373ffffffffffffffffffffffffffffffffffffffff1602179055507f70c5dd4aa77b3c67df232934ca4739f2a4ecd16c97f6ce0844c154a10e743f036000808960001916600019168152602001908152602001600020600b0160006140e060036000808d6000191660001916815260200190815260200160002060050154614e4590919063ffffffff16565b815260200190815260200160002060009054906101000a900473ffffffffffffffffffffffffffffffffffffffff166142386000808b60001916600019168152602001908152602001600020600b01600061416260036000808f6000191660001916815260200190815260200160002060050154614e4590919063ffffffff16565b815260200190815260200160002060009054906101000a900473ffffffffffffffffffffffffffffffffffffffff166000808c6000191660001916815260200190815260200160002060010180548060200260200160405190810160405280929190818152602001828054801561422e57602002820191906000526020600020905b8160009054906101000a900473ffffffffffffffffffffffffffffffffffffffff1673ffffffffffffffffffffffffffffffffffffffff16815260200190600101908083116141e4575b5050505050614daf565b8943604051808573ffffffffffffffffffffffffffffffffffffffff1673ffffffffffffffffffffffffffffffffffffffff1681526020018473ffffffffffffffffffffffffffffffffffffffff1673ffffffffffffffffffffffffffffffffffffffff168152602001836000191660001916815260200182815260200194505050505060405180910390a1614642565b60018414806142d85750600183145b15614641576000808860001916600019168152602001908152602001600020600b01600061432d60016000808c6000191660001916815260200190815260200160002060050154614e4590919063ffffffff16565b815260200190815260200160002060009054906101000a900473ffffffffffffffffffffffffffffffffffffffff1660008089600019166000191681526020019081526020016000206006016000808a60001916600019168152602001908152602001600020600501548154811015156143a357fe5b9060005260206000200160006101000a81548173ffffffffffffffffffffffffffffffffffffffff021916908373ffffffffffffffffffffffffffffffffffffffff1602179055507f70c5dd4aa77b3c67df232934ca4739f2a4ecd16c97f6ce0844c154a10e743f036000808960001916600019168152602001908152602001600020600b01600061445c60016000808d6000191660001916815260200190815260200160002060050154614e4590919063ffffffff16565b815260200190815260200160002060009054906101000a900473ffffffffffffffffffffffffffffffffffffffff166145b46000808b60001916600019168152602001908152602001600020600b0160006144de60016000808f6000191660001916815260200190815260200160002060050154614e4590919063ffffffff16565b815260200190815260200160002060009054906101000a900473ffffffffffffffffffffffffffffffffffffffff166000808c600019166000191681526020019081526020016000206001018054806020026020016040519081016040528092919081815260200182805480156145aa57602002820191906000526020600020905b8160009054906101000a900473ffffffffffffffffffffffffffffffffffffffff1673ffffffffffffffffffffffffffffffffffffffff1681526020019060010190808311614560575b5050505050614daf565b8943604051808573ffffffffffffffffffffffffffffffffffffffff1673ffffffffffffffffffffffffffffffffffffffff1681526020018473ffffffffffffffffffffffffffffffffffffffff1673ffffffffffffffffffffffffffffffffffffffff168152602001836000191660001916815260200182815260200194505050505060405180910390a15b5b6000808860001916600019168152602001908152602001600020600b01600061469260036000808c6000191660001916815260200190815260200160002060050154614e4590919063ffffffff16565b815260200190815260200160002060009054906101000a900473ffffffffffffffffffffffffffffffffffffffff1660008089600019166000191681526020019081526020016000206006016000808a600019166000191681526020019081526020016000206005015481548110151561470857fe5b9060005260206000200160006101000a81548173ffffffffffffffffffffffffffffffffffffffff021916908373ffffffffffffffffffffffffffffffffffffffff1602179055507f70c5dd4aa77b3c67df232934ca4739f2a4ecd16c97f6ce0844c154a10e743f036000808960001916600019168152602001908152602001600020600b0160006147c160036000808d6000191660001916815260200190815260200160002060050154614e4590919063ffffffff16565b815260200190815260200160002060009054906101000a900473ffffffffffffffffffffffffffffffffffffffff166149196000808b60001916600019168152602001908152602001600020600b01600061484360036000808f6000191660001916815260200190815260200160002060050154614e4590919063ffffffff16565b815260200190815260200160002060009054906101000a900473ffffffffffffffffffffffffffffffffffffffff166000808c6000191660001916815260200190815260200160002060010180548060200260200160405190810160405280929190818152602001828054801561490f57602002820191906000526020600020905b8160009054906101000a900473ffffffffffffffffffffffffffffffffffffffff1673ffffffffffffffffffffffffffffffffffffffff16815260200190600101908083116148c5575b5050505050614daf565b8943604051808573ffffffffffffffffffffffffffffffffffffffff1673ffffffffffffffffffffffffffffffffffffffff1681526020018473ffffffffffffffffffffffffffffffffffffffff1673ffffffffffffffffffffffffffffffffffffffff168152602001836000191660001916815260200182815260200194505050505060405180910390a15b5b5b60008088600019166000191681526020019081526020016000206005016000815480929190600101919050555060036000808960001916600019168152602001908152602001600020600501541415614d2557339150614aa9336000808a60001916600019168152602001908152602001600020600101805480602002602001604051908101604052809291908181526020018280548015614a9f57602002820191906000526020600020905b8160009054906101000a900473ffffffffffffffffffffffffffffffffffffffff1673ffffffffffffffffffffffffffffffffffffffff1681526020019060010190808311614a55575b5050505050614daf565b90506002614b6188614b5c336000808d60001916600019168152602001908152602001600020600101805480602002602001604051908101604052809291908181526020018280548015614b5257602002820191906000526020600020905b8160009054906101000a900473ffffffffffffffffffffffffffffffffffffffff1673ffffffffffffffffffffffffffffffffffffffff1681526020019060010190808311614b08575b5050505050614daf565b611346565b101515614c1957614c13336000808a60001916600019168152602001908152602001600020600101805480602002602001604051908101604052809291908181526020018280548015614c0957602002820191906000526020600020905b8160009054906101000a900473ffffffffffffffffffffffffffffffffffffffff1673ffffffffffffffffffffffffffffffffffffffff1681526020019060010190808311614bbf575b5050505050614daf565b91503390505b81600080896000191660001916815260200190815260200160002060070160006101000a81548173ffffffffffffffffffffffffffffffffffffffff021916908373ffffffffffffffffffffffffffffffffffffffff1602179055507fb20fdc17b0d97be5f2217745aeb7a58d60749f40112a08bb9bb43a404f89aa7482828943604051808573ffffffffffffffffffffffffffffffffffffffff1673ffffffffffffffffffffffffffffffffffffffff1681526020018473ffffffffffffffffffffffffffffffffffffffff1673ffffffffffffffffffffffffffffffffffffffff168152602001836000191660001916815260200182815260200194505050505060405180910390a15b5b5b50505050505050565b600080600090505b825181141515614da3578373ffffffffffffffffffffffffffffffffffffffff168382815181101515614d6757fe5b9060200190602002015173ffffffffffffffffffffffffffffffffffffffff161415614d965760019150614da8565b8080600101915050614d38565b600091505b5092915050565b600080600090505b825181141515614e39578373ffffffffffffffffffffffffffffffffffffffff168382815181101515614de657fe5b9060200190602002015173ffffffffffffffffffffffffffffffffffffffff16141515614e2c578281815181101515614e1b57fe5b906020019060200201519150614e3e565b8080600101915050614db7565b600091505b5092915050565b6000808284019050838110151515614e5c57600080fd5b8091505092915050565b600080600090505b825181141515614ec35760008382815181101515614e8857fe5b9060200190602002015173ffffffffffffffffffffffffffffffffffffffff161415614eb657809150614ec8565b8080600101915050614e6e565b600080fd5b50919050565b610120604051908101604052806000151581526020016060815260200160008019168152602001600015158152602001600081526020016000815260200160608152602001600073ffffffffffffffffffffffffffffffffffffffff1681526020016000151581525090565b828054828255906000526020600020908101928215614fb3579160200282015b82811115614fb25782518260006101000a81548173ffffffffffffffffffffffffffffffffffffffff021916908373ffffffffffffffffffffffffffffffffffffffff16021790555091602001919060010190614f5a565b5b509050614fc0919061501c565b5090565b815481835581811115614feb57818360005260206000209182019101614fea919061505f565b5b505050565b81548183558181111561501757818360005260206000209182019101615016919061505f565b5b505050565b61505c91905b8082111561505857600081816101000a81549073ffffffffffffffffffffffffffffffffffffffff021916905550600101615022565b5090565b90565b61508191905b8082111561507d576000816000905550600101615065565b5090565b905600a165627a7a723058203d42ae40efb28bb33a994e457b830994f399ecc615b10b922c0272a3de9261420029",
  "source": "pragma solidity ^0.4.24; // Specify compiler version\r\n\r\ncontract RockPaperScissors {\r\n    using SafeMath for uint256;\r\n\r\n    struct Game {\r\n        bool Initialized; // Game initialized\r\n        address[] Players; // Players in game\r\n        bytes32 InviteCode; // Game invitecode\r\n        bool GameFinished; // Game finished\r\n        uint Block; // Origin block\r\n        uint RoundsPlayed; // Rounds played\r\n        address[] RoundWinners; // Winner of each round\r\n        address Winner; // Game winner\r\n        bool AllPlayersCommitted; // Check all players committed\r\n        mapping(address => uint) Bets; // Bets\r\n        mapping(address => uint[]) Moves; // Moves\r\n        mapping(address => bytes32) Commits; // Commits\r\n        mapping(uint => address) PlayerByMove; // Find player by move\r\n    }\r\n\r\n    event NewGame (\r\n        address FirstPlayer, // Player initializing game\r\n        bytes32 InviteCode, // Game invite code\r\n        uint Block // Origin block\r\n    );\r\n\r\n    event PlayerJoinedGame (\r\n        address Player, // Player joining game\r\n        bytes32 InviteCode, // Game invite code\r\n        uint Block // Origin block\r\n    );\r\n\r\n    event PlayerMadeMove (\r\n        address Player, // Player making move\r\n        uint Move, // move\r\n        bytes32 InviteCode, // Game invite code\r\n        uint Block // Origin block\r\n    );\r\n\r\n    event PlayerMadeBet (\r\n        address Player, // Player making bet\r\n        uint256 Value, // Value of bet\r\n        bytes32 InviteCode, // Game invite code\r\n        uint Block // Origin block\r\n    );\r\n\r\n    event PlayerClaimedBet (\r\n        address Player, // Player claiming bet\r\n        uint256 Value, // Value of bet\r\n        bytes32 InviteCode, // Game invite code\r\n        uint Block // Origin block\r\n    );\r\n\r\n    event PlayerWonRound (\r\n        address WinningPlayer, // Winning player\r\n        address LosingPlayer, // Losing player\r\n        bytes32 InviteCode, // Game invite code\r\n        uint Block // Win block\r\n    );\r\n\r\n    event PlayerWon (\r\n        address WinningPlayer, // Winning player\r\n        address LosingPlayer, // Losing player\r\n        bytes32 InviteCode, // Game invite code\r\n        uint Block // Win block\r\n    );\r\n\r\n    mapping(bytes32 => Game) public Games;\r\n\r\n    function newGame() public returns (bytes32 _inviteCode) {\r\n        address[] memory players = new address[](2); // Initialize array\r\n        address[] memory roundWinners = new address[](3); // Initialize array\r\n\r\n        players[0] = msg.sender; // Append sender to players\r\n\r\n        Game memory game = Game(true, players, keccak256(abi.encodePacked(players, block.number)), false, block.number, 0, roundWinners, 0, false); // Initialize game\r\n\r\n        Games[game.InviteCode] = game; // Append game to games list\r\n\r\n        emit NewGame(msg.sender, game.InviteCode, block.number); // Emit initialized game\r\n\r\n        return game.InviteCode; // Return invite code\r\n    }\r\n\r\n    function joinGame(bytes32 _inviteCode) public {\r\n        require(Games[_inviteCode].Initialized == true, \"Game does not exist.\"); // Check game exists\r\n        require(Games[_inviteCode].Players[1] == 0, \"Game already full.\"); // Check game isn't full\r\n        require(Games[_inviteCode].RoundsPlayed == 0, \"Game already started.\"); // Check game hasn't already started\r\n\r\n        Games[_inviteCode].Players[emptyIndex(Games[_inviteCode].Players)] = msg.sender; // Set player\r\n\r\n        emit PlayerJoinedGame(msg.sender, _inviteCode, block.number); // Emit joined game\r\n    }\r\n\r\n    function commitMove(bytes32 _inviteCode, bytes32 _encryptedMove) public {\r\n        require(Games[_inviteCode].Initialized == true, \"Game does not exit\"); // Check game exists\r\n        require(Games[_inviteCode].RoundsPlayed != 3, \"Game already finished.\"); // Check game hasn't already ended\r\n        require(isIn(msg.sender, Games[_inviteCode].Players), \"Player not in game.\"); // Check player is in game\r\n        require(Games[_inviteCode].Players[0] != address(0), \"Not enough players.\"); // Check enough players\r\n\r\n        Games[_inviteCode].Commits[msg.sender] = _encryptedMove; // Commit\r\n\r\n        if (Games[_inviteCode].Commits[otherPlayer(msg.sender, Games[_inviteCode].Players)] != 0) {\r\n            Games[_inviteCode].AllPlayersCommitted = true; // Set all players commmitted\r\n        }\r\n    }\r\n\r\n    function revealMove(bytes32 _inviteCode, uint _move, bytes32 _privateKey) public {\r\n        require(Games[_inviteCode].Commits[msg.sender] != 0 && Games[_inviteCode].Commits[otherPlayer(msg.sender, Games[_inviteCode].Players)] != 0, \"Not all players have committed a move yet.\"); // Check committed\r\n        require(keccak256(abi.encodePacked(_move, _privateKey)) == Games[_inviteCode].Commits[msg.sender], \"Invalid move (doesn't match commit)\");\r\n        require(_move > 0 && _move < 4, \"Invalid move\"); // Check for valid move\r\n        require(Games[_inviteCode].Initialized == true, \"Game does not exist.\"); // Check game exists\r\n        require(Games[_inviteCode].RoundsPlayed != 3, \"Game already finished.\"); // Check game hasn't already ended\r\n        require(isIn(msg.sender, Games[_inviteCode].Players), \"Player not in game.\"); // Check player is in game\r\n        require(Games[_inviteCode].Players[0] != address(0), \"Not enough players.\"); // Check enough players\r\n        require(Games[_inviteCode].Moves[msg.sender].length <= Games[_inviteCode].Moves[otherPlayer(msg.sender, Games[_inviteCode].Players)].length, \"Other player hasn't moved yet.\"); // Check other player moved\r\n\r\n        Games[_inviteCode].Moves[msg.sender].length++; // Increment capacity\r\n        Games[_inviteCode].Moves[msg.sender][Games[_inviteCode].RoundsPlayed] = _move; // Append move\r\n        Games[_inviteCode].PlayerByMove[Games[_inviteCode].RoundsPlayed.add(_move)] = msg.sender; // Set player by move\r\n\r\n        emit PlayerMadeMove(msg.sender, _move, _inviteCode, block.number); // Emit made move\r\n\r\n        if (Games[_inviteCode].Moves[msg.sender].length == Games[_inviteCode].Moves[otherPlayer(msg.sender, Games[_inviteCode].Players)].length) {\r\n            uint PlayerOneMove = Games[_inviteCode].Moves[msg.sender][Games[_inviteCode].RoundsPlayed]; // Fetch sender move\r\n            uint OtherPlayerMove = Games[_inviteCode].Moves[otherPlayer(msg.sender, Games[_inviteCode].Players)][Games[_inviteCode].RoundsPlayed]; // Fetch other player move\r\n\r\n            Games[_inviteCode].Commits[msg.sender] = 0; // Reset commit\r\n            Games[_inviteCode].Commits[otherPlayer(msg.sender, Games[_inviteCode].Players)] = 0; // Reset other player commit\r\n\r\n            if (PlayerOneMove != OtherPlayerMove) { // Check didn't make same move\r\n                Games[_inviteCode].RoundWinners.length++; // Increment capacity\r\n\r\n                if (PlayerOneMove == 1 || OtherPlayerMove == 1) { // Check for rock\r\n                    if (PlayerOneMove == 3 || OtherPlayerMove == 3) { // Check for scissors\r\n                        Games[_inviteCode].RoundWinners[Games[_inviteCode].RoundsPlayed] = Games[_inviteCode].PlayerByMove[Games[_inviteCode].RoundsPlayed.add(1)]; // Add score\r\n\r\n                        emit PlayerWonRound(Games[_inviteCode].PlayerByMove[Games[_inviteCode].RoundsPlayed.add(1)], otherPlayer(Games[_inviteCode].PlayerByMove[Games[_inviteCode].RoundsPlayed.add(1)], Games[_inviteCode].Players), _inviteCode, block.number);\r\n                    } else if (PlayerOneMove == 2 || OtherPlayerMove == 2) { // Check for paper\r\n                        Games[_inviteCode].RoundWinners[Games[_inviteCode].RoundsPlayed] = Games[_inviteCode].PlayerByMove[Games[_inviteCode].RoundsPlayed.add(2)]; // Add score\r\n\r\n                        emit PlayerWonRound(Games[_inviteCode].PlayerByMove[Games[_inviteCode].RoundsPlayed.add(2)], otherPlayer(Games[_inviteCode].PlayerByMove[Games[_inviteCode].RoundsPlayed.add(2)], Games[_inviteCode].Players), _inviteCode, block.number);\r\n                    }\r\n                } else if (PlayerOneMove == 2 || OtherPlayerMove == 2) { // Check for paper\r\n                    if (PlayerOneMove == 1 || OtherPlayerMove == 1) {\r\n                        Games[_inviteCode].RoundWinners[Games[_inviteCode].RoundsPlayed] = Games[_inviteCode].PlayerByMove[Games[_inviteCode].RoundsPlayed.add(2)]; // Add score\r\n\r\n                        emit PlayerWonRound(Games[_inviteCode].PlayerByMove[Games[_inviteCode].RoundsPlayed.add(2)], otherPlayer(Games[_inviteCode].PlayerByMove[Games[_inviteCode].RoundsPlayed.add(2)], Games[_inviteCode].Players), _inviteCode, block.number);\r\n                    } else if (PlayerOneMove == 3 || OtherPlayerMove == 3) {\r\n                        Games[_inviteCode].RoundWinners[Games[_inviteCode].RoundsPlayed] = Games[_inviteCode].PlayerByMove[Games[_inviteCode].RoundsPlayed.add(3)]; // Add score\r\n\r\n                        emit PlayerWonRound(Games[_inviteCode].PlayerByMove[Games[_inviteCode].RoundsPlayed.add(3)], otherPlayer(Games[_inviteCode].PlayerByMove[Games[_inviteCode].RoundsPlayed.add(3)], Games[_inviteCode].Players), _inviteCode, block.number);\r\n                    }\r\n\r\n                    Games[_inviteCode].RoundWinners[Games[_inviteCode].RoundsPlayed] = Games[_inviteCode].PlayerByMove[Games[_inviteCode].RoundsPlayed.add(2)]; // Add score\r\n\r\n                    emit PlayerWonRound(Games[_inviteCode].PlayerByMove[Games[_inviteCode].RoundsPlayed.add(2)], otherPlayer(Games[_inviteCode].PlayerByMove[Games[_inviteCode].RoundsPlayed.add(2)], Games[_inviteCode].Players), _inviteCode, block.number);\r\n                } else if (PlayerOneMove == 3 || OtherPlayerMove == 3) { // Check for scissors\r\n                    if (PlayerOneMove == 2 || OtherPlayerMove == 2) {\r\n                        Games[_inviteCode].RoundWinners[Games[_inviteCode].RoundsPlayed] = Games[_inviteCode].PlayerByMove[Games[_inviteCode].RoundsPlayed.add(3)]; // Add score\r\n\r\n                        emit PlayerWonRound(Games[_inviteCode].PlayerByMove[Games[_inviteCode].RoundsPlayed.add(3)], otherPlayer(Games[_inviteCode].PlayerByMove[Games[_inviteCode].RoundsPlayed.add(3)], Games[_inviteCode].Players), _inviteCode, block.number);\r\n                    } else if (PlayerOneMove == 1 || OtherPlayerMove == 1) {\r\n                        Games[_inviteCode].RoundWinners[Games[_inviteCode].RoundsPlayed] = Games[_inviteCode].PlayerByMove[Games[_inviteCode].RoundsPlayed.add(1)]; // Add score\r\n\r\n                        emit PlayerWonRound(Games[_inviteCode].PlayerByMove[Games[_inviteCode].RoundsPlayed.add(1)], otherPlayer(Games[_inviteCode].PlayerByMove[Games[_inviteCode].RoundsPlayed.add(1)], Games[_inviteCode].Players), _inviteCode, block.number);\r\n                    }\r\n\r\n                    Games[_inviteCode].RoundWinners[Games[_inviteCode].RoundsPlayed] = Games[_inviteCode].PlayerByMove[Games[_inviteCode].RoundsPlayed.add(3)]; // Add score\r\n\r\n                    emit PlayerWonRound(Games[_inviteCode].PlayerByMove[Games[_inviteCode].RoundsPlayed.add(3)], otherPlayer(Games[_inviteCode].PlayerByMove[Games[_inviteCode].RoundsPlayed.add(3)], Games[_inviteCode].Players), _inviteCode, block.number);\r\n                }\r\n\r\n                Games[_inviteCode].RoundsPlayed++; // Increment rounds played\r\n\r\n                if (Games[_inviteCode].RoundsPlayed == 3) { // Check if game finished\r\n                    address winner = msg.sender; // Default\r\n                    address loser = otherPlayer(msg.sender, Games[_inviteCode].Players);\r\n\r\n                    if (winCount(_inviteCode, otherPlayer(msg.sender, Games[_inviteCode].Players)) >= 2) { // Check who won\r\n                        winner = otherPlayer(msg.sender, Games[_inviteCode].Players); // Set winner address\r\n                        loser = msg.sender; // Set loser\r\n                    }\r\n\r\n                    Games[_inviteCode].Winner = winner; // Set winner\r\n\r\n                    emit PlayerWon(winner, loser, _inviteCode, block.number); // Emit player won\r\n                }\r\n            }\r\n        }\r\n    }\r\n\r\n    function getAllPlayersCommitted(bytes32 _inviteCode) public view returns (bool _allPlayersCommitted) {\r\n        require(Games[_inviteCode].Initialized == true, \"Game does not exist.\"); // Check game exists\r\n\r\n        return Games[_inviteCode].AllPlayersCommitted; // Return value\r\n    }\r\n\r\n    function bet(bytes32 _inviteCode) public payable {\r\n        require(Games[_inviteCode].Initialized == true, \"Game does not exist.\"); // Check game exists\r\n        require(Games[_inviteCode].RoundsPlayed == 0, \"Game already started.\"); // Check game hasn't already started\r\n        require(isIn(msg.sender, Games[_inviteCode].Players), \"Player not in game.\"); // Check player is in game\r\n\r\n        Games[_inviteCode].Bets[msg.sender] += msg.value; // Add bet\r\n\r\n        emit PlayerMadeBet(msg.sender, msg.value, _inviteCode, block.number); // Emit made bet\r\n    }\r\n\r\n    function claimBet(bytes32 _inviteCode) public {\r\n        require(Games[_inviteCode].Initialized == true, \"Game does not exist.\"); // Check game exists\r\n        require(Games[_inviteCode].RoundsPlayed == 3, \"Game hasn't finished.\"); // Check game hasn't already started\r\n        require(isIn(msg.sender, Games[_inviteCode].Players), \"Player not in game.\"); // Check player is in game\r\n        require(Games[_inviteCode].Winner == msg.sender, \"Player didn't win game.\"); // Check won game\r\n\r\n        uint256 betVal = Games[_inviteCode].Bets[msg.sender].add(Games[_inviteCode].Bets[otherPlayer(msg.sender, Games[_inviteCode].Players)]); // Calculate reward\r\n\r\n        Games[_inviteCode].Bets[otherPlayer(msg.sender, Games[_inviteCode].Players)] = 0; // Reset bet balance\r\n        Games[_inviteCode].Bets[msg.sender] = 0; // Reset bet balance\r\n\r\n        msg.sender.transfer(betVal); // Send wager\r\n\r\n        emit PlayerClaimedBet(msg.sender, Games[_inviteCode].Bets[msg.sender].add(Games[_inviteCode].Bets[otherPlayer(msg.sender, Games[_inviteCode].Players)]), _inviteCode, block.number); // Emit claimed bet\r\n    }\r\n\r\n    function winCount(bytes32 _inviteCode, address _address) view public returns (uint _winCount) {\r\n        uint z = 0; // Set wins iterator\r\n        \r\n        for (uint x = 0; x != 3; x++) { // Iterate through wins\r\n            if (Games[_inviteCode].RoundWinners[x] == _address) { // Check won round\r\n                z++; // Increment win count\r\n            }\r\n        }\r\n\r\n        return z; // Return win count\r\n    }\r\n\r\n    function otherPlayer(address _value, address[] _array) pure internal returns (address _address) {\r\n        for (uint x = 0; x != _array.length; x++) {\r\n            if (_array[x] != _value) {\r\n                return _array[x]; // Found value\r\n            }\r\n        }\r\n\r\n        return 0; // Reached end of array\r\n    }\r\n\r\n    function isIn(address _value, address[] _array) pure internal returns (bool _isIn) {\r\n        for (uint x = 0; x != _array.length; x++) {\r\n            if (_array[x] == _value) {\r\n                return true; // Found value\r\n            }\r\n        }\r\n\r\n        return false; // Reached end of array\r\n    }\r\n\r\n    function emptyIndex(address[] _array) pure internal returns (uint _emptyIndex) {\r\n        for (uint x = 0; x != _array.length; x++) {\r\n            if (_array[x] == 0) {\r\n                return x; // Found index\r\n            }\r\n        }\r\n\r\n        revert(); // Reached end of array\r\n    }\r\n}\r\n\r\n/**\r\n * @title SafeMath\r\n * @dev Math operations with safety checks that revert on error\r\n */\r\nlibrary SafeMath {\r\n\r\n    /**\r\n    * @dev Multiplies two numbers, reverts on overflow.\r\n    */\r\n    function mul(uint256 a, uint256 b) internal pure returns (uint256) {\r\n        // Gas optimization: this is cheaper than requiring 'a' not being zero, but the\r\n        // benefit is lost if 'b' is also tested.\r\n        // See: https://github.com/OpenZeppelin/openzeppelin-solidity/pull/522\r\n        if (a == 0) {\r\n        return 0;\r\n        }\r\n\r\n        uint256 c = a * b;\r\n        require(c / a == b);\r\n\r\n        return c;\r\n    }\r\n\r\n    /**\r\n    * @dev Integer division of two numbers truncating the quotient, reverts on division by zero.\r\n    */\r\n    function div(uint256 a, uint256 b) internal pure returns (uint256) {\r\n        require(b > 0); // Solidity only automatically asserts when dividing by 0\r\n        uint256 c = a / b;\r\n        // assert(a == b * c + a % b); // There is no case in which this doesn't hold\r\n\r\n        return c;\r\n    }\r\n\r\n    /**\r\n    * @dev Subtracts two numbers, reverts on overflow (i.e. if subtrahend is greater than minuend).\r\n    */\r\n    function sub(uint256 a, uint256 b) internal pure returns (uint256) {\r\n        require(b <= a);\r\n        uint256 c = a - b;\r\n\r\n        return c;\r\n    }\r\n\r\n    /**\r\n    * @dev Adds two numbers, reverts on overflow.\r\n    */\r\n    function add(uint256 a, uint256 b) internal pure returns (uint256) {\r\n        uint256 c = a + b;\r\n        require(c >= a);\r\n\r\n        return c;\r\n    }\r\n\r\n    /**\r\n    * @dev Divides two numbers and returns the remainder (unsigned integer modulo),\r\n    * reverts when dividing by zero.\r\n    */\r\n    function mod(uint256 a, uint256 b) internal pure returns (uint256) {\r\n        require(b != 0);\r\n        return a % b;\r\n    }\r\n}",
  "sourcePath": "R:\\B9Lab-Assignments\\RockPaperScissors\\contracts\\RockPaperScissors.sol",
  "compiler": {
    "name": "solc",
    "version": "0.4.24+commit.e67f0147.Emscripten.clang"
  },
  "schemaVersion": "2.0.1",
  "updatedAt": "2018-10-14T20:09:37.630Z"
}