{
  "contractName": "RockPaperScissors",
  "abi": [
    {
      "constant": true,
      "inputs": [
        {
          "name": "",
          "type": "bytes32"
        }
      ],
      "name": "Games",
      "outputs": [
        {
          "name": "Initialized",
          "type": "bool"
        },
        {
          "name": "InviteCode",
          "type": "bytes32"
        },
        {
          "name": "GameFinished",
          "type": "bool"
        },
        {
          "name": "Block",
          "type": "uint256"
        },
        {
          "name": "RoundsPlayed",
          "type": "uint256"
        }
      ],
      "payable": false,
      "stateMutability": "view",
      "type": "function"
    },
    {
      "anonymous": false,
      "inputs": [
        {
          "indexed": false,
          "name": "FirstPlayer",
          "type": "address"
        },
        {
          "indexed": false,
          "name": "InviteCode",
          "type": "bytes32"
        },
        {
          "indexed": false,
          "name": "Block",
          "type": "uint256"
        }
      ],
      "name": "NewGame",
      "type": "event"
    },
    {
      "anonymous": false,
      "inputs": [
        {
          "indexed": false,
          "name": "Player",
          "type": "address"
        },
        {
          "indexed": false,
          "name": "InviteCode",
          "type": "bytes32"
        },
        {
          "indexed": false,
          "name": "Block",
          "type": "uint256"
        }
      ],
      "name": "PlayerJoinedGame",
      "type": "event"
    },
    {
      "anonymous": false,
      "inputs": [
        {
          "indexed": false,
          "name": "Player",
          "type": "address"
        },
        {
          "indexed": false,
          "name": "Move",
          "type": "uint256"
        },
        {
          "indexed": false,
          "name": "InviteCode",
          "type": "bytes32"
        },
        {
          "indexed": false,
          "name": "Block",
          "type": "uint256"
        }
      ],
      "name": "PlayerMadeMove",
      "type": "event"
    },
    {
      "anonymous": false,
      "inputs": [
        {
          "indexed": false,
          "name": "Player",
          "type": "address"
        },
        {
          "indexed": false,
          "name": "Value",
          "type": "uint256"
        },
        {
          "indexed": false,
          "name": "InviteCode",
          "type": "bytes32"
        },
        {
          "indexed": false,
          "name": "Block",
          "type": "uint256"
        }
      ],
      "name": "PlayerMadeBet",
      "type": "event"
    },
    {
      "anonymous": false,
      "inputs": [
        {
          "indexed": false,
          "name": "Player",
          "type": "address"
        },
        {
          "indexed": false,
          "name": "Value",
          "type": "uint256"
        },
        {
          "indexed": false,
          "name": "InviteCode",
          "type": "bytes32"
        },
        {
          "indexed": false,
          "name": "Block",
          "type": "uint256"
        }
      ],
      "name": "PlayerClaimedBet",
      "type": "event"
    },
    {
      "anonymous": false,
      "inputs": [
        {
          "indexed": false,
          "name": "WinningPlayer",
          "type": "address"
        },
        {
          "indexed": false,
          "name": "LosingPlayer",
          "type": "address"
        },
        {
          "indexed": false,
          "name": "InviteCode",
          "type": "bytes32"
        },
        {
          "indexed": false,
          "name": "Block",
          "type": "uint256"
        }
      ],
      "name": "PlayerWon",
      "type": "event"
    },
    {
      "constant": false,
      "inputs": [],
      "name": "newGame",
      "outputs": [
        {
          "name": "_inviteCode",
          "type": "bytes32"
        }
      ],
      "payable": false,
      "stateMutability": "nonpayable",
      "type": "function"
    },
    {
      "constant": false,
      "inputs": [
        {
          "name": "_inviteCode",
          "type": "bytes32"
        }
      ],
      "name": "joinGame",
      "outputs": [],
      "payable": false,
      "stateMutability": "nonpayable",
      "type": "function"
    },
    {
      "constant": false,
      "inputs": [
        {
          "name": "_inviteCode",
          "type": "bytes32"
        },
        {
          "name": "_move",
          "type": "uint256"
        }
      ],
      "name": "move",
      "outputs": [],
      "payable": false,
      "stateMutability": "nonpayable",
      "type": "function"
    },
    {
      "constant": false,
      "inputs": [
        {
          "name": "_inviteCode",
          "type": "bytes32"
        }
      ],
      "name": "bet",
      "outputs": [],
      "payable": true,
      "stateMutability": "payable",
      "type": "function"
    },
    {
      "constant": false,
      "inputs": [
        {
          "name": "_inviteCode",
          "type": "bytes32"
        }
      ],
      "name": "claimBet",
      "outputs": [],
      "payable": false,
      "stateMutability": "nonpayable",
      "type": "function"
    },
    {
      "constant": true,
      "inputs": [
        {
          "name": "_inviteCode",
          "type": "bytes32"
        },
        {
          "name": "_address",
          "type": "address"
        }
      ],
      "name": "winCount",
      "outputs": [
        {
          "name": "_winCount",
          "type": "uint256"
        }
      ],
      "payable": false,
      "stateMutability": "view",
      "type": "function"
    }
  ],
  "bytecode": "0x608060405234801561001057600080fd5b50612a6c806100206000396000f300608060405260043610610083576000357c0100000000000000000000000000000000000000000000000000000000900463ffffffff168063177413da1461008857806322cd5ea8146100ac578063327942a2146100dd5780637d03f5f314610118578063a72408d21461014b578063bf474766146101b0578063e8d2e78b146101e1575b600080fd5b6100aa6004803603810190808035600019169060200190929190505050610252565b005b3480156100b857600080fd5b506100db600480360381019080803560001916906020019092919050505061059a565b005b3480156100e957600080fd5b50610116600480360381019080803560001916906020019092919080359060200190929190505050610d93565b005b34801561012457600080fd5b5061012d611f49565b60405180826000191660001916815260200191505060405180910390f35b34801561015757600080fd5b5061019a6004803603810190808035600019169060200190929190803573ffffffffffffffffffffffffffffffffffffffff16906020019092919050505061224b565b6040518082815260200191505060405180910390f35b3480156101bc57600080fd5b506101df600480360381019080803560001916906020019092919050505061230b565b005b3480156101ed57600080fd5b5061021060048036038101908080356000191690602001909291905050506126c3565b60405180861515151581526020018560001916600019168152602001841515151581526020018381526020018281526020019550505050505060405180910390f35b60011515600080836000191660001916815260200190815260200160002060000160009054906101000a900460ff1615151415156102f8576040517f08c379a00000000000000000000000000000000000000000000000000000000081526004018080602001828103825260148152602001807f47616d6520646f6573206e6f742065786973742e00000000000000000000000081525060200191505060405180910390fd5b600080600083600019166000191681526020019081526020016000206005015414151561038d576040517f08c379a00000000000000000000000000000000000000000000000000000000081526004018080602001828103825260158152602001807f47616d6520616c726561647920737461727465642e000000000000000000000081525060200191505060405180910390fd5b61043833600080846000191660001916815260200190815260200160002060010180548060200260200160405190810160405280929190818152602001828054801561042e57602002820191906000526020600020905b8160009054906101000a900473ffffffffffffffffffffffffffffffffffffffff1673ffffffffffffffffffffffffffffffffffffffff16815260200190600101908083116103e4575b5050505050612713565b15156104ac576040517f08c379a00000000000000000000000000000000000000000000000000000000081526004018080602001828103825260138152602001807f506c61796572206e6f7420696e2067616d652e0000000000000000000000000081525060200191505060405180910390fd5b34600080836000191660001916815260200190815260200160002060070160003373ffffffffffffffffffffffffffffffffffffffff1673ffffffffffffffffffffffffffffffffffffffff168152602001908152602001600020600082825401925050819055507fb261f7e3c46b898f28fa63832cfac6b7aa325d9327d1d9ef2769da3f642b377433348343604051808573ffffffffffffffffffffffffffffffffffffffff1673ffffffffffffffffffffffffffffffffffffffff168152602001848152602001836000191660001916815260200182815260200194505050505060405180910390a150565b600060011515600080846000191660001916815260200190815260200160002060000160009054906101000a900460ff161515141515610642576040517f08c379a00000000000000000000000000000000000000000000000000000000081526004018080602001828103825260148152602001807f47616d6520646f6573206e6f742065786973742e00000000000000000000000081525060200191505060405180910390fd5b60036000808460001916600019168152602001908152602001600020600501541415156106d7576040517f08c379a00000000000000000000000000000000000000000000000000000000081526004018080602001828103825260158152602001807f47616d65206861736e27742066696e69736865642e000000000000000000000081525060200191505060405180910390fd5b61078233600080856000191660001916815260200190815260200160002060010180548060200260200160405190810160405280929190818152602001828054801561077857602002820191906000526020600020905b8160009054906101000a900473ffffffffffffffffffffffffffffffffffffffff1673ffffffffffffffffffffffffffffffffffffffff168152602001906001019080831161072e575b5050505050612713565b15156107f6576040517f08c379a00000000000000000000000000000000000000000000000000000000081526004018080602001828103825260138152602001807f506c61796572206e6f7420696e2067616d652e0000000000000000000000000081525060200191505060405180910390fd5b6002610802833361224b565b10151515610878576040517f08c379a00000000000000000000000000000000000000000000000000000000081526004018080602001828103825260178152602001807f506c61796572206469646e27742077696e2067616d652e00000000000000000081525060200191505060405180910390fd5b6109e96000808460001916600019168152602001908152602001600020600701600061094533600080886000191660001916815260200190815260200160002060010180548060200260200160405190810160405280929190818152602001828054801561093b57602002820191906000526020600020905b8160009054906101000a900473ffffffffffffffffffffffffffffffffffffffff1673ffffffffffffffffffffffffffffffffffffffff16815260200190600101908083116108f1575b5050505050612792565b73ffffffffffffffffffffffffffffffffffffffff1673ffffffffffffffffffffffffffffffffffffffff16815260200190815260200160002054600080856000191660001916815260200190815260200160002060070160003373ffffffffffffffffffffffffffffffffffffffff1673ffffffffffffffffffffffffffffffffffffffff1681526020019081526020016000205461282890919063ffffffff16565b9050600080600084600019166000191681526020019081526020016000206007016000610ab7336000808860001916600019168152602001908152602001600020600101805480602002602001604051908101604052809291908181526020018280548015610aad57602002820191906000526020600020905b8160009054906101000a900473ffffffffffffffffffffffffffffffffffffffff1673ffffffffffffffffffffffffffffffffffffffff1681526020019060010190808311610a63575b5050505050612792565b73ffffffffffffffffffffffffffffffffffffffff1673ffffffffffffffffffffffffffffffffffffffff168152602001908152602001600020819055506000806000846000191660001916815260200190815260200160002060070160003373ffffffffffffffffffffffffffffffffffffffff1673ffffffffffffffffffffffffffffffffffffffff168152602001908152602001600020819055503373ffffffffffffffffffffffffffffffffffffffff166108fc829081150290604051600060405180830381858888f19350505050158015610b9b573d6000803e3d6000fd5b507f49b9eccd8c556ec199a811793a0c33d24bc8f1aba9fc577b7d2fcde053801dea33610d2f60008086600019166000191681526020019081526020016000206007016000610c8b336000808a60001916600019168152602001908152602001600020600101805480602002602001604051908101604052809291908181526020018280548015610c8157602002820191906000526020600020905b8160009054906101000a900473ffffffffffffffffffffffffffffffffffffffff1673ffffffffffffffffffffffffffffffffffffffff1681526020019060010190808311610c37575b5050505050612792565b73ffffffffffffffffffffffffffffffffffffffff1673ffffffffffffffffffffffffffffffffffffffff16815260200190815260200160002054600080876000191660001916815260200190815260200160002060070160003373ffffffffffffffffffffffffffffffffffffffff1673ffffffffffffffffffffffffffffffffffffffff1681526020019081526020016000205461282890919063ffffffff16565b8443604051808573ffffffffffffffffffffffffffffffffffffffff1673ffffffffffffffffffffffffffffffffffffffff168152602001848152602001836000191660001916815260200182815260200194505050505060405180910390a15050565b600080600080600085118015610da95750600485105b1515610e1d576040517f08c379a000000000000000000000000000000000000000000000000000000000815260040180806020018281038252600c8152602001807f496e76616c6964206d6f7665000000000000000000000000000000000000000081525060200191505060405180910390fd5b60011515600080886000191660001916815260200190815260200160002060000160009054906101000a900460ff161515141515610ec3576040517f08c379a00000000000000000000000000000000000000000000000000000000081526004018080602001828103825260148152602001807f47616d6520646f6573206e6f742065786973742e00000000000000000000000081525060200191505060405180910390fd5b600360008088600019166000191681526020019081526020016000206005015414151515610f59576040517f08c379a00000000000000000000000000000000000000000000000000000000081526004018080602001828103825260168152602001807f47616d6520616c72656164792066696e69736865642e0000000000000000000081525060200191505060405180910390fd5b611004336000808960001916600019168152602001908152602001600020600101805480602002602001604051908101604052809291908181526020018280548015610ffa57602002820191906000526020600020905b8160009054906101000a900473ffffffffffffffffffffffffffffffffffffffff1673ffffffffffffffffffffffffffffffffffffffff1681526020019060010190808311610fb0575b5050505050612713565b1515611078576040517f08c379a00000000000000000000000000000000000000000000000000000000081526004018080602001828103825260138152602001807f506c61796572206e6f7420696e2067616d652e0000000000000000000000000081525060200191505060405180910390fd5b600073ffffffffffffffffffffffffffffffffffffffff16600080886000191660001916815260200190815260200160002060010160008154811015156110bb57fe5b9060005260206000200160009054906101000a900473ffffffffffffffffffffffffffffffffffffffff1673ffffffffffffffffffffffffffffffffffffffff1614151515611172576040517f08c379a00000000000000000000000000000000000000000000000000000000081526004018080602001828103825260138152602001807f4e6f7420656e6f75676820706c61796572732e0000000000000000000000000081525060200191505060405180910390fd5b6000808760001916600019168152602001908152602001600020600801600061123c336000808b6000191660001916815260200190815260200160002060010180548060200260200160405190810160405280929190818152602001828054801561123257602002820191906000526020600020905b8160009054906101000a900473ffffffffffffffffffffffffffffffffffffffff1673ffffffffffffffffffffffffffffffffffffffff16815260200190600101908083116111e8575b5050505050612792565b73ffffffffffffffffffffffffffffffffffffffff1673ffffffffffffffffffffffffffffffffffffffff16815260200190815260200160002080549050600080886000191660001916815260200190815260200160002060080160003373ffffffffffffffffffffffffffffffffffffffff1673ffffffffffffffffffffffffffffffffffffffff168152602001908152602001600020805490501115151561134e576040517f08c379a000000000000000000000000000000000000000000000000000000000815260040180806020018281038252601e8152602001807f4f7468657220706c61796572206861736e2774206d6f766564207965742e000081525060200191505060405180910390fd5b600080876000191660001916815260200190815260200160002060080160003373ffffffffffffffffffffffffffffffffffffffff1673ffffffffffffffffffffffffffffffffffffffff16815260200190815260200160002080548091906001016113ba91906128b1565b5084600080886000191660001916815260200190815260200160002060080160003373ffffffffffffffffffffffffffffffffffffffff1673ffffffffffffffffffffffffffffffffffffffff16815260200190815260200160002060008089600019166000191681526020019081526020016000206005015481548110151561144057fe5b90600052602060002001819055506000808760001916600019168152602001908152602001600020600901600061149d876000808b600019166000191681526020019081526020016000206005015461282890919063ffffffff16565b815260200190815260200160002060009054906101000a9050507f1d5ad503e2037ec9786501836c2879ce894cbccab52fb32b62235f0ed6ccf49933868843604051808573ffffffffffffffffffffffffffffffffffffffff1673ffffffffffffffffffffffffffffffffffffffff168152602001848152602001836000191660001916815260200182815260200194505050505060405180910390a160008087600019166000191681526020019081526020016000206008016000611604336000808b600019166000191681526020019081526020016000206001018054806020026020016040519081016040528092919081815260200182805480156115fa57602002820191906000526020600020905b8160009054906101000a900473ffffffffffffffffffffffffffffffffffffffff1673ffffffffffffffffffffffffffffffffffffffff16815260200190600101908083116115b0575b5050505050612792565b73ffffffffffffffffffffffffffffffffffffffff1673ffffffffffffffffffffffffffffffffffffffff16815260200190815260200160002080549050600080886000191660001916815260200190815260200160002060080160003373ffffffffffffffffffffffffffffffffffffffff1673ffffffffffffffffffffffffffffffffffffffff168152602001908152602001600020805490501415611f4157600080876000191660001916815260200190815260200160002060080160003373ffffffffffffffffffffffffffffffffffffffff1673ffffffffffffffffffffffffffffffffffffffff16815260200190815260200160002060008088600019166000191681526020019081526020016000206005015481548110151561172a57fe5b9060005260206000200154935060008087600019166000191681526020019081526020016000206008016000611801336000808b600019166000191681526020019081526020016000206001018054806020026020016040519081016040528092919081815260200182805480156117f757602002820191906000526020600020905b8160009054906101000a900473ffffffffffffffffffffffffffffffffffffffff1673ffffffffffffffffffffffffffffffffffffffff16815260200190600101908083116117ad575b5050505050612792565b73ffffffffffffffffffffffffffffffffffffffff1673ffffffffffffffffffffffffffffffffffffffff16815260200190815260200160002060008088600019166000191681526020019081526020016000206005015481548110151561186557fe5b906000526020600020015492508284141515611f4057600080876000191660001916815260200190815260200160002060060180548091906001016118aa91906128dd565b5060018414806118ba5750600183145b156119d2576000808760001916600019168152602001908152602001600020600901600061190f60016000808b600019166000191681526020019081526020016000206005015461282890919063ffffffff16565b815260200190815260200160002060009054906101000a900473ffffffffffffffffffffffffffffffffffffffff16600080886000191660001916815260200190815260200160002060060160008089600019166000191681526020019081526020016000206005015481548110151561198557fe5b9060005260206000200160006101000a81548173ffffffffffffffffffffffffffffffffffffffff021916908373ffffffffffffffffffffffffffffffffffffffff160217905550611c1e565b60028414806119e15750600283145b15611af95760008087600019166000191681526020019081526020016000206009016000611a3660026000808b600019166000191681526020019081526020016000206005015461282890919063ffffffff16565b815260200190815260200160002060009054906101000a900473ffffffffffffffffffffffffffffffffffffffff166000808860001916600019168152602001908152602001600020600601600080896000191660001916815260200190815260200160002060050154815481101515611aac57fe5b9060005260206000200160006101000a81548173ffffffffffffffffffffffffffffffffffffffff021916908373ffffffffffffffffffffffffffffffffffffffff160217905550611c1d565b6003841480611b085750600383145b15611c1c5760008087600019166000191681526020019081526020016000206009016000611b5d60036000808b600019166000191681526020019081526020016000206005015461282890919063ffffffff16565b815260200190815260200160002060009054906101000a900473ffffffffffffffffffffffffffffffffffffffff166000808860001916600019168152602001908152602001600020600601600080896000191660001916815260200190815260200160002060050154815481101515611bd357fe5b9060005260206000200160006101000a81548173ffffffffffffffffffffffffffffffffffffffff021916908373ffffffffffffffffffffffffffffffffffffffff1602179055505b5b5b60008087600019166000191681526020019081526020016000206005016000815480929190600101919050555060036000808860001916600019168152602001908152602001600020600501541415611f3f57339150611d1f336000808960001916600019168152602001908152602001600020600101805480602002602001604051908101604052809291908181526020018280548015611d1557602002820191906000526020600020905b8160009054906101000a900473ffffffffffffffffffffffffffffffffffffffff1673ffffffffffffffffffffffffffffffffffffffff1681526020019060010190808311611ccb575b5050505050612792565b90506002611dd787611dd2336000808c60001916600019168152602001908152602001600020600101805480602002602001604051908101604052809291908181526020018280548015611dc857602002820191906000526020600020905b8160009054906101000a900473ffffffffffffffffffffffffffffffffffffffff1673ffffffffffffffffffffffffffffffffffffffff1681526020019060010190808311611d7e575b5050505050612792565b61224b565b101515611e8f57611e89336000808960001916600019168152602001908152602001600020600101805480602002602001604051908101604052809291908181526020018280548015611e7f57602002820191906000526020600020905b8160009054906101000a900473ffffffffffffffffffffffffffffffffffffffff1673ffffffffffffffffffffffffffffffffffffffff1681526020019060010190808311611e35575b5050505050612792565b91503390505b7fb20fdc17b0d97be5f2217745aeb7a58d60749f40112a08bb9bb43a404f89aa7482828843604051808573ffffffffffffffffffffffffffffffffffffffff1673ffffffffffffffffffffffffffffffffffffffff1681526020018473ffffffffffffffffffffffffffffffffffffffff1673ffffffffffffffffffffffffffffffffffffffff168152602001836000191660001916815260200182815260200194505050505060405180910390a15b5b5b505050505050565b6000606080611f56612909565b6002604051908082528060200260200182016040528015611f865781602001602082028038833980820191505090505b5092506003604051908082528060200260200182016040528015611fb95781602001602082028038833980820191505090505b50915033836000815181101515611fcc57fe5b9060200190602002019073ffffffffffffffffffffffffffffffffffffffff16908173ffffffffffffffffffffffffffffffffffffffff168152505060e060405190810160405280600115158152602001848152602001844360405160200180838051906020019060200280838360005b8381101561205857808201518184015260208101905061203d565b50505050905001828152602001925050506040516020818303038152906040526040518082805190602001908083835b6020831015156120ad5780518252602082019150602081019050602083039250612088565b6001836020036101000a0380198251168184511680821785525050505050509050019150506040518091039020600019168152602001600015158152602001438152602001600081526020018381525090508060008083604001516000191660001916815260200190815260200160002060008201518160000160006101000a81548160ff021916908315150217905550602082015181600101908051906020019061215a92919061294e565b506040820151816002019060001916905560608201518160030160006101000a81548160ff0219169083151502179055506080820151816004015560a0820151816005015560c08201518160060190805190602001906121bb92919061294e565b509050507f3d6c02e74ba05913874ba8d477497510df840bf93bfa5a2a8d8943766678a0e333826040015143604051808473ffffffffffffffffffffffffffffffffffffffff1673ffffffffffffffffffffffffffffffffffffffff1681526020018360001916600019168152602001828152602001935050505060405180910390a18060400151935050505090565b6000806000809150600090505b600381141515612300578373ffffffffffffffffffffffffffffffffffffffff166000808760001916600019168152602001908152602001600020600601828154811015156122a357fe5b9060005260206000200160009054906101000a900473ffffffffffffffffffffffffffffffffffffffff1673ffffffffffffffffffffffffffffffffffffffff1614156122f35781806001019250505b8080600101915050612258565b819250505092915050565b60011515600080836000191660001916815260200190815260200160002060000160009054906101000a900460ff1615151415156123b1576040517f08c379a00000000000000000000000000000000000000000000000000000000081526004018080602001828103825260148152602001807f47616d6520646f6573206e6f742065786973742e00000000000000000000000081525060200191505060405180910390fd5b6000806000836000191660001916815260200190815260200160002060010160018154811015156123de57fe5b9060005260206000200160009054906101000a900473ffffffffffffffffffffffffffffffffffffffff1673ffffffffffffffffffffffffffffffffffffffff16141515612494576040517f08c379a00000000000000000000000000000000000000000000000000000000081526004018080602001828103825260128152602001807f47616d6520616c72656164792066756c6c2e000000000000000000000000000081525060200191505060405180910390fd5b6000806000836000191660001916815260200190815260200160002060050154141515612529576040517f08c379a00000000000000000000000000000000000000000000000000000000081526004018080602001828103825260158152602001807f47616d6520616c726561647920737461727465642e000000000000000000000081525060200191505060405180910390fd5b3360008083600019166000191681526020019081526020016000206001016125f160008085600019166000191681526020019081526020016000206001018054806020026020016040519081016040528092919081815260200182805480156125e757602002820191906000526020600020905b8160009054906101000a900473ffffffffffffffffffffffffffffffffffffffff1673ffffffffffffffffffffffffffffffffffffffff168152602001906001019080831161259d575b5050505050612849565b8154811015156125fd57fe5b9060005260206000200160006101000a81548173ffffffffffffffffffffffffffffffffffffffff021916908373ffffffffffffffffffffffffffffffffffffffff1602179055507feb9863b2d0818b8590f0108ccbd30a1b74b21f32ba6533329df1aeb0d52ee775338243604051808473ffffffffffffffffffffffffffffffffffffffff1673ffffffffffffffffffffffffffffffffffffffff1681526020018360001916600019168152602001828152602001935050505060405180910390a150565b60006020528060005260406000206000915090508060000160009054906101000a900460ff16908060020154908060030160009054906101000a900460ff16908060040154908060050154905085565b600080600090505b825181141515612786578373ffffffffffffffffffffffffffffffffffffffff16838281518110151561274a57fe5b9060200190602002015173ffffffffffffffffffffffffffffffffffffffff161415612779576001915061278b565b808060010191505061271b565b600091505b5092915050565b600080600090505b82518114151561281c578373ffffffffffffffffffffffffffffffffffffffff1683828151811015156127c957fe5b9060200190602002015173ffffffffffffffffffffffffffffffffffffffff1614151561280f5782818151811015156127fe57fe5b906020019060200201519150612821565b808060010191505061279a565b600091505b5092915050565b600080828401905083811015151561283f57600080fd5b8091505092915050565b600080600090505b8251811415156128a6576000838281518110151561286b57fe5b9060200190602002015173ffffffffffffffffffffffffffffffffffffffff161415612899578091506128ab565b8080600101915050612851565b600080fd5b50919050565b8154818355818111156128d8578183600052602060002091820191016128d791906129d8565b5b505050565b8154818355818111156129045781836000526020600020918201910161290391906129d8565b5b505050565b60e06040519081016040528060001515815260200160608152602001600080191681526020016000151581526020016000815260200160008152602001606081525090565b8280548282559060005260206000209081019282156129c7579160200282015b828111156129c65782518260006101000a81548173ffffffffffffffffffffffffffffffffffffffff021916908373ffffffffffffffffffffffffffffffffffffffff1602179055509160200191906001019061296e565b5b5090506129d491906129fd565b5090565b6129fa91905b808211156129f65760008160009055506001016129de565b5090565b90565b612a3d91905b80821115612a3957600081816101000a81549073ffffffffffffffffffffffffffffffffffffffff021916905550600101612a03565b5090565b905600a165627a7a72305820006b7e322bffa160529510eedce1500829e1657e0cc9f95f0cb5438ca842bda10029",
  "source": "pragma solidity ^0.4.24; // Specify compiler version\r\n\r\ncontract RockPaperScissors {\r\n    using SafeMath for uint256;\r\n\r\n    struct Game {\r\n        bool Initialized; // Game initialized\r\n        address[] Players; // Players in game\r\n        bytes32 InviteCode; // Game invitecode\r\n        bool GameFinished; // Game finished\r\n        uint Block; // Origin block\r\n        uint RoundsPlayed; // Rounds played\r\n        address[] RoundWinners; // Winner of each round\r\n        mapping(address => uint) Bets; // Bets\r\n        mapping(address => uint[]) Moves; // Moves\r\n        mapping(uint => address) PlayerByMove; // Find player by move\r\n    }\r\n\r\n    event NewGame (\r\n        address FirstPlayer, // Player initializing game\r\n        bytes32 InviteCode, // Game invite code\r\n        uint Block // Origin block\r\n    );\r\n\r\n    event PlayerJoinedGame (\r\n        address Player, // Player joining game\r\n        bytes32 InviteCode, // Game invite code\r\n        uint Block // Origin block\r\n    );\r\n\r\n    event PlayerMadeMove (\r\n        address Player, // Player making move\r\n        uint Move, // Move value\r\n        bytes32 InviteCode, // Game invite code\r\n        uint Block // Origin block\r\n    );\r\n\r\n    event PlayerMadeBet (\r\n        address Player, // Player making bet\r\n        uint256 Value, // Value of bet\r\n        bytes32 InviteCode, // Game invite code\r\n        uint Block // Origin block\r\n    );\r\n\r\n    event PlayerClaimedBet (\r\n        address Player, // Player claiming bet\r\n        uint256 Value, // Value of bet\r\n        bytes32 InviteCode, // Game invite code\r\n        uint Block // Origin block\r\n    );\r\n\r\n    event PlayerWon (\r\n        address WinningPlayer, // Winning player\r\n        address LosingPlayer, // Losing player\r\n        bytes32 InviteCode, // Game invite code\r\n        uint Block // Win block\r\n    );\r\n\r\n    mapping(bytes32 => Game) public Games;\r\n\r\n    function newGame() public returns (bytes32 _inviteCode) {\r\n        address[] memory players = new address[](2); // Initialize array\r\n        address[] memory roundWinners = new address[](3); // Initialize array\r\n\r\n        players[0] = msg.sender; // Append sender to players\r\n\r\n        Game memory game = Game(true, players, keccak256(abi.encodePacked(players, block.number)), false, block.number, 0, roundWinners); // Initialize game\r\n\r\n        Games[game.InviteCode] = game; // Append game to games list\r\n\r\n        emit NewGame(msg.sender, game.InviteCode, block.number); // Emit initialized game\r\n\r\n        return game.InviteCode; // Return invite code\r\n    }\r\n\r\n    function joinGame(bytes32 _inviteCode) public {\r\n        require(Games[_inviteCode].Initialized == true, \"Game does not exist.\"); // Check game exists\r\n        require(Games[_inviteCode].Players[1] == 0, \"Game already full.\"); // Check game isn't full\r\n        require(Games[_inviteCode].RoundsPlayed == 0, \"Game already started.\"); // Check game hasn't already started\r\n\r\n        Games[_inviteCode].Players[emptyIndex(Games[_inviteCode].Players)] = msg.sender; // Set player\r\n\r\n        emit PlayerJoinedGame(msg.sender, _inviteCode, block.number); // Emit joined game\r\n    }\r\n\r\n    function move(bytes32 _inviteCode, uint _move) public {\r\n        require(_move > 0 && _move < 4, \"Invalid move\"); // Check for valid move\r\n        require(Games[_inviteCode].Initialized == true, \"Game does not exist.\"); // Check game exists\r\n        require(Games[_inviteCode].RoundsPlayed != 3, \"Game already finished.\"); // Check game hasn't already ended\r\n        require(isIn(msg.sender, Games[_inviteCode].Players), \"Player not in game.\"); // Check player is in game\r\n        require(Games[_inviteCode].Players[0] != address(0), \"Not enough players.\"); // Check enough players\r\n        require(Games[_inviteCode].Moves[msg.sender].length <= Games[_inviteCode].Moves[otherPlayer(msg.sender, Games[_inviteCode].Players)].length, \"Other player hasn't moved yet.\"); // Check other player moved\r\n\r\n        Games[_inviteCode].Moves[msg.sender].length++; // Increment capacity\r\n        Games[_inviteCode].Moves[msg.sender][Games[_inviteCode].RoundsPlayed] = _move; // Append move\r\n        Games[_inviteCode].PlayerByMove[Games[_inviteCode].RoundsPlayed.add(_move)]; // Set player by move\r\n\r\n        emit PlayerMadeMove(msg.sender, _move, _inviteCode, block.number); // Emit made move\r\n\r\n        if (Games[_inviteCode].Moves[msg.sender].length == Games[_inviteCode].Moves[otherPlayer(msg.sender, Games[_inviteCode].Players)].length) {\r\n            uint PlayerOneMove = Games[_inviteCode].Moves[msg.sender][Games[_inviteCode].RoundsPlayed]; // Fetch sender move\r\n            uint OtherPlayerMove = Games[_inviteCode].Moves[otherPlayer(msg.sender, Games[_inviteCode].Players)][Games[_inviteCode].RoundsPlayed]; // Fetch other player move\r\n\r\n            if (PlayerOneMove != OtherPlayerMove) { // Check didn't make same move\r\n                Games[_inviteCode].RoundWinners.length++; // Increment capacity\r\n\r\n                if (PlayerOneMove == 1 || OtherPlayerMove == 1) { // Check for rock\r\n                    Games[_inviteCode].RoundWinners[Games[_inviteCode].RoundsPlayed] = Games[_inviteCode].PlayerByMove[Games[_inviteCode].RoundsPlayed.add(1)]; // Add score\r\n                } else if (PlayerOneMove == 2 || OtherPlayerMove == 2) { // Check for paper\r\n                    Games[_inviteCode].RoundWinners[Games[_inviteCode].RoundsPlayed] = Games[_inviteCode].PlayerByMove[Games[_inviteCode].RoundsPlayed.add(2)]; // Add score\r\n                } else if (PlayerOneMove == 3 || OtherPlayerMove == 3) { // Check for scissors\r\n                    Games[_inviteCode].RoundWinners[Games[_inviteCode].RoundsPlayed] = Games[_inviteCode].PlayerByMove[Games[_inviteCode].RoundsPlayed.add(3)]; // Add score\r\n                }\r\n\r\n                Games[_inviteCode].RoundsPlayed++; // Increment rounds played\r\n\r\n                if (Games[_inviteCode].RoundsPlayed == 3) { // Check if game finished\r\n                    address winner = msg.sender; // Default\r\n                    address loser = otherPlayer(msg.sender, Games[_inviteCode].Players);\r\n\r\n                    if (winCount(_inviteCode, otherPlayer(msg.sender, Games[_inviteCode].Players)) >= 2) { // Check who won\r\n                        winner = otherPlayer(msg.sender, Games[_inviteCode].Players); // Set winner address\r\n                        loser = msg.sender; // Set loser\r\n                    }\r\n\r\n                    emit PlayerWon(winner, loser, _inviteCode, block.number); // Emit player won\r\n                }\r\n            }\r\n        }\r\n    }\r\n\r\n    function bet(bytes32 _inviteCode) public payable {\r\n        require(Games[_inviteCode].Initialized == true, \"Game does not exist.\"); // Check game exists\r\n        require(Games[_inviteCode].RoundsPlayed == 0, \"Game already started.\"); // Check game hasn't already started\r\n        require(isIn(msg.sender, Games[_inviteCode].Players), \"Player not in game.\"); // Check player is in game\r\n\r\n        Games[_inviteCode].Bets[msg.sender] += msg.value; // Add bet\r\n\r\n        emit PlayerMadeBet(msg.sender, msg.value, _inviteCode, block.number); // Emit made bet\r\n    }\r\n\r\n    function claimBet(bytes32 _inviteCode) public {\r\n        require(Games[_inviteCode].Initialized == true, \"Game does not exist.\"); // Check game exists\r\n        require(Games[_inviteCode].RoundsPlayed == 3, \"Game hasn't finished.\"); // Check game hasn't already started\r\n        require(isIn(msg.sender, Games[_inviteCode].Players), \"Player not in game.\"); // Check player is in game\r\n        require(winCount(_inviteCode, msg.sender) >= 2, \"Player didn't win game.\"); // Check won game\r\n\r\n        uint256 betVal = Games[_inviteCode].Bets[msg.sender].add(Games[_inviteCode].Bets[otherPlayer(msg.sender, Games[_inviteCode].Players)]); // Calculate reward\r\n\r\n        Games[_inviteCode].Bets[otherPlayer(msg.sender, Games[_inviteCode].Players)] = 0; // Reset bet balance\r\n        Games[_inviteCode].Bets[msg.sender] = 0; // Reset bet balance\r\n\r\n        msg.sender.transfer(betVal); // Send wager\r\n\r\n        emit PlayerClaimedBet(msg.sender, Games[_inviteCode].Bets[msg.sender].add(Games[_inviteCode].Bets[otherPlayer(msg.sender, Games[_inviteCode].Players)]), _inviteCode, block.number); // Emit claimed bet\r\n    }\r\n\r\n    function winCount(bytes32 _inviteCode, address _address) view public returns (uint _winCount) {\r\n        uint z = 0; // Set wins iterator\r\n        \r\n        for (uint x = 0; x != 3; x++) { // Iterate through wins\r\n            if (Games[_inviteCode].RoundWinners[x] == _address) { // Check won round\r\n                z++; // Increment win count\r\n            }\r\n        }\r\n\r\n        return z; // Return win count\r\n    }\r\n\r\n    function otherPlayer(address _value, address[] _array) pure internal returns (address _address) {\r\n        for (uint x = 0; x != _array.length; x++) {\r\n            if (_array[x] != _value) {\r\n                return _array[x]; // Found value\r\n            }\r\n        }\r\n\r\n        return 0; // Reached end of array\r\n    }\r\n\r\n    function isIn(address _value, address[] _array) pure internal returns (bool _isIn) {\r\n        for (uint x = 0; x != _array.length; x++) {\r\n            if (_array[x] == _value) {\r\n                return true; // Found value\r\n            }\r\n        }\r\n\r\n        return false; // Reached end of array\r\n    }\r\n\r\n    function emptyIndex(address[] _array) pure internal returns (uint _emptyIndex) {\r\n        for (uint x = 0; x != _array.length; x++) {\r\n            if (_array[x] == 0) {\r\n                return x; // Found index\r\n            }\r\n        }\r\n\r\n        revert(); // Reached end of array\r\n    }\r\n}\r\n\r\n/**\r\n * @title SafeMath\r\n * @dev Math operations with safety checks that revert on error\r\n */\r\nlibrary SafeMath {\r\n\r\n    /**\r\n    * @dev Multiplies two numbers, reverts on overflow.\r\n    */\r\n    function mul(uint256 a, uint256 b) internal pure returns (uint256) {\r\n        // Gas optimization: this is cheaper than requiring 'a' not being zero, but the\r\n        // benefit is lost if 'b' is also tested.\r\n        // See: https://github.com/OpenZeppelin/openzeppelin-solidity/pull/522\r\n        if (a == 0) {\r\n        return 0;\r\n        }\r\n\r\n        uint256 c = a * b;\r\n        require(c / a == b);\r\n\r\n        return c;\r\n    }\r\n\r\n    /**\r\n    * @dev Integer division of two numbers truncating the quotient, reverts on division by zero.\r\n    */\r\n    function div(uint256 a, uint256 b) internal pure returns (uint256) {\r\n        require(b > 0); // Solidity only automatically asserts when dividing by 0\r\n        uint256 c = a / b;\r\n        // assert(a == b * c + a % b); // There is no case in which this doesn't hold\r\n\r\n        return c;\r\n    }\r\n\r\n    /**\r\n    * @dev Subtracts two numbers, reverts on overflow (i.e. if subtrahend is greater than minuend).\r\n    */\r\n    function sub(uint256 a, uint256 b) internal pure returns (uint256) {\r\n        require(b <= a);\r\n        uint256 c = a - b;\r\n\r\n        return c;\r\n    }\r\n\r\n    /**\r\n    * @dev Adds two numbers, reverts on overflow.\r\n    */\r\n    function add(uint256 a, uint256 b) internal pure returns (uint256) {\r\n        uint256 c = a + b;\r\n        require(c >= a);\r\n\r\n        return c;\r\n    }\r\n\r\n    /**\r\n    * @dev Divides two numbers and returns the remainder (unsigned integer modulo),\r\n    * reverts when dividing by zero.\r\n    */\r\n    function mod(uint256 a, uint256 b) internal pure returns (uint256) {\r\n        require(b != 0);\r\n        return a % b;\r\n    }\r\n}",
  "sourcePath": "R:\\B9Lab-Assignments\\RockPaperScissors\\contracts\\RockPaperScissors.sol",
  "compiler": {
    "name": "solc",
    "version": "0.4.24+commit.e67f0147.Emscripten.clang"
  },
  "schemaVersion": "2.0.1",
  "updatedAt": "2018-10-07T01:51:46.620Z"
}