{
  "contractName": "RockPaperScissors",
  "abi": [
    {
      "anonymous": false,
      "inputs": [
        {
          "indexed": false,
          "name": "FirstPlayer",
          "type": "address"
        },
        {
          "indexed": false,
          "name": "InviteCode",
          "type": "bytes32"
        },
        {
          "indexed": false,
          "name": "Block",
          "type": "uint256"
        }
      ],
      "name": "NewGame",
      "type": "event"
    },
    {
      "constant": false,
      "inputs": [],
      "name": "newGame",
      "outputs": [
        {
          "name": "_inviteCode",
          "type": "bytes32"
        }
      ],
      "payable": false,
      "stateMutability": "nonpayable",
      "type": "function"
    },
    {
      "constant": false,
      "inputs": [
        {
          "name": "_inviteCode",
          "type": "bytes32"
        }
      ],
      "name": "joinGame",
      "outputs": [],
      "payable": false,
      "stateMutability": "nonpayable",
      "type": "function"
    },
    {
      "constant": false,
      "inputs": [
        {
          "name": "_inviteCode",
          "type": "bytes32"
        },
        {
          "name": "_move",
          "type": "uint256"
        }
      ],
      "name": "move",
      "outputs": [],
      "payable": true,
      "stateMutability": "payable",
      "type": "function"
    },
    {
      "constant": false,
      "inputs": [
        {
          "name": "_inviteCode",
          "type": "bytes32"
        }
      ],
      "name": "bet",
      "outputs": [],
      "payable": true,
      "stateMutability": "payable",
      "type": "function"
    },
    {
      "constant": false,
      "inputs": [
        {
          "name": "_inviteCode",
          "type": "bytes32"
        }
      ],
      "name": "claimBet",
      "outputs": [],
      "payable": false,
      "stateMutability": "nonpayable",
      "type": "function"
    },
    {
      "constant": true,
      "inputs": [
        {
          "name": "_inviteCode",
          "type": "bytes32"
        },
        {
          "name": "_address",
          "type": "address"
        }
      ],
      "name": "winCount",
      "outputs": [
        {
          "name": "_winCount",
          "type": "uint256"
        }
      ],
      "payable": false,
      "stateMutability": "view",
      "type": "function"
    }
  ],
  "bytecode": "0x608060405234801561001057600080fd5b50611f8c806100206000396000f300608060405260043610610078576000357c0100000000000000000000000000000000000000000000000000000000900463ffffffff168063177413da1461007d57806322cd5ea8146100a1578063327942a2146100d25780637d03f5f314610100578063a72408d214610133578063bf47476614610198575b600080fd5b61009f60048036038101908080356000191690602001909291905050506101c9565b005b3480156100ad57600080fd5b506100d0600480360381019080803560001916906020019092919050505061048e565b005b6100fe600480360381019080803560001916906020019092919080359060200190929190505050610b43565b005b34801561010c57600080fd5b506101156115b1565b60405180826000191660001916815260200191505060405180910390f35b34801561013f57600080fd5b506101826004803603810190808035600019169060200190929190803573ffffffffffffffffffffffffffffffffffffffff1690602001909291905050506118b3565b6040518082815260200191505060405180910390f35b3480156101a457600080fd5b506101c76004803603810190808035600019169060200190929190505050611973565b005b60011515600080836000191660001916815260200190815260200160002060000160009054906101000a900460ff16151514151561026f576040517f08c379a00000000000000000000000000000000000000000000000000000000081526004018080602001828103825260148152602001807f47616d6520646f6573206e6f742065786973742e00000000000000000000000081525060200191505060405180910390fd5b6000806000836000191660001916815260200190815260200160002060050154141515610304576040517f08c379a00000000000000000000000000000000000000000000000000000000081526004018080602001828103825260158152602001807f47616d6520616c726561647920737461727465642e000000000000000000000081525060200191505060405180910390fd5b6103af3360008084600019166000191681526020019081526020016000206001018054806020026020016040519081016040528092919081815260200182805480156103a557602002820191906000526020600020905b8160009054906101000a900473ffffffffffffffffffffffffffffffffffffffff1673ffffffffffffffffffffffffffffffffffffffff168152602001906001019080831161035b575b5050505050611cb0565b1515610423576040517f08c379a00000000000000000000000000000000000000000000000000000000081526004018080602001828103825260138152602001807f506c61796572206e6f7420696e2067616d652e0000000000000000000000000081525060200191505060405180910390fd5b34600080836000191660001916815260200190815260200160002060070160003373ffffffffffffffffffffffffffffffffffffffff1673ffffffffffffffffffffffffffffffffffffffff1681526020019081526020016000206000828254019250508190555050565b60011515600080836000191660001916815260200190815260200160002060000160009054906101000a900460ff161515141515610534576040517f08c379a00000000000000000000000000000000000000000000000000000000081526004018080602001828103825260148152602001807f47616d6520646f6573206e6f742065786973742e00000000000000000000000081525060200191505060405180910390fd5b60036000808360001916600019168152602001908152602001600020600501541415156105c9576040517f08c379a00000000000000000000000000000000000000000000000000000000081526004018080602001828103825260158152602001807f47616d65206861736e27742066696e69736865642e000000000000000000000081525060200191505060405180910390fd5b61067433600080846000191660001916815260200190815260200160002060010180548060200260200160405190810160405280929190818152602001828054801561066a57602002820191906000526020600020905b8160009054906101000a900473ffffffffffffffffffffffffffffffffffffffff1673ffffffffffffffffffffffffffffffffffffffff1681526020019060010190808311610620575b5050505050611cb0565b15156106e8576040517f08c379a00000000000000000000000000000000000000000000000000000000081526004018080602001828103825260138152602001807f506c61796572206e6f7420696e2067616d652e0000000000000000000000000081525060200191505060405180910390fd5b600261079e8261079933600080876000191660001916815260200190815260200160002060010180548060200260200160405190810160405280929190818152602001828054801561078f57602002820191906000526020600020905b8160009054906101000a900473ffffffffffffffffffffffffffffffffffffffff1673ffffffffffffffffffffffffffffffffffffffff1681526020019060010190808311610745575b5050505050611d2f565b6118b3565b6107a883336118b3565b031015151561081f576040517f08c379a00000000000000000000000000000000000000000000000000000000081526004018080602001828103825260178152602001807f506c61796572206469646e27742077696e2067616d652e00000000000000000081525060200191505060405180910390fd5b6000806000836000191660001916815260200190815260200160002060070160006108eb3360008087600019166000191681526020019081526020016000206001018054806020026020016040519081016040528092919081815260200182805480156108e157602002820191906000526020600020905b8160009054906101000a900473ffffffffffffffffffffffffffffffffffffffff1673ffffffffffffffffffffffffffffffffffffffff1681526020019060010190808311610897575b5050505050611d2f565b73ffffffffffffffffffffffffffffffffffffffff1673ffffffffffffffffffffffffffffffffffffffff168152602001908152602001600020819055506000806000836000191660001916815260200190815260200160002060070160003373ffffffffffffffffffffffffffffffffffffffff1673ffffffffffffffffffffffffffffffffffffffff168152602001908152602001600020819055503373ffffffffffffffffffffffffffffffffffffffff166108fc610b1460008085600019166000191681526020019081526020016000206007016000610a70336000808960001916600019168152602001908152602001600020600101805480602002602001604051908101604052809291908181526020018280548015610a6657602002820191906000526020600020905b8160009054906101000a900473ffffffffffffffffffffffffffffffffffffffff1673ffffffffffffffffffffffffffffffffffffffff1681526020019060010190808311610a1c575b5050505050611d2f565b73ffffffffffffffffffffffffffffffffffffffff1673ffffffffffffffffffffffffffffffffffffffff16815260200190815260200160002054600080866000191660001916815260200190815260200160002060070160003373ffffffffffffffffffffffffffffffffffffffff1673ffffffffffffffffffffffffffffffffffffffff16815260200190815260200160002054611dc590919063ffffffff16565b9081150290604051600060405180830381858888f19350505050158015610b3f573d6000803e3d6000fd5b5050565b60008060011515600080866000191660001916815260200190815260200160002060000160009054906101000a900460ff161515141515610bec576040517f08c379a00000000000000000000000000000000000000000000000000000000081526004018080602001828103825260148152602001807f47616d6520646f6573206e6f742065786973742e00000000000000000000000081525060200191505060405180910390fd5b600260008086600019166000191681526020019081526020016000206005015414151515610c82576040517f08c379a00000000000000000000000000000000000000000000000000000000081526004018080602001828103825260168152602001807f47616d6520616c72656164792066696e69736865642e0000000000000000000081525060200191505060405180910390fd5b610d2d336000808760001916600019168152602001908152602001600020600101805480602002602001604051908101604052809291908181526020018280548015610d2357602002820191906000526020600020905b8160009054906101000a900473ffffffffffffffffffffffffffffffffffffffff1673ffffffffffffffffffffffffffffffffffffffff1681526020019060010190808311610cd9575b5050505050611cb0565b1515610da1576040517f08c379a00000000000000000000000000000000000000000000000000000000081526004018080602001828103825260138152602001807f506c61796572206e6f7420696e2067616d652e0000000000000000000000000081525060200191505060405180910390fd5b600080600086600019166000191681526020019081526020016000206001016000815481101515610dce57fe5b9060005260206000200160009054906101000a900473ffffffffffffffffffffffffffffffffffffffff1673ffffffffffffffffffffffffffffffffffffffff1614151515610e85576040517f08c379a00000000000000000000000000000000000000000000000000000000081526004018080602001828103825260138152602001807f4e6f7420656e6f75676820706c61796572732e0000000000000000000000000081525060200191505060405180910390fd5b600080856000191660001916815260200190815260200160002060080160003373ffffffffffffffffffffffffffffffffffffffff1673ffffffffffffffffffffffffffffffffffffffff16815260200190815260200160002083908060018154018082558091505090600182039060005260206000200160009091929091909150555060008085600019166000191681526020019081526020016000206009016000610f5885600080896000191660001916815260200190815260200160002060050154611dc590919063ffffffff16565b815260200190815260200160002060009054906101000a905050600080856000191660001916815260200190815260200160002060080160003373ffffffffffffffffffffffffffffffffffffffff1673ffffffffffffffffffffffffffffffffffffffff16815260200190815260200160002080549050600080866000191660001916815260200190815260200160002060080160003373ffffffffffffffffffffffffffffffffffffffff1673ffffffffffffffffffffffffffffffffffffffff1681526020019081526020016000208054905014156115ab57600080856000191660001916815260200190815260200160002060080160003373ffffffffffffffffffffffffffffffffffffffff1673ffffffffffffffffffffffffffffffffffffffff1681526020019081526020016000206000808660001916600019168152602001908152602001600020600501548154811015156110b857fe5b906000526020600020015491506000808560001916600019168152602001908152602001600020600801600061118f33600080896000191660001916815260200190815260200160002060010180548060200260200160405190810160405280929190818152602001828054801561118557602002820191906000526020600020905b8160009054906101000a900473ffffffffffffffffffffffffffffffffffffffff1673ffffffffffffffffffffffffffffffffffffffff168152602001906001019080831161113b575b5050505050611d2f565b73ffffffffffffffffffffffffffffffffffffffff1673ffffffffffffffffffffffffffffffffffffffff1681526020019081526020016000206000808660001916600019168152602001908152602001600020600501548154811015156111f357fe5b9060005260206000200154905080821415156115aa5760018214806112185750600181145b15611330576000808560001916600019168152602001908152602001600020600901600061126d6001600080896000191660001916815260200190815260200160002060050154611dc590919063ffffffff16565b815260200190815260200160002060009054906101000a900473ffffffffffffffffffffffffffffffffffffffff1660008086600019166000191681526020019081526020016000206006016000808760001916600019168152602001908152602001600020600501548154811015156112e357fe5b9060005260206000200160006101000a81548173ffffffffffffffffffffffffffffffffffffffff021916908373ffffffffffffffffffffffffffffffffffffffff16021790555061157c565b600282148061133f5750600281145b1561145757600080856000191660001916815260200190815260200160002060090160006113946002600080896000191660001916815260200190815260200160002060050154611dc590919063ffffffff16565b815260200190815260200160002060009054906101000a900473ffffffffffffffffffffffffffffffffffffffff16600080866000191660001916815260200190815260200160002060060160008087600019166000191681526020019081526020016000206005015481548110151561140a57fe5b9060005260206000200160006101000a81548173ffffffffffffffffffffffffffffffffffffffff021916908373ffffffffffffffffffffffffffffffffffffffff16021790555061157b565b60038214806114665750600381145b1561157a57600080856000191660001916815260200190815260200160002060090160006114bb6003600080896000191660001916815260200190815260200160002060050154611dc590919063ffffffff16565b815260200190815260200160002060009054906101000a900473ffffffffffffffffffffffffffffffffffffffff16600080866000191660001916815260200190815260200160002060060160008087600019166000191681526020019081526020016000206005015481548110151561153157fe5b9060005260206000200160006101000a81548173ffffffffffffffffffffffffffffffffffffffff021916908373ffffffffffffffffffffffffffffffffffffffff1602179055505b5b5b6000808560001916600019168152602001908152602001600020600501600081548092919060010191905055505b5b50505050565b60006060806115be611e4e565b60026040519080825280602002602001820160405280156115ee5781602001602082028038833980820191505090505b50925060036040519080825280602002602001820160405280156116215781602001602082028038833980820191505090505b5091503383600081518110151561163457fe5b9060200190602002019073ffffffffffffffffffffffffffffffffffffffff16908173ffffffffffffffffffffffffffffffffffffffff168152505060e060405190810160405280600115158152602001848152602001844360405160200180838051906020019060200280838360005b838110156116c05780820151818401526020810190506116a5565b50505050905001828152602001925050506040516020818303038152906040526040518082805190602001908083835b60208310151561171557805182526020820191506020810190506020830392506116f0565b6001836020036101000a0380198251168184511680821785525050505050509050019150506040518091039020600019168152602001600015158152602001438152602001600081526020018381525090508060008083604001516000191660001916815260200190815260200160002060008201518160000160006101000a81548160ff02191690831515021790555060208201518160010190805190602001906117c2929190611e93565b506040820151816002019060001916905560608201518160030160006101000a81548160ff0219169083151502179055506080820151816004015560a0820151816005015560c0820151816006019080519060200190611823929190611e93565b509050507f3d6c02e74ba05913874ba8d477497510df840bf93bfa5a2a8d8943766678a0e333826040015143604051808473ffffffffffffffffffffffffffffffffffffffff1673ffffffffffffffffffffffffffffffffffffffff1681526020018360001916600019168152602001828152602001935050505060405180910390a18060400151935050505090565b6000806000809150600090505b600381141515611968578373ffffffffffffffffffffffffffffffffffffffff1660008087600019166000191681526020019081526020016000206006018281548110151561190b57fe5b9060005260206000200160009054906101000a900473ffffffffffffffffffffffffffffffffffffffff1673ffffffffffffffffffffffffffffffffffffffff16141561195b5781806001019250505b80806001019150506118c0565b819250505092915050565b60011515600080836000191660001916815260200190815260200160002060000160009054906101000a900460ff161515141515611a19576040517f08c379a00000000000000000000000000000000000000000000000000000000081526004018080602001828103825260148152602001807f47616d6520646f6573206e6f742065786973742e00000000000000000000000081525060200191505060405180910390fd5b600080600083600019166000191681526020019081526020016000206001016001815481101515611a4657fe5b9060005260206000200160009054906101000a900473ffffffffffffffffffffffffffffffffffffffff1673ffffffffffffffffffffffffffffffffffffffff16141515611afc576040517f08c379a00000000000000000000000000000000000000000000000000000000081526004018080602001828103825260128152602001807f47616d6520616c72656164792066756c6c2e000000000000000000000000000081525060200191505060405180910390fd5b6000806000836000191660001916815260200190815260200160002060050154141515611b91576040517f08c379a00000000000000000000000000000000000000000000000000000000081526004018080602001828103825260158152602001807f47616d6520616c726561647920737461727465642e000000000000000000000081525060200191505060405180910390fd5b336000808360001916600019168152602001908152602001600020600101611c596000808560001916600019168152602001908152602001600020600101805480602002602001604051908101604052809291908181526020018280548015611c4f57602002820191906000526020600020905b8160009054906101000a900473ffffffffffffffffffffffffffffffffffffffff1673ffffffffffffffffffffffffffffffffffffffff1681526020019060010190808311611c05575b5050505050611de6565b815481101515611c6557fe5b9060005260206000200160006101000a81548173ffffffffffffffffffffffffffffffffffffffff021916908373ffffffffffffffffffffffffffffffffffffffff16021790555050565b600080600090505b825181141515611d23578373ffffffffffffffffffffffffffffffffffffffff168382815181101515611ce757fe5b9060200190602002015173ffffffffffffffffffffffffffffffffffffffff161415611d165760019150611d28565b8080600101915050611cb8565b600091505b5092915050565b600080600090505b825181141515611db9578373ffffffffffffffffffffffffffffffffffffffff168382815181101515611d6657fe5b9060200190602002015173ffffffffffffffffffffffffffffffffffffffff16141515611dac578281815181101515611d9b57fe5b906020019060200201519150611dbe565b8080600101915050611d37565b600091505b5092915050565b6000808284019050838110151515611ddc57600080fd5b8091505092915050565b600080600090505b825181141515611e435760008382815181101515611e0857fe5b9060200190602002015173ffffffffffffffffffffffffffffffffffffffff161415611e3657809150611e48565b8080600101915050611dee565b600080fd5b50919050565b60e06040519081016040528060001515815260200160608152602001600080191681526020016000151581526020016000815260200160008152602001606081525090565b828054828255906000526020600020908101928215611f0c579160200282015b82811115611f0b5782518260006101000a81548173ffffffffffffffffffffffffffffffffffffffff021916908373ffffffffffffffffffffffffffffffffffffffff16021790555091602001919060010190611eb3565b5b509050611f199190611f1d565b5090565b611f5d91905b80821115611f5957600081816101000a81549073ffffffffffffffffffffffffffffffffffffffff021916905550600101611f23565b5090565b905600a165627a7a723058205141630e571b9dd166363b30e892605e0ce985838e9a23c4eada087d06308e680029",
  "source": "pragma solidity ^0.4.24; // Specify compiler version\r\n\r\nimport \"./SafeMath.sol\";\r\n\r\ncontract RockPaperScissors {\r\n    using SafeMath for uint256;\r\n\r\n    struct Game {\r\n        bool Initialized; // Game initialized\r\n        address[] Players; // Players in game\r\n        bytes32 InviteCode; // Game invitecode\r\n        bool GameFinished; // Game finished\r\n        uint Block; // Origin block\r\n        uint RoundsPlayed; // Rounds played\r\n        address[] RoundWinners; // Winner of each round\r\n        mapping(address => uint) Bets; // Bets\r\n        mapping(address => uint[]) Moves; // Moves\r\n        mapping(uint => address) PlayerByMove; // Find player by move\r\n    }\r\n\r\n    event NewGame (\r\n        address FirstPlayer, // Player initializing game\r\n        bytes32 InviteCode, // Game invite code\r\n        uint Block // Origin block\r\n    );\r\n\r\n    mapping(bytes32 => Game) Games;\r\n\r\n    function newGame() public returns (bytes32 _inviteCode) {\r\n        address[] memory players = new address[](2); // Initialize array\r\n        address[] memory roundWinners = new address[](3); // Initialize array\r\n\r\n        players[0] = msg.sender; // Append sender to players\r\n\r\n        Game memory game = Game(true, players, keccak256(abi.encodePacked(players, block.number)), false, block.number, 0, roundWinners); // Initialize game\r\n\r\n        Games[game.InviteCode] = game; // Append game to games list\r\n\r\n        emit NewGame(msg.sender, game.InviteCode, block.number); // Emit initialized game\r\n\r\n        return game.InviteCode; // Return invite code\r\n    }\r\n\r\n    function joinGame(bytes32 _inviteCode) public {\r\n        require(Games[_inviteCode].Initialized == true, \"Game does not exist.\"); // Check game exists\r\n        require(Games[_inviteCode].Players[1] == 0, \"Game already full.\"); // Check game isn't full\r\n        require(Games[_inviteCode].RoundsPlayed == 0, \"Game already started.\"); // Check game hasn't already started\r\n\r\n        Games[_inviteCode].Players[emptyIndex(Games[_inviteCode].Players)] = msg.sender; // Set player\r\n    }\r\n\r\n    function move(bytes32 _inviteCode, uint _move) public payable {\r\n        require(Games[_inviteCode].Initialized == true, \"Game does not exist.\"); // Check game exists\r\n        require(Games[_inviteCode].RoundsPlayed != 2, \"Game already finished.\"); // Check game hasn't already ended\r\n        require(isIn(msg.sender, Games[_inviteCode].Players), \"Player not in game.\"); // Check player is in game\r\n        require(Games[_inviteCode].Players[0] != 0, \"Not enough players.\"); // Check enough players\r\n\r\n        Games[_inviteCode].Moves[msg.sender].push(_move); // Append move\r\n        Games[_inviteCode].PlayerByMove[Games[_inviteCode].RoundsPlayed.add(_move)]; // Set player by move\r\n\r\n        if (Games[_inviteCode].Moves[msg.sender].length == Games[_inviteCode].Moves[msg.sender].length) {\r\n            uint PlayerOneMove = Games[_inviteCode].Moves[msg.sender][Games[_inviteCode].RoundsPlayed]; // Fetch sender move\r\n            uint OtherPlayerMove = Games[_inviteCode].Moves[otherPlayer(msg.sender, Games[_inviteCode].Players)][Games[_inviteCode].RoundsPlayed]; // Fetch other player move\r\n\r\n            if (PlayerOneMove != OtherPlayerMove) { // Check didn't make same move\r\n                if (PlayerOneMove == 1 || OtherPlayerMove == 1) { // Check for rock\r\n                    Games[_inviteCode].RoundWinners[Games[_inviteCode].RoundsPlayed] = Games[_inviteCode].PlayerByMove[Games[_inviteCode].RoundsPlayed.add(1)]; // Add score\r\n                } else if (PlayerOneMove == 2 || OtherPlayerMove == 2) { // Check for paper\r\n                    Games[_inviteCode].RoundWinners[Games[_inviteCode].RoundsPlayed] = Games[_inviteCode].PlayerByMove[Games[_inviteCode].RoundsPlayed.add(2)]; // Add score\r\n                } else if (PlayerOneMove == 3 || OtherPlayerMove == 3) { // Check for scissors\r\n                    Games[_inviteCode].RoundWinners[Games[_inviteCode].RoundsPlayed] = Games[_inviteCode].PlayerByMove[Games[_inviteCode].RoundsPlayed.add(3)]; // Add score\r\n                }\r\n\r\n                Games[_inviteCode].RoundsPlayed++; // Increment rounds played\r\n            }\r\n        }\r\n    }\r\n\r\n    function bet(bytes32 _inviteCode) public payable {\r\n        require(Games[_inviteCode].Initialized == true, \"Game does not exist.\"); // Check game exists\r\n        require(Games[_inviteCode].RoundsPlayed == 0, \"Game already started.\"); // Check game hasn't already started\r\n        require(isIn(msg.sender, Games[_inviteCode].Players), \"Player not in game.\"); // Check player is in game\r\n\r\n        Games[_inviteCode].Bets[msg.sender] += msg.value; // Add bet\r\n    }\r\n\r\n    function claimBet(bytes32 _inviteCode) public {\r\n        require(Games[_inviteCode].Initialized == true, \"Game does not exist.\"); // Check game exists\r\n        require(Games[_inviteCode].RoundsPlayed == 3, \"Game hasn't finished.\"); // Check game hasn't already started\r\n        require(isIn(msg.sender, Games[_inviteCode].Players), \"Player not in game.\"); // Check player is in game\r\n        require((winCount(_inviteCode, msg.sender) - winCount(_inviteCode, otherPlayer(msg.sender, Games[_inviteCode].Players))) >= 2, \"Player didn't win game.\"); // Check won game\r\n\r\n        Games[_inviteCode].Bets[otherPlayer(msg.sender, Games[_inviteCode].Players)] = 0; // Reset bet balance\r\n        Games[_inviteCode].Bets[msg.sender] = 0; // Reset bet balance\r\n\r\n        msg.sender.transfer(Games[_inviteCode].Bets[msg.sender].add(Games[_inviteCode].Bets[otherPlayer(msg.sender, Games[_inviteCode].Players)])); // Send wager\r\n    }\r\n\r\n    function winCount(bytes32 _inviteCode, address _address) view public returns (uint _winCount) {\r\n        uint z = 0; // Set wins iterator\r\n        \r\n        for (uint x = 0; x != 3; x++) { // Iterate through wins\r\n            if (Games[_inviteCode].RoundWinners[x] == _address) { // Check won round\r\n                z++; // Increment win count\r\n            }\r\n        }\r\n\r\n        return z; // Return win count\r\n    }\r\n\r\n    function otherPlayer(address _value, address[] _array) pure internal returns (address _address) {\r\n        for (uint x = 0; x != _array.length; x++) {\r\n            if (_array[x] != _value) {\r\n                return _array[x]; // Found value\r\n            }\r\n        }\r\n\r\n        return 0; // Reached end of array\r\n    }\r\n\r\n    function isIn(address _value, address[] _array) pure internal returns (bool _isIn) {\r\n        for (uint x = 0; x != _array.length; x++) {\r\n            if (_array[x] == _value) {\r\n                return true; // Found value\r\n            }\r\n        }\r\n\r\n        return false; // Reached end of array\r\n    }\r\n\r\n    function emptyIndex(address[] _array) pure internal returns (uint _emptyIndex) {\r\n        for (uint x = 0; x != _array.length; x++) {\r\n            if (_array[x] == 0) {\r\n                return x; // Found index\r\n            }\r\n        }\r\n\r\n        revert(); // Reached end of array\r\n    }\r\n}\r\n\r\n// TODO: bet claim at end of game",
  "sourcePath": "R:\\B9Lab-Assignments\\RockPaperScissors\\contracts\\RockPaperScissors.sol",
  "compiler": {
    "name": "solc",
    "version": "0.4.24+commit.e67f0147.Emscripten.clang"
  },
  "schemaVersion": "2.0.1",
  "updatedAt": "2018-10-06T02:31:54.939Z"
}