{
  "contractName": "RockPaperScissors",
  "abi": [
    {
      "anonymous": false,
      "inputs": [
        {
          "indexed": false,
          "name": "FirstPlayer",
          "type": "address"
        },
        {
          "indexed": false,
          "name": "InviteCode",
          "type": "bytes32"
        },
        {
          "indexed": false,
          "name": "Block",
          "type": "uint256"
        }
      ],
      "name": "NewGame",
      "type": "event"
    },
    {
      "anonymous": false,
      "inputs": [
        {
          "indexed": false,
          "name": "Player",
          "type": "address"
        },
        {
          "indexed": false,
          "name": "InviteCode",
          "type": "bytes32"
        },
        {
          "indexed": false,
          "name": "Block",
          "type": "uint256"
        }
      ],
      "name": "PlayerJoinedGame",
      "type": "event"
    },
    {
      "anonymous": false,
      "inputs": [
        {
          "indexed": false,
          "name": "Player",
          "type": "address"
        },
        {
          "indexed": false,
          "name": "Move",
          "type": "uint256"
        },
        {
          "indexed": false,
          "name": "InviteCode",
          "type": "bytes32"
        },
        {
          "indexed": false,
          "name": "Block",
          "type": "uint256"
        }
      ],
      "name": "PlayerMadeMove",
      "type": "event"
    },
    {
      "anonymous": false,
      "inputs": [
        {
          "indexed": false,
          "name": "Player",
          "type": "address"
        },
        {
          "indexed": false,
          "name": "Value",
          "type": "uint256"
        },
        {
          "indexed": false,
          "name": "InviteCode",
          "type": "bytes32"
        },
        {
          "indexed": false,
          "name": "Block",
          "type": "uint256"
        }
      ],
      "name": "PlayerMadeBet",
      "type": "event"
    },
    {
      "anonymous": false,
      "inputs": [
        {
          "indexed": false,
          "name": "Player",
          "type": "address"
        },
        {
          "indexed": false,
          "name": "Value",
          "type": "uint256"
        },
        {
          "indexed": false,
          "name": "InviteCode",
          "type": "bytes32"
        },
        {
          "indexed": false,
          "name": "Block",
          "type": "uint256"
        }
      ],
      "name": "PlayerClaimedBet",
      "type": "event"
    },
    {
      "anonymous": false,
      "inputs": [
        {
          "indexed": false,
          "name": "WinningPlayer",
          "type": "address"
        },
        {
          "indexed": false,
          "name": "LosingPlayer",
          "type": "address"
        },
        {
          "indexed": false,
          "name": "InviteCode",
          "type": "bytes32"
        },
        {
          "indexed": false,
          "name": "Block",
          "type": "uint256"
        }
      ],
      "name": "PlayerWon",
      "type": "event"
    },
    {
      "constant": false,
      "inputs": [],
      "name": "newGame",
      "outputs": [
        {
          "name": "_inviteCode",
          "type": "bytes32"
        }
      ],
      "payable": false,
      "stateMutability": "nonpayable",
      "type": "function"
    },
    {
      "constant": false,
      "inputs": [
        {
          "name": "_inviteCode",
          "type": "bytes32"
        }
      ],
      "name": "joinGame",
      "outputs": [],
      "payable": false,
      "stateMutability": "nonpayable",
      "type": "function"
    },
    {
      "constant": false,
      "inputs": [
        {
          "name": "_inviteCode",
          "type": "bytes32"
        },
        {
          "name": "_move",
          "type": "uint256"
        }
      ],
      "name": "move",
      "outputs": [],
      "payable": true,
      "stateMutability": "payable",
      "type": "function"
    },
    {
      "constant": false,
      "inputs": [
        {
          "name": "_inviteCode",
          "type": "bytes32"
        }
      ],
      "name": "bet",
      "outputs": [],
      "payable": true,
      "stateMutability": "payable",
      "type": "function"
    },
    {
      "constant": false,
      "inputs": [
        {
          "name": "_inviteCode",
          "type": "bytes32"
        }
      ],
      "name": "claimBet",
      "outputs": [],
      "payable": false,
      "stateMutability": "nonpayable",
      "type": "function"
    },
    {
      "constant": true,
      "inputs": [
        {
          "name": "_inviteCode",
          "type": "bytes32"
        },
        {
          "name": "_address",
          "type": "address"
        }
      ],
      "name": "winCount",
      "outputs": [
        {
          "name": "_winCount",
          "type": "uint256"
        }
      ],
      "payable": false,
      "stateMutability": "view",
      "type": "function"
    }
  ],
  "bytecode": "0x608060405234801561001057600080fd5b50612604806100206000396000f300608060405260043610610078576000357c0100000000000000000000000000000000000000000000000000000000900463ffffffff168063177413da1461007d57806322cd5ea8146100a1578063327942a2146100d25780637d03f5f314610100578063a72408d214610133578063bf47476614610198575b600080fd5b61009f60048036038101908080356000191690602001909291905050506101c9565b005b3480156100ad57600080fd5b506100d06004803603810190808035600019169060200190929190505050610511565b005b6100fe600480360381019080803560001916906020019092919080359060200190929190505050610db9565b005b34801561010c57600080fd5b50610115611bae565b60405180826000191660001916815260200191505060405180910390f35b34801561013f57600080fd5b506101826004803603810190808035600019169060200190929190803573ffffffffffffffffffffffffffffffffffffffff169060200190929190505050611eb0565b6040518082815260200191505060405180910390f35b3480156101a457600080fd5b506101c76004803603810190808035600019169060200190929190505050611f70565b005b60011515600080836000191660001916815260200190815260200160002060000160009054906101000a900460ff16151514151561026f576040517f08c379a00000000000000000000000000000000000000000000000000000000081526004018080602001828103825260148152602001807f47616d6520646f6573206e6f742065786973742e00000000000000000000000081525060200191505060405180910390fd5b6000806000836000191660001916815260200190815260200160002060050154141515610304576040517f08c379a00000000000000000000000000000000000000000000000000000000081526004018080602001828103825260158152602001807f47616d6520616c726561647920737461727465642e000000000000000000000081525060200191505060405180910390fd5b6103af3360008084600019166000191681526020019081526020016000206001018054806020026020016040519081016040528092919081815260200182805480156103a557602002820191906000526020600020905b8160009054906101000a900473ffffffffffffffffffffffffffffffffffffffff1673ffffffffffffffffffffffffffffffffffffffff168152602001906001019080831161035b575b5050505050612328565b1515610423576040517f08c379a00000000000000000000000000000000000000000000000000000000081526004018080602001828103825260138152602001807f506c61796572206e6f7420696e2067616d652e0000000000000000000000000081525060200191505060405180910390fd5b34600080836000191660001916815260200190815260200160002060070160003373ffffffffffffffffffffffffffffffffffffffff1673ffffffffffffffffffffffffffffffffffffffff168152602001908152602001600020600082825401925050819055507fb261f7e3c46b898f28fa63832cfac6b7aa325d9327d1d9ef2769da3f642b377433348343604051808573ffffffffffffffffffffffffffffffffffffffff1673ffffffffffffffffffffffffffffffffffffffff168152602001848152602001836000191660001916815260200182815260200194505050505060405180910390a150565b60011515600080836000191660001916815260200190815260200160002060000160009054906101000a900460ff1615151415156105b7576040517f08c379a00000000000000000000000000000000000000000000000000000000081526004018080602001828103825260148152602001807f47616d6520646f6573206e6f742065786973742e00000000000000000000000081525060200191505060405180910390fd5b600360008083600019166000191681526020019081526020016000206005015414151561064c576040517f08c379a00000000000000000000000000000000000000000000000000000000081526004018080602001828103825260158152602001807f47616d65206861736e27742066696e69736865642e000000000000000000000081525060200191505060405180910390fd5b6106f73360008084600019166000191681526020019081526020016000206001018054806020026020016040519081016040528092919081815260200182805480156106ed57602002820191906000526020600020905b8160009054906101000a900473ffffffffffffffffffffffffffffffffffffffff1673ffffffffffffffffffffffffffffffffffffffff16815260200190600101908083116106a3575b5050505050612328565b151561076b576040517f08c379a00000000000000000000000000000000000000000000000000000000081526004018080602001828103825260138152602001807f506c61796572206e6f7420696e2067616d652e0000000000000000000000000081525060200191505060405180910390fd5b60026108218261081c33600080876000191660001916815260200190815260200160002060010180548060200260200160405190810160405280929190818152602001828054801561081257602002820191906000526020600020905b8160009054906101000a900473ffffffffffffffffffffffffffffffffffffffff1673ffffffffffffffffffffffffffffffffffffffff16815260200190600101908083116107c8575b50505050506123a7565b611eb0565b61082b8333611eb0565b03101515156108a2576040517f08c379a00000000000000000000000000000000000000000000000000000000081526004018080602001828103825260178152602001807f506c61796572206469646e27742077696e2067616d652e00000000000000000081525060200191505060405180910390fd5b60008060008360001916600019168152602001908152602001600020600701600061096e33600080876000191660001916815260200190815260200160002060010180548060200260200160405190810160405280929190818152602001828054801561096457602002820191906000526020600020905b8160009054906101000a900473ffffffffffffffffffffffffffffffffffffffff1673ffffffffffffffffffffffffffffffffffffffff168152602001906001019080831161091a575b50505050506123a7565b73ffffffffffffffffffffffffffffffffffffffff1673ffffffffffffffffffffffffffffffffffffffff168152602001908152602001600020819055506000806000836000191660001916815260200190815260200160002060070160003373ffffffffffffffffffffffffffffffffffffffff1673ffffffffffffffffffffffffffffffffffffffff168152602001908152602001600020819055503373ffffffffffffffffffffffffffffffffffffffff166108fc610b9760008085600019166000191681526020019081526020016000206007016000610af3336000808960001916600019168152602001908152602001600020600101805480602002602001604051908101604052809291908181526020018280548015610ae957602002820191906000526020600020905b8160009054906101000a900473ffffffffffffffffffffffffffffffffffffffff1673ffffffffffffffffffffffffffffffffffffffff1681526020019060010190808311610a9f575b50505050506123a7565b73ffffffffffffffffffffffffffffffffffffffff1673ffffffffffffffffffffffffffffffffffffffff16815260200190815260200160002054600080866000191660001916815260200190815260200160002060070160003373ffffffffffffffffffffffffffffffffffffffff1673ffffffffffffffffffffffffffffffffffffffff1681526020019081526020016000205461243d90919063ffffffff16565b9081150290604051600060405180830381858888f19350505050158015610bc2573d6000803e3d6000fd5b507f49b9eccd8c556ec199a811793a0c33d24bc8f1aba9fc577b7d2fcde053801dea33610d5660008085600019166000191681526020019081526020016000206007016000610cb2336000808960001916600019168152602001908152602001600020600101805480602002602001604051908101604052809291908181526020018280548015610ca857602002820191906000526020600020905b8160009054906101000a900473ffffffffffffffffffffffffffffffffffffffff1673ffffffffffffffffffffffffffffffffffffffff1681526020019060010190808311610c5e575b50505050506123a7565b73ffffffffffffffffffffffffffffffffffffffff1673ffffffffffffffffffffffffffffffffffffffff16815260200190815260200160002054600080866000191660001916815260200190815260200160002060070160003373ffffffffffffffffffffffffffffffffffffffff1673ffffffffffffffffffffffffffffffffffffffff1681526020019081526020016000205461243d90919063ffffffff16565b8343604051808573ffffffffffffffffffffffffffffffffffffffff1673ffffffffffffffffffffffffffffffffffffffff168152602001848152602001836000191660001916815260200182815260200194505050505060405180910390a150565b60008060008060011515600080886000191660001916815260200190815260200160002060000160009054906101000a900460ff161515141515610e65576040517f08c379a00000000000000000000000000000000000000000000000000000000081526004018080602001828103825260148152602001807f47616d6520646f6573206e6f742065786973742e00000000000000000000000081525060200191505060405180910390fd5b600260008088600019166000191681526020019081526020016000206005015414151515610efb576040517f08c379a00000000000000000000000000000000000000000000000000000000081526004018080602001828103825260168152602001807f47616d6520616c72656164792066696e69736865642e0000000000000000000081525060200191505060405180910390fd5b610fa6336000808960001916600019168152602001908152602001600020600101805480602002602001604051908101604052809291908181526020018280548015610f9c57602002820191906000526020600020905b8160009054906101000a900473ffffffffffffffffffffffffffffffffffffffff1673ffffffffffffffffffffffffffffffffffffffff1681526020019060010190808311610f52575b5050505050612328565b151561101a576040517f08c379a00000000000000000000000000000000000000000000000000000000081526004018080602001828103825260138152602001807f506c61796572206e6f7420696e2067616d652e0000000000000000000000000081525060200191505060405180910390fd5b60008060008860001916600019168152602001908152602001600020600101600081548110151561104757fe5b9060005260206000200160009054906101000a900473ffffffffffffffffffffffffffffffffffffffff1673ffffffffffffffffffffffffffffffffffffffff16141515156110fe576040517f08c379a00000000000000000000000000000000000000000000000000000000081526004018080602001828103825260138152602001807f4e6f7420656e6f75676820706c61796572732e0000000000000000000000000081525060200191505060405180910390fd5b600080876000191660001916815260200190815260200160002060080160003373ffffffffffffffffffffffffffffffffffffffff1673ffffffffffffffffffffffffffffffffffffffff168152602001908152602001600020859080600181540180825580915050906001820390600052602060002001600090919290919091505550600080876000191660001916815260200190815260200160002060090160006111d1876000808b600019166000191681526020019081526020016000206005015461243d90919063ffffffff16565b815260200190815260200160002060009054906101000a9050507f1d5ad503e2037ec9786501836c2879ce894cbccab52fb32b62235f0ed6ccf49933868843604051808573ffffffffffffffffffffffffffffffffffffffff1673ffffffffffffffffffffffffffffffffffffffff168152602001848152602001836000191660001916815260200182815260200194505050505060405180910390a1600080876000191660001916815260200190815260200160002060080160003373ffffffffffffffffffffffffffffffffffffffff1673ffffffffffffffffffffffffffffffffffffffff16815260200190815260200160002080549050600080886000191660001916815260200190815260200160002060080160003373ffffffffffffffffffffffffffffffffffffffff1673ffffffffffffffffffffffffffffffffffffffff168152602001908152602001600020805490501415611ba657600080876000191660001916815260200190815260200160002060080160003373ffffffffffffffffffffffffffffffffffffffff1673ffffffffffffffffffffffffffffffffffffffff1681526020019081526020016000206000808860001916600019168152602001908152602001600020600501548154811015156113b457fe5b906000526020600020015493506000808760001916600019168152602001908152602001600020600801600061148b336000808b6000191660001916815260200190815260200160002060010180548060200260200160405190810160405280929190818152602001828054801561148157602002820191906000526020600020905b8160009054906101000a900473ffffffffffffffffffffffffffffffffffffffff1673ffffffffffffffffffffffffffffffffffffffff1681526020019060010190808311611437575b50505050506123a7565b73ffffffffffffffffffffffffffffffffffffffff1673ffffffffffffffffffffffffffffffffffffffff1681526020019081526020016000206000808860001916600019168152602001908152602001600020600501548154811015156114ef57fe5b906000526020600020015492508284141515611ba55760018414806115145750600183145b1561162c576000808760001916600019168152602001908152602001600020600901600061156960016000808b600019166000191681526020019081526020016000206005015461243d90919063ffffffff16565b815260200190815260200160002060009054906101000a900473ffffffffffffffffffffffffffffffffffffffff1660008088600019166000191681526020019081526020016000206006016000808960001916600019168152602001908152602001600020600501548154811015156115df57fe5b9060005260206000200160006101000a81548173ffffffffffffffffffffffffffffffffffffffff021916908373ffffffffffffffffffffffffffffffffffffffff160217905550611878565b600284148061163b5750600283145b15611753576000808760001916600019168152602001908152602001600020600901600061169060026000808b600019166000191681526020019081526020016000206005015461243d90919063ffffffff16565b815260200190815260200160002060009054906101000a900473ffffffffffffffffffffffffffffffffffffffff16600080886000191660001916815260200190815260200160002060060160008089600019166000191681526020019081526020016000206005015481548110151561170657fe5b9060005260206000200160006101000a81548173ffffffffffffffffffffffffffffffffffffffff021916908373ffffffffffffffffffffffffffffffffffffffff160217905550611877565b60038414806117625750600383145b1561187657600080876000191660001916815260200190815260200160002060090160006117b760036000808b600019166000191681526020019081526020016000206005015461243d90919063ffffffff16565b815260200190815260200160002060009054906101000a900473ffffffffffffffffffffffffffffffffffffffff16600080886000191660001916815260200190815260200160002060060160008089600019166000191681526020019081526020016000206005015481548110151561182d57fe5b9060005260206000200160006101000a81548173ffffffffffffffffffffffffffffffffffffffff021916908373ffffffffffffffffffffffffffffffffffffffff1602179055505b5b5b60008087600019166000191681526020019081526020016000206005016000815480929190600101919050555060026000808860001916600019168152602001908152602001600020600501541415611ba45733915061197933600080896000191660001916815260200190815260200160002060010180548060200260200160405190810160405280929190818152602001828054801561196f57602002820191906000526020600020905b8160009054906101000a900473ffffffffffffffffffffffffffffffffffffffff1673ffffffffffffffffffffffffffffffffffffffff1681526020019060010190808311611925575b50505050506123a7565b905060026119878733611eb0565b611a3b88611a36336000808d60001916600019168152602001908152602001600020600101805480602002602001604051908101604052809291908181526020018280548015611a2c57602002820191906000526020600020905b8160009054906101000a900473ffffffffffffffffffffffffffffffffffffffff1673ffffffffffffffffffffffffffffffffffffffff16815260200190600101908083116119e2575b50505050506123a7565b611eb0565b03101515611af457611aee336000808960001916600019168152602001908152602001600020600101805480602002602001604051908101604052809291908181526020018280548015611ae457602002820191906000526020600020905b8160009054906101000a900473ffffffffffffffffffffffffffffffffffffffff1673ffffffffffffffffffffffffffffffffffffffff1681526020019060010190808311611a9a575b50505050506123a7565b91503390505b7fb20fdc17b0d97be5f2217745aeb7a58d60749f40112a08bb9bb43a404f89aa7482828843604051808573ffffffffffffffffffffffffffffffffffffffff1673ffffffffffffffffffffffffffffffffffffffff1681526020018473ffffffffffffffffffffffffffffffffffffffff1673ffffffffffffffffffffffffffffffffffffffff168152602001836000191660001916815260200182815260200194505050505060405180910390a15b5b5b505050505050565b6000606080611bbb6124c6565b6002604051908082528060200260200182016040528015611beb5781602001602082028038833980820191505090505b5092506003604051908082528060200260200182016040528015611c1e5781602001602082028038833980820191505090505b50915033836000815181101515611c3157fe5b9060200190602002019073ffffffffffffffffffffffffffffffffffffffff16908173ffffffffffffffffffffffffffffffffffffffff168152505060e060405190810160405280600115158152602001848152602001844360405160200180838051906020019060200280838360005b83811015611cbd578082015181840152602081019050611ca2565b50505050905001828152602001925050506040516020818303038152906040526040518082805190602001908083835b602083101515611d125780518252602082019150602081019050602083039250611ced565b6001836020036101000a0380198251168184511680821785525050505050509050019150506040518091039020600019168152602001600015158152602001438152602001600081526020018381525090508060008083604001516000191660001916815260200190815260200160002060008201518160000160006101000a81548160ff0219169083151502179055506020820151816001019080519060200190611dbf92919061250b565b506040820151816002019060001916905560608201518160030160006101000a81548160ff0219169083151502179055506080820151816004015560a0820151816005015560c0820151816006019080519060200190611e2092919061250b565b509050507f3d6c02e74ba05913874ba8d477497510df840bf93bfa5a2a8d8943766678a0e333826040015143604051808473ffffffffffffffffffffffffffffffffffffffff1673ffffffffffffffffffffffffffffffffffffffff1681526020018360001916600019168152602001828152602001935050505060405180910390a18060400151935050505090565b6000806000809150600090505b600381141515611f65578373ffffffffffffffffffffffffffffffffffffffff16600080876000191660001916815260200190815260200160002060060182815481101515611f0857fe5b9060005260206000200160009054906101000a900473ffffffffffffffffffffffffffffffffffffffff1673ffffffffffffffffffffffffffffffffffffffff161415611f585781806001019250505b8080600101915050611ebd565b819250505092915050565b60011515600080836000191660001916815260200190815260200160002060000160009054906101000a900460ff161515141515612016576040517f08c379a00000000000000000000000000000000000000000000000000000000081526004018080602001828103825260148152602001807f47616d6520646f6573206e6f742065786973742e00000000000000000000000081525060200191505060405180910390fd5b60008060008360001916600019168152602001908152602001600020600101600181548110151561204357fe5b9060005260206000200160009054906101000a900473ffffffffffffffffffffffffffffffffffffffff1673ffffffffffffffffffffffffffffffffffffffff161415156120f9576040517f08c379a00000000000000000000000000000000000000000000000000000000081526004018080602001828103825260128152602001807f47616d6520616c72656164792066756c6c2e000000000000000000000000000081525060200191505060405180910390fd5b600080600083600019166000191681526020019081526020016000206005015414151561218e576040517f08c379a00000000000000000000000000000000000000000000000000000000081526004018080602001828103825260158152602001807f47616d6520616c726561647920737461727465642e000000000000000000000081525060200191505060405180910390fd5b336000808360001916600019168152602001908152602001600020600101612256600080856000191660001916815260200190815260200160002060010180548060200260200160405190810160405280929190818152602001828054801561224c57602002820191906000526020600020905b8160009054906101000a900473ffffffffffffffffffffffffffffffffffffffff1673ffffffffffffffffffffffffffffffffffffffff1681526020019060010190808311612202575b505050505061245e565b81548110151561226257fe5b9060005260206000200160006101000a81548173ffffffffffffffffffffffffffffffffffffffff021916908373ffffffffffffffffffffffffffffffffffffffff1602179055507feb9863b2d0818b8590f0108ccbd30a1b74b21f32ba6533329df1aeb0d52ee775338243604051808473ffffffffffffffffffffffffffffffffffffffff1673ffffffffffffffffffffffffffffffffffffffff1681526020018360001916600019168152602001828152602001935050505060405180910390a150565b600080600090505b82518114151561239b578373ffffffffffffffffffffffffffffffffffffffff16838281518110151561235f57fe5b9060200190602002015173ffffffffffffffffffffffffffffffffffffffff16141561238e57600191506123a0565b8080600101915050612330565b600091505b5092915050565b600080600090505b825181141515612431578373ffffffffffffffffffffffffffffffffffffffff1683828151811015156123de57fe5b9060200190602002015173ffffffffffffffffffffffffffffffffffffffff1614151561242457828181518110151561241357fe5b906020019060200201519150612436565b80806001019150506123af565b600091505b5092915050565b600080828401905083811015151561245457600080fd5b8091505092915050565b600080600090505b8251811415156124bb576000838281518110151561248057fe5b9060200190602002015173ffffffffffffffffffffffffffffffffffffffff1614156124ae578091506124c0565b8080600101915050612466565b600080fd5b50919050565b60e06040519081016040528060001515815260200160608152602001600080191681526020016000151581526020016000815260200160008152602001606081525090565b828054828255906000526020600020908101928215612584579160200282015b828111156125835782518260006101000a81548173ffffffffffffffffffffffffffffffffffffffff021916908373ffffffffffffffffffffffffffffffffffffffff1602179055509160200191906001019061252b565b5b5090506125919190612595565b5090565b6125d591905b808211156125d157600081816101000a81549073ffffffffffffffffffffffffffffffffffffffff02191690555060010161259b565b5090565b905600a165627a7a72305820767b48e32b0d1ba6b948a512ad5f64573c2b3e6f4d73f9a3dc3d6c45d65d72850029",
  "source": "pragma solidity ^0.4.24; // Specify compiler version\r\n\r\ncontract RockPaperScissors {\r\n    using SafeMath for uint256;\r\n\r\n    struct Game {\r\n        bool Initialized; // Game initialized\r\n        address[] Players; // Players in game\r\n        bytes32 InviteCode; // Game invitecode\r\n        bool GameFinished; // Game finished\r\n        uint Block; // Origin block\r\n        uint RoundsPlayed; // Rounds played\r\n        address[] RoundWinners; // Winner of each round\r\n        mapping(address => uint) Bets; // Bets\r\n        mapping(address => uint[]) Moves; // Moves\r\n        mapping(uint => address) PlayerByMove; // Find player by move\r\n    }\r\n\r\n    event NewGame (\r\n        address FirstPlayer, // Player initializing game\r\n        bytes32 InviteCode, // Game invite code\r\n        uint Block // Origin block\r\n    );\r\n\r\n    event PlayerJoinedGame (\r\n        address Player, // Player joining game\r\n        bytes32 InviteCode, // Game invite code\r\n        uint Block // Origin block\r\n    );\r\n\r\n    event PlayerMadeMove (\r\n        address Player, // Player making move\r\n        uint Move, // Move value\r\n        bytes32 InviteCode, // Game invite code\r\n        uint Block // Origin block\r\n    );\r\n\r\n    event PlayerMadeBet (\r\n        address Player, // Player making bet\r\n        uint256 Value, // Value of bet\r\n        bytes32 InviteCode, // Game invite code\r\n        uint Block // Origin block\r\n    );\r\n\r\n    event PlayerClaimedBet (\r\n        address Player, // Player claiming bet\r\n        uint256 Value, // Value of bet\r\n        bytes32 InviteCode, // Game invite code\r\n        uint Block // Origin block\r\n    );\r\n\r\n    event PlayerWon (\r\n        address WinningPlayer, // Winning player\r\n        address LosingPlayer, // Losing player\r\n        bytes32 InviteCode, // Game invite code\r\n        uint Block // Win block\r\n    );\r\n\r\n    mapping(bytes32 => Game) Games;\r\n\r\n    function newGame() public returns (bytes32 _inviteCode) {\r\n        address[] memory players = new address[](2); // Initialize array\r\n        address[] memory roundWinners = new address[](3); // Initialize array\r\n\r\n        players[0] = msg.sender; // Append sender to players\r\n\r\n        Game memory game = Game(true, players, keccak256(abi.encodePacked(players, block.number)), false, block.number, 0, roundWinners); // Initialize game\r\n\r\n        Games[game.InviteCode] = game; // Append game to games list\r\n\r\n        emit NewGame(msg.sender, game.InviteCode, block.number); // Emit initialized game\r\n\r\n        return game.InviteCode; // Return invite code\r\n    }\r\n\r\n    function joinGame(bytes32 _inviteCode) public {\r\n        require(Games[_inviteCode].Initialized == true, \"Game does not exist.\"); // Check game exists\r\n        require(Games[_inviteCode].Players[1] == 0, \"Game already full.\"); // Check game isn't full\r\n        require(Games[_inviteCode].RoundsPlayed == 0, \"Game already started.\"); // Check game hasn't already started\r\n\r\n        Games[_inviteCode].Players[emptyIndex(Games[_inviteCode].Players)] = msg.sender; // Set player\r\n\r\n        emit PlayerJoinedGame(msg.sender, _inviteCode, block.number); // Emit joined game\r\n    }\r\n\r\n    function move(bytes32 _inviteCode, uint _move) public payable {\r\n        require(Games[_inviteCode].Initialized == true, \"Game does not exist.\"); // Check game exists\r\n        require(Games[_inviteCode].RoundsPlayed != 2, \"Game already finished.\"); // Check game hasn't already ended\r\n        require(isIn(msg.sender, Games[_inviteCode].Players), \"Player not in game.\"); // Check player is in game\r\n        require(Games[_inviteCode].Players[0] != 0, \"Not enough players.\"); // Check enough players\r\n\r\n        Games[_inviteCode].Moves[msg.sender].push(_move); // Append move\r\n        Games[_inviteCode].PlayerByMove[Games[_inviteCode].RoundsPlayed.add(_move)]; // Set player by move\r\n\r\n        emit PlayerMadeMove(msg.sender, _move, _inviteCode, block.number); // Emit made move\r\n\r\n        if (Games[_inviteCode].Moves[msg.sender].length == Games[_inviteCode].Moves[msg.sender].length) {\r\n            uint PlayerOneMove = Games[_inviteCode].Moves[msg.sender][Games[_inviteCode].RoundsPlayed]; // Fetch sender move\r\n            uint OtherPlayerMove = Games[_inviteCode].Moves[otherPlayer(msg.sender, Games[_inviteCode].Players)][Games[_inviteCode].RoundsPlayed]; // Fetch other player move\r\n\r\n            if (PlayerOneMove != OtherPlayerMove) { // Check didn't make same move\r\n                if (PlayerOneMove == 1 || OtherPlayerMove == 1) { // Check for rock\r\n                    Games[_inviteCode].RoundWinners[Games[_inviteCode].RoundsPlayed] = Games[_inviteCode].PlayerByMove[Games[_inviteCode].RoundsPlayed.add(1)]; // Add score\r\n                } else if (PlayerOneMove == 2 || OtherPlayerMove == 2) { // Check for paper\r\n                    Games[_inviteCode].RoundWinners[Games[_inviteCode].RoundsPlayed] = Games[_inviteCode].PlayerByMove[Games[_inviteCode].RoundsPlayed.add(2)]; // Add score\r\n                } else if (PlayerOneMove == 3 || OtherPlayerMove == 3) { // Check for scissors\r\n                    Games[_inviteCode].RoundWinners[Games[_inviteCode].RoundsPlayed] = Games[_inviteCode].PlayerByMove[Games[_inviteCode].RoundsPlayed.add(3)]; // Add score\r\n                }\r\n\r\n                Games[_inviteCode].RoundsPlayed++; // Increment rounds played\r\n\r\n                if (Games[_inviteCode].RoundsPlayed == 2) { // Check if game finished\r\n                    address winner = msg.sender; // Default\r\n                    address loser = otherPlayer(msg.sender, Games[_inviteCode].Players);\r\n\r\n                    if ((winCount(_inviteCode, otherPlayer(msg.sender, Games[_inviteCode].Players)) - winCount(_inviteCode, msg.sender)) >= 2) { // Check who won\r\n                        winner = otherPlayer(msg.sender, Games[_inviteCode].Players); // Set winner address\r\n                        loser = msg.sender; // Set loser\r\n                    }\r\n\r\n                    emit PlayerWon(winner, loser, _inviteCode, block.number); // Emit player won\r\n                }\r\n            }\r\n        }\r\n    }\r\n\r\n    function bet(bytes32 _inviteCode) public payable {\r\n        require(Games[_inviteCode].Initialized == true, \"Game does not exist.\"); // Check game exists\r\n        require(Games[_inviteCode].RoundsPlayed == 0, \"Game already started.\"); // Check game hasn't already started\r\n        require(isIn(msg.sender, Games[_inviteCode].Players), \"Player not in game.\"); // Check player is in game\r\n\r\n        Games[_inviteCode].Bets[msg.sender] += msg.value; // Add bet\r\n\r\n        emit PlayerMadeBet(msg.sender, msg.value, _inviteCode, block.number); // Emit made bet\r\n    }\r\n\r\n    function claimBet(bytes32 _inviteCode) public {\r\n        require(Games[_inviteCode].Initialized == true, \"Game does not exist.\"); // Check game exists\r\n        require(Games[_inviteCode].RoundsPlayed == 3, \"Game hasn't finished.\"); // Check game hasn't already started\r\n        require(isIn(msg.sender, Games[_inviteCode].Players), \"Player not in game.\"); // Check player is in game\r\n        require((winCount(_inviteCode, msg.sender) - winCount(_inviteCode, otherPlayer(msg.sender, Games[_inviteCode].Players))) >= 2, \"Player didn't win game.\"); // Check won game\r\n\r\n        Games[_inviteCode].Bets[otherPlayer(msg.sender, Games[_inviteCode].Players)] = 0; // Reset bet balance\r\n        Games[_inviteCode].Bets[msg.sender] = 0; // Reset bet balance\r\n\r\n        msg.sender.transfer(Games[_inviteCode].Bets[msg.sender].add(Games[_inviteCode].Bets[otherPlayer(msg.sender, Games[_inviteCode].Players)])); // Send wager\r\n\r\n        emit PlayerClaimedBet(msg.sender, Games[_inviteCode].Bets[msg.sender].add(Games[_inviteCode].Bets[otherPlayer(msg.sender, Games[_inviteCode].Players)]), _inviteCode, block.number); // Emit claimed bet\r\n    }\r\n\r\n    function winCount(bytes32 _inviteCode, address _address) view public returns (uint _winCount) {\r\n        uint z = 0; // Set wins iterator\r\n        \r\n        for (uint x = 0; x != 3; x++) { // Iterate through wins\r\n            if (Games[_inviteCode].RoundWinners[x] == _address) { // Check won round\r\n                z++; // Increment win count\r\n            }\r\n        }\r\n\r\n        return z; // Return win count\r\n    }\r\n\r\n    function otherPlayer(address _value, address[] _array) pure internal returns (address _address) {\r\n        for (uint x = 0; x != _array.length; x++) {\r\n            if (_array[x] != _value) {\r\n                return _array[x]; // Found value\r\n            }\r\n        }\r\n\r\n        return 0; // Reached end of array\r\n    }\r\n\r\n    function isIn(address _value, address[] _array) pure internal returns (bool _isIn) {\r\n        for (uint x = 0; x != _array.length; x++) {\r\n            if (_array[x] == _value) {\r\n                return true; // Found value\r\n            }\r\n        }\r\n\r\n        return false; // Reached end of array\r\n    }\r\n\r\n    function emptyIndex(address[] _array) pure internal returns (uint _emptyIndex) {\r\n        for (uint x = 0; x != _array.length; x++) {\r\n            if (_array[x] == 0) {\r\n                return x; // Found index\r\n            }\r\n        }\r\n\r\n        revert(); // Reached end of array\r\n    }\r\n}\r\n\r\n/**\r\n * @title SafeMath\r\n * @dev Math operations with safety checks that revert on error\r\n */\r\nlibrary SafeMath {\r\n\r\n    /**\r\n    * @dev Multiplies two numbers, reverts on overflow.\r\n    */\r\n    function mul(uint256 a, uint256 b) internal pure returns (uint256) {\r\n        // Gas optimization: this is cheaper than requiring 'a' not being zero, but the\r\n        // benefit is lost if 'b' is also tested.\r\n        // See: https://github.com/OpenZeppelin/openzeppelin-solidity/pull/522\r\n        if (a == 0) {\r\n        return 0;\r\n        }\r\n\r\n        uint256 c = a * b;\r\n        require(c / a == b);\r\n\r\n        return c;\r\n    }\r\n\r\n    /**\r\n    * @dev Integer division of two numbers truncating the quotient, reverts on division by zero.\r\n    */\r\n    function div(uint256 a, uint256 b) internal pure returns (uint256) {\r\n        require(b > 0); // Solidity only automatically asserts when dividing by 0\r\n        uint256 c = a / b;\r\n        // assert(a == b * c + a % b); // There is no case in which this doesn't hold\r\n\r\n        return c;\r\n    }\r\n\r\n    /**\r\n    * @dev Subtracts two numbers, reverts on overflow (i.e. if subtrahend is greater than minuend).\r\n    */\r\n    function sub(uint256 a, uint256 b) internal pure returns (uint256) {\r\n        require(b <= a);\r\n        uint256 c = a - b;\r\n\r\n        return c;\r\n    }\r\n\r\n    /**\r\n    * @dev Adds two numbers, reverts on overflow.\r\n    */\r\n    function add(uint256 a, uint256 b) internal pure returns (uint256) {\r\n        uint256 c = a + b;\r\n        require(c >= a);\r\n\r\n        return c;\r\n    }\r\n\r\n    /**\r\n    * @dev Divides two numbers and returns the remainder (unsigned integer modulo),\r\n    * reverts when dividing by zero.\r\n    */\r\n    function mod(uint256 a, uint256 b) internal pure returns (uint256) {\r\n        require(b != 0);\r\n        return a % b;\r\n    }\r\n}",
  "sourcePath": "R:\\B9Lab-Assignments\\RockPaperScissors\\contracts\\RockPaperScissors.sol",
  "compiler": {
    "name": "solc",
    "version": "0.4.24+commit.e67f0147.Emscripten.clang"
  },
  "schemaVersion": "2.0.1",
  "updatedAt": "2018-10-06T03:14:14.277Z"
}