{
  "contractName": "RockPaperScissors",
  "abi": [
    {
      "constant": true,
      "inputs": [
        {
          "name": "",
          "type": "bytes32"
        }
      ],
      "name": "Games",
      "outputs": [
        {
          "name": "Initialized",
          "type": "bool"
        },
        {
          "name": "InviteCode",
          "type": "bytes32"
        },
        {
          "name": "GameFinished",
          "type": "bool"
        },
        {
          "name": "Block",
          "type": "uint256"
        },
        {
          "name": "RoundsPlayed",
          "type": "uint256"
        },
        {
          "name": "Winner",
          "type": "address"
        }
      ],
      "payable": false,
      "stateMutability": "view",
      "type": "function"
    },
    {
      "anonymous": false,
      "inputs": [
        {
          "indexed": false,
          "name": "FirstPlayer",
          "type": "address"
        },
        {
          "indexed": false,
          "name": "InviteCode",
          "type": "bytes32"
        },
        {
          "indexed": false,
          "name": "Block",
          "type": "uint256"
        }
      ],
      "name": "NewGame",
      "type": "event"
    },
    {
      "anonymous": false,
      "inputs": [
        {
          "indexed": false,
          "name": "Player",
          "type": "address"
        },
        {
          "indexed": false,
          "name": "InviteCode",
          "type": "bytes32"
        },
        {
          "indexed": false,
          "name": "Block",
          "type": "uint256"
        }
      ],
      "name": "PlayerJoinedGame",
      "type": "event"
    },
    {
      "anonymous": false,
      "inputs": [
        {
          "indexed": false,
          "name": "Player",
          "type": "address"
        },
        {
          "indexed": false,
          "name": "Move",
          "type": "uint256"
        },
        {
          "indexed": false,
          "name": "InviteCode",
          "type": "bytes32"
        },
        {
          "indexed": false,
          "name": "Block",
          "type": "uint256"
        }
      ],
      "name": "PlayerMadeMove",
      "type": "event"
    },
    {
      "anonymous": false,
      "inputs": [
        {
          "indexed": false,
          "name": "Player",
          "type": "address"
        },
        {
          "indexed": false,
          "name": "Value",
          "type": "uint256"
        },
        {
          "indexed": false,
          "name": "InviteCode",
          "type": "bytes32"
        },
        {
          "indexed": false,
          "name": "Block",
          "type": "uint256"
        }
      ],
      "name": "PlayerMadeBet",
      "type": "event"
    },
    {
      "anonymous": false,
      "inputs": [
        {
          "indexed": false,
          "name": "Player",
          "type": "address"
        },
        {
          "indexed": false,
          "name": "Value",
          "type": "uint256"
        },
        {
          "indexed": false,
          "name": "InviteCode",
          "type": "bytes32"
        },
        {
          "indexed": false,
          "name": "Block",
          "type": "uint256"
        }
      ],
      "name": "PlayerClaimedBet",
      "type": "event"
    },
    {
      "anonymous": false,
      "inputs": [
        {
          "indexed": false,
          "name": "WinningPlayer",
          "type": "address"
        },
        {
          "indexed": false,
          "name": "LosingPlayer",
          "type": "address"
        },
        {
          "indexed": false,
          "name": "InviteCode",
          "type": "bytes32"
        },
        {
          "indexed": false,
          "name": "Block",
          "type": "uint256"
        }
      ],
      "name": "PlayerWonRound",
      "type": "event"
    },
    {
      "anonymous": false,
      "inputs": [
        {
          "indexed": false,
          "name": "WinningPlayer",
          "type": "address"
        },
        {
          "indexed": false,
          "name": "LosingPlayer",
          "type": "address"
        },
        {
          "indexed": false,
          "name": "InviteCode",
          "type": "bytes32"
        },
        {
          "indexed": false,
          "name": "Block",
          "type": "uint256"
        }
      ],
      "name": "PlayerWon",
      "type": "event"
    },
    {
      "constant": false,
      "inputs": [],
      "name": "newGame",
      "outputs": [
        {
          "name": "_inviteCode",
          "type": "bytes32"
        }
      ],
      "payable": false,
      "stateMutability": "nonpayable",
      "type": "function"
    },
    {
      "constant": false,
      "inputs": [
        {
          "name": "_inviteCode",
          "type": "bytes32"
        }
      ],
      "name": "joinGame",
      "outputs": [],
      "payable": false,
      "stateMutability": "nonpayable",
      "type": "function"
    },
    {
      "constant": false,
      "inputs": [
        {
          "name": "_inviteCode",
          "type": "bytes32"
        },
        {
          "name": "_encryptedMove",
          "type": "bytes32"
        }
      ],
      "name": "commitMove",
      "outputs": [],
      "payable": false,
      "stateMutability": "nonpayable",
      "type": "function"
    },
    {
      "constant": false,
      "inputs": [
        {
          "name": "_inviteCode",
          "type": "bytes32"
        },
        {
          "name": "_move",
          "type": "uint256"
        }
      ],
      "name": "revealMove",
      "outputs": [],
      "payable": false,
      "stateMutability": "nonpayable",
      "type": "function"
    },
    {
      "constant": false,
      "inputs": [
        {
          "name": "_inviteCode",
          "type": "bytes32"
        }
      ],
      "name": "bet",
      "outputs": [],
      "payable": true,
      "stateMutability": "payable",
      "type": "function"
    },
    {
      "constant": false,
      "inputs": [
        {
          "name": "_inviteCode",
          "type": "bytes32"
        }
      ],
      "name": "claimBet",
      "outputs": [],
      "payable": false,
      "stateMutability": "nonpayable",
      "type": "function"
    },
    {
      "constant": true,
      "inputs": [
        {
          "name": "_inviteCode",
          "type": "bytes32"
        },
        {
          "name": "_address",
          "type": "address"
        }
      ],
      "name": "winCount",
      "outputs": [
        {
          "name": "_winCount",
          "type": "uint256"
        }
      ],
      "payable": false,
      "stateMutability": "view",
      "type": "function"
    }
  ],
  "bytecode": "0x608060405234801561001057600080fd5b50614c4e806100206000396000f30060806040526004361061008e576000357c0100000000000000000000000000000000000000000000000000000000900463ffffffff168063177413da1461009357806322cd5ea8146100b75780637d03f5f3146100e8578063a72408d21461011b578063af2768ec14610180578063bf474766146101bf578063c995623e146101f0578063e8d2e78b1461022b575b600080fd5b6100b560048036038101908080356000191690602001909291905050506102cf565b005b3480156100c357600080fd5b506100e66004803603810190808035600019169060200190929190505050610617565b005b3480156100f457600080fd5b506100fd610e6e565b60405180826000191660001916815260200191505060405180910390f35b34801561012757600080fd5b5061016a6004803603810190808035600019169060200190929190803573ffffffffffffffffffffffffffffffffffffffff1690602001909291905050506111d5565b6040518082815260200191505060405180910390f35b34801561018c57600080fd5b506101bd60048036038101908080356000191690602001909291908035600019169060200190929190505050611295565b005b3480156101cb57600080fd5b506101ee6004803603810190808035600019169060200190929190505050611651565b005b3480156101fc57600080fd5b50610229600480360381019080803560001916906020019092919080359060200190929190505050611a09565b005b34801561023757600080fd5b5061025a6004803603810190808035600019169060200190929190505050614861565b60405180871515151581526020018660001916600019168152602001851515151581526020018481526020018381526020018273ffffffffffffffffffffffffffffffffffffffff1673ffffffffffffffffffffffffffffffffffffffff168152602001965050505050505060405180910390f35b60011515600080836000191660001916815260200190815260200160002060000160009054906101000a900460ff161515141515610375576040517f08c379a00000000000000000000000000000000000000000000000000000000081526004018080602001828103825260148152602001807f47616d6520646f6573206e6f742065786973742e00000000000000000000000081525060200191505060405180910390fd5b600080600083600019166000191681526020019081526020016000206005015414151561040a576040517f08c379a00000000000000000000000000000000000000000000000000000000081526004018080602001828103825260158152602001807f47616d6520616c726561647920737461727465642e000000000000000000000081525060200191505060405180910390fd5b6104b53360008084600019166000191681526020019081526020016000206001018054806020026020016040519081016040528092919081815260200182805480156104ab57602002820191906000526020600020905b8160009054906101000a900473ffffffffffffffffffffffffffffffffffffffff1673ffffffffffffffffffffffffffffffffffffffff1681526020019060010190808311610461575b50505050506148d7565b1515610529576040517f08c379a00000000000000000000000000000000000000000000000000000000081526004018080602001828103825260138152602001807f506c61796572206e6f7420696e2067616d652e0000000000000000000000000081525060200191505060405180910390fd5b34600080836000191660001916815260200190815260200160002060080160003373ffffffffffffffffffffffffffffffffffffffff1673ffffffffffffffffffffffffffffffffffffffff168152602001908152602001600020600082825401925050819055507fb261f7e3c46b898f28fa63832cfac6b7aa325d9327d1d9ef2769da3f642b377433348343604051808573ffffffffffffffffffffffffffffffffffffffff1673ffffffffffffffffffffffffffffffffffffffff168152602001848152602001836000191660001916815260200182815260200194505050505060405180910390a150565b600060011515600080846000191660001916815260200190815260200160002060000160009054906101000a900460ff1615151415156106bf576040517f08c379a00000000000000000000000000000000000000000000000000000000081526004018080602001828103825260148152602001807f47616d6520646f6573206e6f742065786973742e00000000000000000000000081525060200191505060405180910390fd5b6003600080846000191660001916815260200190815260200160002060050154141515610754576040517f08c379a00000000000000000000000000000000000000000000000000000000081526004018080602001828103825260158152602001807f47616d65206861736e27742066696e69736865642e000000000000000000000081525060200191505060405180910390fd5b6107ff3360008085600019166000191681526020019081526020016000206001018054806020026020016040519081016040528092919081815260200182805480156107f557602002820191906000526020600020905b8160009054906101000a900473ffffffffffffffffffffffffffffffffffffffff1673ffffffffffffffffffffffffffffffffffffffff16815260200190600101908083116107ab575b50505050506148d7565b1515610873576040517f08c379a00000000000000000000000000000000000000000000000000000000081526004018080602001828103825260138152602001807f506c61796572206e6f7420696e2067616d652e0000000000000000000000000081525060200191505060405180910390fd5b3373ffffffffffffffffffffffffffffffffffffffff16600080846000191660001916815260200190815260200160002060070160009054906101000a900473ffffffffffffffffffffffffffffffffffffffff1673ffffffffffffffffffffffffffffffffffffffff16141515610953576040517f08c379a00000000000000000000000000000000000000000000000000000000081526004018080602001828103825260178152602001807f506c61796572206469646e27742077696e2067616d652e00000000000000000081525060200191505060405180910390fd5b610ac460008084600019166000191681526020019081526020016000206008016000610a20336000808860001916600019168152602001908152602001600020600101805480602002602001604051908101604052809291908181526020018280548015610a1657602002820191906000526020600020905b8160009054906101000a900473ffffffffffffffffffffffffffffffffffffffff1673ffffffffffffffffffffffffffffffffffffffff16815260200190600101908083116109cc575b5050505050614956565b73ffffffffffffffffffffffffffffffffffffffff1673ffffffffffffffffffffffffffffffffffffffff16815260200190815260200160002054600080856000191660001916815260200190815260200160002060080160003373ffffffffffffffffffffffffffffffffffffffff1673ffffffffffffffffffffffffffffffffffffffff168152602001908152602001600020546149ec90919063ffffffff16565b9050600080600084600019166000191681526020019081526020016000206008016000610b92336000808860001916600019168152602001908152602001600020600101805480602002602001604051908101604052809291908181526020018280548015610b8857602002820191906000526020600020905b8160009054906101000a900473ffffffffffffffffffffffffffffffffffffffff1673ffffffffffffffffffffffffffffffffffffffff1681526020019060010190808311610b3e575b5050505050614956565b73ffffffffffffffffffffffffffffffffffffffff1673ffffffffffffffffffffffffffffffffffffffff168152602001908152602001600020819055506000806000846000191660001916815260200190815260200160002060080160003373ffffffffffffffffffffffffffffffffffffffff1673ffffffffffffffffffffffffffffffffffffffff168152602001908152602001600020819055503373ffffffffffffffffffffffffffffffffffffffff166108fc829081150290604051600060405180830381858888f19350505050158015610c76573d6000803e3d6000fd5b507f49b9eccd8c556ec199a811793a0c33d24bc8f1aba9fc577b7d2fcde053801dea33610e0a60008086600019166000191681526020019081526020016000206008016000610d66336000808a60001916600019168152602001908152602001600020600101805480602002602001604051908101604052809291908181526020018280548015610d5c57602002820191906000526020600020905b8160009054906101000a900473ffffffffffffffffffffffffffffffffffffffff1673ffffffffffffffffffffffffffffffffffffffff1681526020019060010190808311610d12575b5050505050614956565b73ffffffffffffffffffffffffffffffffffffffff1673ffffffffffffffffffffffffffffffffffffffff16815260200190815260200160002054600080876000191660001916815260200190815260200160002060080160003373ffffffffffffffffffffffffffffffffffffffff1673ffffffffffffffffffffffffffffffffffffffff168152602001908152602001600020546149ec90919063ffffffff16565b8443604051808573ffffffffffffffffffffffffffffffffffffffff1673ffffffffffffffffffffffffffffffffffffffff168152602001848152602001836000191660001916815260200182815260200194505050505060405180910390a15050565b6000606080610e7b614a75565b6002604051908082528060200260200182016040528015610eab5781602001602082028038833980820191505090505b5092506003604051908082528060200260200182016040528015610ede5781602001602082028038833980820191505090505b50915033836000815181101515610ef157fe5b9060200190602002019073ffffffffffffffffffffffffffffffffffffffff16908173ffffffffffffffffffffffffffffffffffffffff168152505061010060405190810160405280600115158152602001848152602001844360405160200180838051906020019060200280838360005b83811015610f7e578082015181840152602081019050610f63565b50505050905001828152602001925050506040516020818303038152906040526040518082805190602001908083835b602083101515610fd35780518252602082019150602081019050602083039250610fae565b6001836020036101000a038019825116818451168082178552505050505050905001915050604051809103902060001916815260200160001515815260200143815260200160008152602001838152602001600073ffffffffffffffffffffffffffffffffffffffff1681525090508060008083604001516000191660001916815260200190815260200160002060008201518160000160006101000a81548160ff021916908315150217905550602082015181600101908051906020019061109d929190614ad8565b506040820151816002019060001916905560608201518160030160006101000a81548160ff0219169083151502179055506080820151816004015560a0820151816005015560c08201518160060190805190602001906110fe929190614ad8565b5060e08201518160070160006101000a81548173ffffffffffffffffffffffffffffffffffffffff021916908373ffffffffffffffffffffffffffffffffffffffff1602179055509050507f3d6c02e74ba05913874ba8d477497510df840bf93bfa5a2a8d8943766678a0e333826040015143604051808473ffffffffffffffffffffffffffffffffffffffff1673ffffffffffffffffffffffffffffffffffffffff1681526020018360001916600019168152602001828152602001935050505060405180910390a18060400151935050505090565b6000806000809150600090505b60038114151561128a578373ffffffffffffffffffffffffffffffffffffffff1660008087600019166000191681526020019081526020016000206006018281548110151561122d57fe5b9060005260206000200160009054906101000a900473ffffffffffffffffffffffffffffffffffffffff1673ffffffffffffffffffffffffffffffffffffffff16141561127d5781806001019250505b80806001019150506111e2565b819250505092915050565b60011515600080846000191660001916815260200190815260200160002060000160009054906101000a900460ff16151514151561133b576040517f08c379a00000000000000000000000000000000000000000000000000000000081526004018080602001828103825260128152602001807f47616d6520646f6573206e6f742065786974000000000000000000000000000081525060200191505060405180910390fd5b6003600080846000191660001916815260200190815260200160002060050154141515156113d1576040517f08c379a00000000000000000000000000000000000000000000000000000000081526004018080602001828103825260168152602001807f47616d6520616c72656164792066696e69736865642e0000000000000000000081525060200191505060405180910390fd5b61147c33600080856000191660001916815260200190815260200160002060010180548060200260200160405190810160405280929190818152602001828054801561147257602002820191906000526020600020905b8160009054906101000a900473ffffffffffffffffffffffffffffffffffffffff1673ffffffffffffffffffffffffffffffffffffffff1681526020019060010190808311611428575b50505050506148d7565b15156114f0576040517f08c379a00000000000000000000000000000000000000000000000000000000081526004018080602001828103825260138152602001807f506c61796572206e6f7420696e2067616d652e0000000000000000000000000081525060200191505060405180910390fd5b600073ffffffffffffffffffffffffffffffffffffffff166000808460001916600019168152602001908152602001600020600101600081548110151561153357fe5b9060005260206000200160009054906101000a900473ffffffffffffffffffffffffffffffffffffffff1673ffffffffffffffffffffffffffffffffffffffff16141515156115ea576040517f08c379a00000000000000000000000000000000000000000000000000000000081526004018080602001828103825260138152602001807f4e6f7420656e6f75676820706c61796572732e0000000000000000000000000081525060200191505060405180910390fd5b806000808460001916600019168152602001908152602001600020600a0160003373ffffffffffffffffffffffffffffffffffffffff1673ffffffffffffffffffffffffffffffffffffffff16815260200190815260200160002081600019169055505050565b60011515600080836000191660001916815260200190815260200160002060000160009054906101000a900460ff1615151415156116f7576040517f08c379a00000000000000000000000000000000000000000000000000000000081526004018080602001828103825260148152602001807f47616d6520646f6573206e6f742065786973742e00000000000000000000000081525060200191505060405180910390fd5b60008060008360001916600019168152602001908152602001600020600101600181548110151561172457fe5b9060005260206000200160009054906101000a900473ffffffffffffffffffffffffffffffffffffffff1673ffffffffffffffffffffffffffffffffffffffff161415156117da576040517f08c379a00000000000000000000000000000000000000000000000000000000081526004018080602001828103825260128152602001807f47616d6520616c72656164792066756c6c2e000000000000000000000000000081525060200191505060405180910390fd5b600080600083600019166000191681526020019081526020016000206005015414151561186f576040517f08c379a00000000000000000000000000000000000000000000000000000000081526004018080602001828103825260158152602001807f47616d6520616c726561647920737461727465642e000000000000000000000081525060200191505060405180910390fd5b336000808360001916600019168152602001908152602001600020600101611937600080856000191660001916815260200190815260200160002060010180548060200260200160405190810160405280929190818152602001828054801561192d57602002820191906000526020600020905b8160009054906101000a900473ffffffffffffffffffffffffffffffffffffffff1673ffffffffffffffffffffffffffffffffffffffff16815260200190600101908083116118e3575b5050505050614a0d565b81548110151561194357fe5b9060005260206000200160006101000a81548173ffffffffffffffffffffffffffffffffffffffff021916908373ffffffffffffffffffffffffffffffffffffffff1602179055507feb9863b2d0818b8590f0108ccbd30a1b74b21f32ba6533329df1aeb0d52ee775338243604051808473ffffffffffffffffffffffffffffffffffffffff1673ffffffffffffffffffffffffffffffffffffffff1681526020018360001916600019168152602001828152602001935050505060405180910390a150565b60008060008060006001026000808860001916600019168152602001908152602001600020600a0160003373ffffffffffffffffffffffffffffffffffffffff1673ffffffffffffffffffffffffffffffffffffffff168152602001908152602001600020546000191614158015611b8d575060006001026000808860001916600019168152602001908152602001600020600a016000611b4b336000808c60001916600019168152602001908152602001600020600101805480602002602001604051908101604052809291908181526020018280548015611b4157602002820191906000526020600020905b8160009054906101000a900473ffffffffffffffffffffffffffffffffffffffff1673ffffffffffffffffffffffffffffffffffffffff1681526020019060010190808311611af7575b5050505050614956565b73ffffffffffffffffffffffffffffffffffffffff1673ffffffffffffffffffffffffffffffffffffffff168152602001908152602001600020546000191614155b1515611c27576040517f08c379a000000000000000000000000000000000000000000000000000000000815260040180806020018281038252602a8152602001807f4e6f7420616c6c20706c6179657273206861766520636f6d6d6974746564206181526020017f206d6f7665207965742e0000000000000000000000000000000000000000000081525060400191505060405180910390fd5b6000808760001916600019168152602001908152602001600020600a0160003373ffffffffffffffffffffffffffffffffffffffff1673ffffffffffffffffffffffffffffffffffffffff168152602001908152602001600020546000191685604051602001808281526020019150506040516020818303038152906040526040518082805190602001908083835b602083101515611cdb5780518252602082019150602081019050602083039250611cb6565b6001836020036101000a038019825116818451168082178552505050505050905001915050604051809103902060001916141515611da7576040517f08c379a00000000000000000000000000000000000000000000000000000000081526004018080602001828103825260238152602001807f496e76616c6964206d6f76652028646f65736e2774206d6174636820636f6d6d81526020017f697429000000000000000000000000000000000000000000000000000000000081525060400191505060405180910390fd5b600085118015611db75750600485105b1515611e2b576040517f08c379a000000000000000000000000000000000000000000000000000000000815260040180806020018281038252600c8152602001807f496e76616c6964206d6f7665000000000000000000000000000000000000000081525060200191505060405180910390fd5b60011515600080886000191660001916815260200190815260200160002060000160009054906101000a900460ff161515141515611ed1576040517f08c379a00000000000000000000000000000000000000000000000000000000081526004018080602001828103825260148152602001807f47616d6520646f6573206e6f742065786973742e00000000000000000000000081525060200191505060405180910390fd5b600360008088600019166000191681526020019081526020016000206005015414151515611f67576040517f08c379a00000000000000000000000000000000000000000000000000000000081526004018080602001828103825260168152602001807f47616d6520616c72656164792066696e69736865642e0000000000000000000081525060200191505060405180910390fd5b61201233600080896000191660001916815260200190815260200160002060010180548060200260200160405190810160405280929190818152602001828054801561200857602002820191906000526020600020905b8160009054906101000a900473ffffffffffffffffffffffffffffffffffffffff1673ffffffffffffffffffffffffffffffffffffffff1681526020019060010190808311611fbe575b50505050506148d7565b1515612086576040517f08c379a00000000000000000000000000000000000000000000000000000000081526004018080602001828103825260138152602001807f506c61796572206e6f7420696e2067616d652e0000000000000000000000000081525060200191505060405180910390fd5b600073ffffffffffffffffffffffffffffffffffffffff16600080886000191660001916815260200190815260200160002060010160008154811015156120c957fe5b9060005260206000200160009054906101000a900473ffffffffffffffffffffffffffffffffffffffff1673ffffffffffffffffffffffffffffffffffffffff1614151515612180576040517f08c379a00000000000000000000000000000000000000000000000000000000081526004018080602001828103825260138152602001807f4e6f7420656e6f75676820706c61796572732e0000000000000000000000000081525060200191505060405180910390fd5b6000808760001916600019168152602001908152602001600020600901600061224a336000808b6000191660001916815260200190815260200160002060010180548060200260200160405190810160405280929190818152602001828054801561224057602002820191906000526020600020905b8160009054906101000a900473ffffffffffffffffffffffffffffffffffffffff1673ffffffffffffffffffffffffffffffffffffffff16815260200190600101908083116121f6575b5050505050614956565b73ffffffffffffffffffffffffffffffffffffffff1673ffffffffffffffffffffffffffffffffffffffff16815260200190815260200160002080549050600080886000191660001916815260200190815260200160002060090160003373ffffffffffffffffffffffffffffffffffffffff1673ffffffffffffffffffffffffffffffffffffffff168152602001908152602001600020805490501115151561235c576040517f08c379a000000000000000000000000000000000000000000000000000000000815260040180806020018281038252601e8152602001807f4f7468657220706c61796572206861736e2774206d6f766564207965742e000081525060200191505060405180910390fd5b600080876000191660001916815260200190815260200160002060090160003373ffffffffffffffffffffffffffffffffffffffff1673ffffffffffffffffffffffffffffffffffffffff16815260200190815260200160002080548091906001016123c89190614b62565b5084600080886000191660001916815260200190815260200160002060090160003373ffffffffffffffffffffffffffffffffffffffff1673ffffffffffffffffffffffffffffffffffffffff16815260200190815260200160002060008089600019166000191681526020019081526020016000206005015481548110151561244e57fe5b9060005260206000200181905550336000808860001916600019168152602001908152602001600020600b0160006124ac886000808c60001916600019168152602001908152602001600020600501546149ec90919063ffffffff16565b815260200190815260200160002060006101000a81548173ffffffffffffffffffffffffffffffffffffffff021916908373ffffffffffffffffffffffffffffffffffffffff1602179055507f1d5ad503e2037ec9786501836c2879ce894cbccab52fb32b62235f0ed6ccf49933868843604051808573ffffffffffffffffffffffffffffffffffffffff1673ffffffffffffffffffffffffffffffffffffffff168152602001848152602001836000191660001916815260200182815260200194505050505060405180910390a160008087600019166000191681526020019081526020016000206009016000612645336000808b6000191660001916815260200190815260200160002060010180548060200260200160405190810160405280929190818152602001828054801561263b57602002820191906000526020600020905b8160009054906101000a900473ffffffffffffffffffffffffffffffffffffffff1673ffffffffffffffffffffffffffffffffffffffff16815260200190600101908083116125f1575b5050505050614956565b73ffffffffffffffffffffffffffffffffffffffff1673ffffffffffffffffffffffffffffffffffffffff16815260200190815260200160002080549050600080886000191660001916815260200190815260200160002060090160003373ffffffffffffffffffffffffffffffffffffffff1673ffffffffffffffffffffffffffffffffffffffff16815260200190815260200160002080549050141561485957600080876000191660001916815260200190815260200160002060090160003373ffffffffffffffffffffffffffffffffffffffff1673ffffffffffffffffffffffffffffffffffffffff16815260200190815260200160002060008088600019166000191681526020019081526020016000206005015481548110151561276b57fe5b9060005260206000200154935060008087600019166000191681526020019081526020016000206009016000612842336000808b6000191660001916815260200190815260200160002060010180548060200260200160405190810160405280929190818152602001828054801561283857602002820191906000526020600020905b8160009054906101000a900473ffffffffffffffffffffffffffffffffffffffff1673ffffffffffffffffffffffffffffffffffffffff16815260200190600101908083116127ee575b5050505050614956565b73ffffffffffffffffffffffffffffffffffffffff1673ffffffffffffffffffffffffffffffffffffffff1681526020019081526020016000206000808860001916600019168152602001908152602001600020600501548154811015156128a657fe5b90600052602060002001549250828414151561485857600080876000191660001916815260200190815260200160002060060180548091906001016128eb9190614b8e565b5060018414806128fb5750600183145b15612ffa57600384148061290f5750600383145b15612c7c576000808760001916600019168152602001908152602001600020600b01600061296460016000808b60001916600019168152602001908152602001600020600501546149ec90919063ffffffff16565b815260200190815260200160002060009054906101000a900473ffffffffffffffffffffffffffffffffffffffff1660008088600019166000191681526020019081526020016000206006016000808960001916600019168152602001908152602001600020600501548154811015156129da57fe5b9060005260206000200160006101000a81548173ffffffffffffffffffffffffffffffffffffffff021916908373ffffffffffffffffffffffffffffffffffffffff1602179055507f70c5dd4aa77b3c67df232934ca4739f2a4ecd16c97f6ce0844c154a10e743f036000808860001916600019168152602001908152602001600020600b016000612a9360016000808c60001916600019168152602001908152602001600020600501546149ec90919063ffffffff16565b815260200190815260200160002060009054906101000a900473ffffffffffffffffffffffffffffffffffffffff16612beb6000808a60001916600019168152602001908152602001600020600b016000612b1560016000808e60001916600019168152602001908152602001600020600501546149ec90919063ffffffff16565b815260200190815260200160002060009054906101000a900473ffffffffffffffffffffffffffffffffffffffff166000808b60001916600019168152602001908152602001600020600101805480602002602001604051908101604052809291908181526020018280548015612be157602002820191906000526020600020905b8160009054906101000a900473ffffffffffffffffffffffffffffffffffffffff1673ffffffffffffffffffffffffffffffffffffffff1681526020019060010190808311612b97575b5050505050614956565b8843604051808573ffffffffffffffffffffffffffffffffffffffff1673ffffffffffffffffffffffffffffffffffffffff1681526020018473ffffffffffffffffffffffffffffffffffffffff1673ffffffffffffffffffffffffffffffffffffffff168152602001836000191660001916815260200182815260200194505050505060405180910390a1612ff5565b6002841480612c8b5750600283145b15612ff4576000808760001916600019168152602001908152602001600020600b016000612ce060026000808b60001916600019168152602001908152602001600020600501546149ec90919063ffffffff16565b815260200190815260200160002060009054906101000a900473ffffffffffffffffffffffffffffffffffffffff166000808860001916600019168152602001908152602001600020600601600080896000191660001916815260200190815260200160002060050154815481101515612d5657fe5b9060005260206000200160006101000a81548173ffffffffffffffffffffffffffffffffffffffff021916908373ffffffffffffffffffffffffffffffffffffffff1602179055507f70c5dd4aa77b3c67df232934ca4739f2a4ecd16c97f6ce0844c154a10e743f036000808860001916600019168152602001908152602001600020600b016000612e0f60026000808c60001916600019168152602001908152602001600020600501546149ec90919063ffffffff16565b815260200190815260200160002060009054906101000a900473ffffffffffffffffffffffffffffffffffffffff16612f676000808a60001916600019168152602001908152602001600020600b016000612e9160026000808e60001916600019168152602001908152602001600020600501546149ec90919063ffffffff16565b815260200190815260200160002060009054906101000a900473ffffffffffffffffffffffffffffffffffffffff166000808b60001916600019168152602001908152602001600020600101805480602002602001604051908101604052809291908181526020018280548015612f5d57602002820191906000526020600020905b8160009054906101000a900473ffffffffffffffffffffffffffffffffffffffff1673ffffffffffffffffffffffffffffffffffffffff1681526020019060010190808311612f13575b5050505050614956565b8843604051808573ffffffffffffffffffffffffffffffffffffffff1673ffffffffffffffffffffffffffffffffffffffff1681526020018473ffffffffffffffffffffffffffffffffffffffff1673ffffffffffffffffffffffffffffffffffffffff168152602001836000191660001916815260200182815260200194505050505060405180910390a15b5b6144da565b60028414806130095750600283145b15613a6b57600184148061301d5750600183145b1561338a576000808760001916600019168152602001908152602001600020600b01600061307260026000808b60001916600019168152602001908152602001600020600501546149ec90919063ffffffff16565b815260200190815260200160002060009054906101000a900473ffffffffffffffffffffffffffffffffffffffff1660008088600019166000191681526020019081526020016000206006016000808960001916600019168152602001908152602001600020600501548154811015156130e857fe5b9060005260206000200160006101000a81548173ffffffffffffffffffffffffffffffffffffffff021916908373ffffffffffffffffffffffffffffffffffffffff1602179055507f70c5dd4aa77b3c67df232934ca4739f2a4ecd16c97f6ce0844c154a10e743f036000808860001916600019168152602001908152602001600020600b0160006131a160026000808c60001916600019168152602001908152602001600020600501546149ec90919063ffffffff16565b815260200190815260200160002060009054906101000a900473ffffffffffffffffffffffffffffffffffffffff166132f96000808a60001916600019168152602001908152602001600020600b01600061322360026000808e60001916600019168152602001908152602001600020600501546149ec90919063ffffffff16565b815260200190815260200160002060009054906101000a900473ffffffffffffffffffffffffffffffffffffffff166000808b600019166000191681526020019081526020016000206001018054806020026020016040519081016040528092919081815260200182805480156132ef57602002820191906000526020600020905b8160009054906101000a900473ffffffffffffffffffffffffffffffffffffffff1673ffffffffffffffffffffffffffffffffffffffff16815260200190600101908083116132a5575b5050505050614956565b8843604051808573ffffffffffffffffffffffffffffffffffffffff1673ffffffffffffffffffffffffffffffffffffffff1681526020018473ffffffffffffffffffffffffffffffffffffffff1673ffffffffffffffffffffffffffffffffffffffff168152602001836000191660001916815260200182815260200194505050505060405180910390a1613703565b60038414806133995750600383145b15613702576000808760001916600019168152602001908152602001600020600b0160006133ee60036000808b60001916600019168152602001908152602001600020600501546149ec90919063ffffffff16565b815260200190815260200160002060009054906101000a900473ffffffffffffffffffffffffffffffffffffffff16600080886000191660001916815260200190815260200160002060060160008089600019166000191681526020019081526020016000206005015481548110151561346457fe5b9060005260206000200160006101000a81548173ffffffffffffffffffffffffffffffffffffffff021916908373ffffffffffffffffffffffffffffffffffffffff1602179055507f70c5dd4aa77b3c67df232934ca4739f2a4ecd16c97f6ce0844c154a10e743f036000808860001916600019168152602001908152602001600020600b01600061351d60036000808c60001916600019168152602001908152602001600020600501546149ec90919063ffffffff16565b815260200190815260200160002060009054906101000a900473ffffffffffffffffffffffffffffffffffffffff166136756000808a60001916600019168152602001908152602001600020600b01600061359f60036000808e60001916600019168152602001908152602001600020600501546149ec90919063ffffffff16565b815260200190815260200160002060009054906101000a900473ffffffffffffffffffffffffffffffffffffffff166000808b6000191660001916815260200190815260200160002060010180548060200260200160405190810160405280929190818152602001828054801561366b57602002820191906000526020600020905b8160009054906101000a900473ffffffffffffffffffffffffffffffffffffffff1673ffffffffffffffffffffffffffffffffffffffff1681526020019060010190808311613621575b5050505050614956565b8843604051808573ffffffffffffffffffffffffffffffffffffffff1673ffffffffffffffffffffffffffffffffffffffff1681526020018473ffffffffffffffffffffffffffffffffffffffff1673ffffffffffffffffffffffffffffffffffffffff168152602001836000191660001916815260200182815260200194505050505060405180910390a15b5b6000808760001916600019168152602001908152602001600020600b01600061375360026000808b60001916600019168152602001908152602001600020600501546149ec90919063ffffffff16565b815260200190815260200160002060009054906101000a900473ffffffffffffffffffffffffffffffffffffffff1660008088600019166000191681526020019081526020016000206006016000808960001916600019168152602001908152602001600020600501548154811015156137c957fe5b9060005260206000200160006101000a81548173ffffffffffffffffffffffffffffffffffffffff021916908373ffffffffffffffffffffffffffffffffffffffff1602179055507f70c5dd4aa77b3c67df232934ca4739f2a4ecd16c97f6ce0844c154a10e743f036000808860001916600019168152602001908152602001600020600b01600061388260026000808c60001916600019168152602001908152602001600020600501546149ec90919063ffffffff16565b815260200190815260200160002060009054906101000a900473ffffffffffffffffffffffffffffffffffffffff166139da6000808a60001916600019168152602001908152602001600020600b01600061390460026000808e60001916600019168152602001908152602001600020600501546149ec90919063ffffffff16565b815260200190815260200160002060009054906101000a900473ffffffffffffffffffffffffffffffffffffffff166000808b600019166000191681526020019081526020016000206001018054806020026020016040519081016040528092919081815260200182805480156139d057602002820191906000526020600020905b8160009054906101000a900473ffffffffffffffffffffffffffffffffffffffff1673ffffffffffffffffffffffffffffffffffffffff1681526020019060010190808311613986575b5050505050614956565b8843604051808573ffffffffffffffffffffffffffffffffffffffff1673ffffffffffffffffffffffffffffffffffffffff1681526020018473ffffffffffffffffffffffffffffffffffffffff1673ffffffffffffffffffffffffffffffffffffffff168152602001836000191660001916815260200182815260200194505050505060405180910390a16144d9565b6003841480613a7a5750600383145b156144d8576002841480613a8e5750600283145b15613dfb576000808760001916600019168152602001908152602001600020600b016000613ae360036000808b60001916600019168152602001908152602001600020600501546149ec90919063ffffffff16565b815260200190815260200160002060009054906101000a900473ffffffffffffffffffffffffffffffffffffffff166000808860001916600019168152602001908152602001600020600601600080896000191660001916815260200190815260200160002060050154815481101515613b5957fe5b9060005260206000200160006101000a81548173ffffffffffffffffffffffffffffffffffffffff021916908373ffffffffffffffffffffffffffffffffffffffff1602179055507f70c5dd4aa77b3c67df232934ca4739f2a4ecd16c97f6ce0844c154a10e743f036000808860001916600019168152602001908152602001600020600b016000613c1260036000808c60001916600019168152602001908152602001600020600501546149ec90919063ffffffff16565b815260200190815260200160002060009054906101000a900473ffffffffffffffffffffffffffffffffffffffff16613d6a6000808a60001916600019168152602001908152602001600020600b016000613c9460036000808e60001916600019168152602001908152602001600020600501546149ec90919063ffffffff16565b815260200190815260200160002060009054906101000a900473ffffffffffffffffffffffffffffffffffffffff166000808b60001916600019168152602001908152602001600020600101805480602002602001604051908101604052809291908181526020018280548015613d6057602002820191906000526020600020905b8160009054906101000a900473ffffffffffffffffffffffffffffffffffffffff1673ffffffffffffffffffffffffffffffffffffffff1681526020019060010190808311613d16575b5050505050614956565b8843604051808573ffffffffffffffffffffffffffffffffffffffff1673ffffffffffffffffffffffffffffffffffffffff1681526020018473ffffffffffffffffffffffffffffffffffffffff1673ffffffffffffffffffffffffffffffffffffffff168152602001836000191660001916815260200182815260200194505050505060405180910390a1614174565b6001841480613e0a5750600183145b15614173576000808760001916600019168152602001908152602001600020600b016000613e5f60016000808b60001916600019168152602001908152602001600020600501546149ec90919063ffffffff16565b815260200190815260200160002060009054906101000a900473ffffffffffffffffffffffffffffffffffffffff166000808860001916600019168152602001908152602001600020600601600080896000191660001916815260200190815260200160002060050154815481101515613ed557fe5b9060005260206000200160006101000a81548173ffffffffffffffffffffffffffffffffffffffff021916908373ffffffffffffffffffffffffffffffffffffffff1602179055507f70c5dd4aa77b3c67df232934ca4739f2a4ecd16c97f6ce0844c154a10e743f036000808860001916600019168152602001908152602001600020600b016000613f8e60016000808c60001916600019168152602001908152602001600020600501546149ec90919063ffffffff16565b815260200190815260200160002060009054906101000a900473ffffffffffffffffffffffffffffffffffffffff166140e66000808a60001916600019168152602001908152602001600020600b01600061401060016000808e60001916600019168152602001908152602001600020600501546149ec90919063ffffffff16565b815260200190815260200160002060009054906101000a900473ffffffffffffffffffffffffffffffffffffffff166000808b600019166000191681526020019081526020016000206001018054806020026020016040519081016040528092919081815260200182805480156140dc57602002820191906000526020600020905b8160009054906101000a900473ffffffffffffffffffffffffffffffffffffffff1673ffffffffffffffffffffffffffffffffffffffff1681526020019060010190808311614092575b5050505050614956565b8843604051808573ffffffffffffffffffffffffffffffffffffffff1673ffffffffffffffffffffffffffffffffffffffff1681526020018473ffffffffffffffffffffffffffffffffffffffff1673ffffffffffffffffffffffffffffffffffffffff168152602001836000191660001916815260200182815260200194505050505060405180910390a15b5b6000808760001916600019168152602001908152602001600020600b0160006141c460036000808b60001916600019168152602001908152602001600020600501546149ec90919063ffffffff16565b815260200190815260200160002060009054906101000a900473ffffffffffffffffffffffffffffffffffffffff16600080886000191660001916815260200190815260200160002060060160008089600019166000191681526020019081526020016000206005015481548110151561423a57fe5b9060005260206000200160006101000a81548173ffffffffffffffffffffffffffffffffffffffff021916908373ffffffffffffffffffffffffffffffffffffffff1602179055507f70c5dd4aa77b3c67df232934ca4739f2a4ecd16c97f6ce0844c154a10e743f036000808860001916600019168152602001908152602001600020600b0160006142f360036000808c60001916600019168152602001908152602001600020600501546149ec90919063ffffffff16565b815260200190815260200160002060009054906101000a900473ffffffffffffffffffffffffffffffffffffffff1661444b6000808a60001916600019168152602001908152602001600020600b01600061437560036000808e60001916600019168152602001908152602001600020600501546149ec90919063ffffffff16565b815260200190815260200160002060009054906101000a900473ffffffffffffffffffffffffffffffffffffffff166000808b6000191660001916815260200190815260200160002060010180548060200260200160405190810160405280929190818152602001828054801561444157602002820191906000526020600020905b8160009054906101000a900473ffffffffffffffffffffffffffffffffffffffff1673ffffffffffffffffffffffffffffffffffffffff16815260200190600101908083116143f7575b5050505050614956565b8843604051808573ffffffffffffffffffffffffffffffffffffffff1673ffffffffffffffffffffffffffffffffffffffff1681526020018473ffffffffffffffffffffffffffffffffffffffff1673ffffffffffffffffffffffffffffffffffffffff168152602001836000191660001916815260200182815260200194505050505060405180910390a15b5b5b60008087600019166000191681526020019081526020016000206005016000815480929190600101919050555060036000808860001916600019168152602001908152602001600020600501541415614857573391506145db3360008089600019166000191681526020019081526020016000206001018054806020026020016040519081016040528092919081815260200182805480156145d157602002820191906000526020600020905b8160009054906101000a900473ffffffffffffffffffffffffffffffffffffffff1673ffffffffffffffffffffffffffffffffffffffff1681526020019060010190808311614587575b5050505050614956565b905060026146938761468e336000808c6000191660001916815260200190815260200160002060010180548060200260200160405190810160405280929190818152602001828054801561468457602002820191906000526020600020905b8160009054906101000a900473ffffffffffffffffffffffffffffffffffffffff1673ffffffffffffffffffffffffffffffffffffffff168152602001906001019080831161463a575b5050505050614956565b6111d5565b10151561474b5761474533600080896000191660001916815260200190815260200160002060010180548060200260200160405190810160405280929190818152602001828054801561473b57602002820191906000526020600020905b8160009054906101000a900473ffffffffffffffffffffffffffffffffffffffff1673ffffffffffffffffffffffffffffffffffffffff16815260200190600101908083116146f1575b5050505050614956565b91503390505b81600080886000191660001916815260200190815260200160002060070160006101000a81548173ffffffffffffffffffffffffffffffffffffffff021916908373ffffffffffffffffffffffffffffffffffffffff1602179055507fb20fdc17b0d97be5f2217745aeb7a58d60749f40112a08bb9bb43a404f89aa7482828843604051808573ffffffffffffffffffffffffffffffffffffffff1673ffffffffffffffffffffffffffffffffffffffff1681526020018473ffffffffffffffffffffffffffffffffffffffff1673ffffffffffffffffffffffffffffffffffffffff168152602001836000191660001916815260200182815260200194505050505060405180910390a15b5b5b505050505050565b60006020528060005260406000206000915090508060000160009054906101000a900460ff16908060020154908060030160009054906101000a900460ff16908060040154908060050154908060070160009054906101000a900473ffffffffffffffffffffffffffffffffffffffff16905086565b600080600090505b82518114151561494a578373ffffffffffffffffffffffffffffffffffffffff16838281518110151561490e57fe5b9060200190602002015173ffffffffffffffffffffffffffffffffffffffff16141561493d576001915061494f565b80806001019150506148df565b600091505b5092915050565b600080600090505b8251811415156149e0578373ffffffffffffffffffffffffffffffffffffffff16838281518110151561498d57fe5b9060200190602002015173ffffffffffffffffffffffffffffffffffffffff161415156149d35782818151811015156149c257fe5b9060200190602002015191506149e5565b808060010191505061495e565b600091505b5092915050565b6000808284019050838110151515614a0357600080fd5b8091505092915050565b600080600090505b825181141515614a6a5760008382815181101515614a2f57fe5b9060200190602002015173ffffffffffffffffffffffffffffffffffffffff161415614a5d57809150614a6f565b8080600101915050614a15565b600080fd5b50919050565b610100604051908101604052806000151581526020016060815260200160008019168152602001600015158152602001600081526020016000815260200160608152602001600073ffffffffffffffffffffffffffffffffffffffff1681525090565b828054828255906000526020600020908101928215614b51579160200282015b82811115614b505782518260006101000a81548173ffffffffffffffffffffffffffffffffffffffff021916908373ffffffffffffffffffffffffffffffffffffffff16021790555091602001919060010190614af8565b5b509050614b5e9190614bba565b5090565b815481835581811115614b8957818360005260206000209182019101614b889190614bfd565b5b505050565b815481835581811115614bb557818360005260206000209182019101614bb49190614bfd565b5b505050565b614bfa91905b80821115614bf657600081816101000a81549073ffffffffffffffffffffffffffffffffffffffff021916905550600101614bc0565b5090565b90565b614c1f91905b80821115614c1b576000816000905550600101614c03565b5090565b905600a165627a7a723058202f004b4a3f35b057d502682ac34059ab366a6dfc79115171aa50685da0f8e65e0029",
  "source": "pragma solidity ^0.4.24; // Specify compiler version\r\n\r\ncontract RockPaperScissors {\r\n    using SafeMath for uint256;\r\n\r\n    struct Game {\r\n        bool Initialized; // Game initialized\r\n        address[] Players; // Players in game\r\n        bytes32 InviteCode; // Game invitecode\r\n        bool GameFinished; // Game finished\r\n        uint Block; // Origin block\r\n        uint RoundsPlayed; // Rounds played\r\n        address[] RoundWinners; // Winner of each round\r\n        address Winner;\r\n        mapping(address => uint) Bets; // Bets\r\n        mapping(address => uint[]) Moves; // Moves\r\n        mapping(address => bytes32) Commits; // Commits\r\n        mapping(uint => address) PlayerByMove; // Find player by move\r\n    }\r\n\r\n    event NewGame (\r\n        address FirstPlayer, // Player initializing game\r\n        bytes32 InviteCode, // Game invite code\r\n        uint Block // Origin block\r\n    );\r\n\r\n    event PlayerJoinedGame (\r\n        address Player, // Player joining game\r\n        bytes32 InviteCode, // Game invite code\r\n        uint Block // Origin block\r\n    );\r\n\r\n    event PlayerMadeMove (\r\n        address Player, // Player making move\r\n        uint Move, // move\r\n        bytes32 InviteCode, // Game invite code\r\n        uint Block // Origin block\r\n    );\r\n\r\n    event PlayerMadeBet (\r\n        address Player, // Player making bet\r\n        uint256 Value, // Value of bet\r\n        bytes32 InviteCode, // Game invite code\r\n        uint Block // Origin block\r\n    );\r\n\r\n    event PlayerClaimedBet (\r\n        address Player, // Player claiming bet\r\n        uint256 Value, // Value of bet\r\n        bytes32 InviteCode, // Game invite code\r\n        uint Block // Origin block\r\n    );\r\n\r\n    event PlayerWonRound (\r\n        address WinningPlayer, // Winning player\r\n        address LosingPlayer, // Losing player\r\n        bytes32 InviteCode, // Game invite code\r\n        uint Block // Win block\r\n    );\r\n\r\n    event PlayerWon (\r\n        address WinningPlayer, // Winning player\r\n        address LosingPlayer, // Losing player\r\n        bytes32 InviteCode, // Game invite code\r\n        uint Block // Win block\r\n    );\r\n\r\n    mapping(bytes32 => Game) public Games;\r\n\r\n    function newGame() public returns (bytes32 _inviteCode) {\r\n        address[] memory players = new address[](2); // Initialize array\r\n        address[] memory roundWinners = new address[](3); // Initialize array\r\n\r\n        players[0] = msg.sender; // Append sender to players\r\n\r\n        Game memory game = Game(true, players, keccak256(abi.encodePacked(players, block.number)), false, block.number, 0, roundWinners, 0); // Initialize game\r\n\r\n        Games[game.InviteCode] = game; // Append game to games list\r\n\r\n        emit NewGame(msg.sender, game.InviteCode, block.number); // Emit initialized game\r\n\r\n        return game.InviteCode; // Return invite code\r\n    }\r\n\r\n    function joinGame(bytes32 _inviteCode) public {\r\n        require(Games[_inviteCode].Initialized == true, \"Game does not exist.\"); // Check game exists\r\n        require(Games[_inviteCode].Players[1] == 0, \"Game already full.\"); // Check game isn't full\r\n        require(Games[_inviteCode].RoundsPlayed == 0, \"Game already started.\"); // Check game hasn't already started\r\n\r\n        Games[_inviteCode].Players[emptyIndex(Games[_inviteCode].Players)] = msg.sender; // Set player\r\n\r\n        emit PlayerJoinedGame(msg.sender, _inviteCode, block.number); // Emit joined game\r\n    }\r\n\r\n    function commitMove(bytes32 _inviteCode, bytes32 _encryptedMove) public {\r\n        require(Games[_inviteCode].Initialized == true, \"Game does not exit\"); // Check game exists\r\n        require(Games[_inviteCode].RoundsPlayed != 3, \"Game already finished.\"); // Check game hasn't already ended\r\n        require(isIn(msg.sender, Games[_inviteCode].Players), \"Player not in game.\"); // Check player is in game\r\n        require(Games[_inviteCode].Players[0] != address(0), \"Not enough players.\"); // Check enough players\r\n\r\n        Games[_inviteCode].Commits[msg.sender] = _encryptedMove; // Commit\r\n    }\r\n\r\n    function revealMove(bytes32 _inviteCode, uint _move) public {\r\n        require(Games[_inviteCode].Commits[msg.sender] != 0 && Games[_inviteCode].Commits[otherPlayer(msg.sender, Games[_inviteCode].Players)] != 0, \"Not all players have committed a move yet.\"); // Check committed\r\n        require(keccak256(abi.encodePacked(_move)) == Games[_inviteCode].Commits[msg.sender], \"Invalid move (doesn't match commit)\");\r\n        require(_move > 0 && _move < 4, \"Invalid move\"); // Check for valid move\r\n        require(Games[_inviteCode].Initialized == true, \"Game does not exist.\"); // Check game exists\r\n        require(Games[_inviteCode].RoundsPlayed != 3, \"Game already finished.\"); // Check game hasn't already ended\r\n        require(isIn(msg.sender, Games[_inviteCode].Players), \"Player not in game.\"); // Check player is in game\r\n        require(Games[_inviteCode].Players[0] != address(0), \"Not enough players.\"); // Check enough players\r\n        require(Games[_inviteCode].Moves[msg.sender].length <= Games[_inviteCode].Moves[otherPlayer(msg.sender, Games[_inviteCode].Players)].length, \"Other player hasn't moved yet.\"); // Check other player moved\r\n\r\n        Games[_inviteCode].Moves[msg.sender].length++; // Increment capacity\r\n        Games[_inviteCode].Moves[msg.sender][Games[_inviteCode].RoundsPlayed] = _move; // Append move\r\n        Games[_inviteCode].PlayerByMove[Games[_inviteCode].RoundsPlayed.add(_move)] = msg.sender; // Set player by move\r\n\r\n        emit PlayerMadeMove(msg.sender, _move, _inviteCode, block.number); // Emit made move\r\n\r\n        if (Games[_inviteCode].Moves[msg.sender].length == Games[_inviteCode].Moves[otherPlayer(msg.sender, Games[_inviteCode].Players)].length) {\r\n            uint PlayerOneMove = Games[_inviteCode].Moves[msg.sender][Games[_inviteCode].RoundsPlayed]; // Fetch sender move\r\n            uint OtherPlayerMove = Games[_inviteCode].Moves[otherPlayer(msg.sender, Games[_inviteCode].Players)][Games[_inviteCode].RoundsPlayed]; // Fetch other player move\r\n\r\n            if (PlayerOneMove != OtherPlayerMove) { // Check didn't make same move\r\n                Games[_inviteCode].RoundWinners.length++; // Increment capacity\r\n\r\n                if (PlayerOneMove == 1 || OtherPlayerMove == 1) { // Check for rock\r\n                    if (PlayerOneMove == 3 || OtherPlayerMove == 3) { // Check for scissors\r\n                        Games[_inviteCode].RoundWinners[Games[_inviteCode].RoundsPlayed] = Games[_inviteCode].PlayerByMove[Games[_inviteCode].RoundsPlayed.add(1)]; // Add score\r\n\r\n                        emit PlayerWonRound(Games[_inviteCode].PlayerByMove[Games[_inviteCode].RoundsPlayed.add(1)], otherPlayer(Games[_inviteCode].PlayerByMove[Games[_inviteCode].RoundsPlayed.add(1)], Games[_inviteCode].Players), _inviteCode, block.number);\r\n                    } else if (PlayerOneMove == 2 || OtherPlayerMove == 2) { // Check for paper\r\n                        Games[_inviteCode].RoundWinners[Games[_inviteCode].RoundsPlayed] = Games[_inviteCode].PlayerByMove[Games[_inviteCode].RoundsPlayed.add(2)]; // Add score\r\n\r\n                        emit PlayerWonRound(Games[_inviteCode].PlayerByMove[Games[_inviteCode].RoundsPlayed.add(2)], otherPlayer(Games[_inviteCode].PlayerByMove[Games[_inviteCode].RoundsPlayed.add(2)], Games[_inviteCode].Players), _inviteCode, block.number);\r\n                    }\r\n                } else if (PlayerOneMove == 2 || OtherPlayerMove == 2) { // Check for paper\r\n                    if (PlayerOneMove == 1 || OtherPlayerMove == 1) {\r\n                        Games[_inviteCode].RoundWinners[Games[_inviteCode].RoundsPlayed] = Games[_inviteCode].PlayerByMove[Games[_inviteCode].RoundsPlayed.add(2)]; // Add score\r\n\r\n                        emit PlayerWonRound(Games[_inviteCode].PlayerByMove[Games[_inviteCode].RoundsPlayed.add(2)], otherPlayer(Games[_inviteCode].PlayerByMove[Games[_inviteCode].RoundsPlayed.add(2)], Games[_inviteCode].Players), _inviteCode, block.number);\r\n                    } else if (PlayerOneMove == 3 || OtherPlayerMove == 3) {\r\n                        Games[_inviteCode].RoundWinners[Games[_inviteCode].RoundsPlayed] = Games[_inviteCode].PlayerByMove[Games[_inviteCode].RoundsPlayed.add(3)]; // Add score\r\n\r\n                        emit PlayerWonRound(Games[_inviteCode].PlayerByMove[Games[_inviteCode].RoundsPlayed.add(3)], otherPlayer(Games[_inviteCode].PlayerByMove[Games[_inviteCode].RoundsPlayed.add(3)], Games[_inviteCode].Players), _inviteCode, block.number);\r\n                    }\r\n\r\n                    Games[_inviteCode].RoundWinners[Games[_inviteCode].RoundsPlayed] = Games[_inviteCode].PlayerByMove[Games[_inviteCode].RoundsPlayed.add(2)]; // Add score\r\n\r\n                    emit PlayerWonRound(Games[_inviteCode].PlayerByMove[Games[_inviteCode].RoundsPlayed.add(2)], otherPlayer(Games[_inviteCode].PlayerByMove[Games[_inviteCode].RoundsPlayed.add(2)], Games[_inviteCode].Players), _inviteCode, block.number);\r\n                } else if (PlayerOneMove == 3 || OtherPlayerMove == 3) { // Check for scissors\r\n                    if (PlayerOneMove == 2 || OtherPlayerMove == 2) {\r\n                        Games[_inviteCode].RoundWinners[Games[_inviteCode].RoundsPlayed] = Games[_inviteCode].PlayerByMove[Games[_inviteCode].RoundsPlayed.add(3)]; // Add score\r\n\r\n                        emit PlayerWonRound(Games[_inviteCode].PlayerByMove[Games[_inviteCode].RoundsPlayed.add(3)], otherPlayer(Games[_inviteCode].PlayerByMove[Games[_inviteCode].RoundsPlayed.add(3)], Games[_inviteCode].Players), _inviteCode, block.number);\r\n                    } else if (PlayerOneMove == 1 || OtherPlayerMove == 1) {\r\n                        Games[_inviteCode].RoundWinners[Games[_inviteCode].RoundsPlayed] = Games[_inviteCode].PlayerByMove[Games[_inviteCode].RoundsPlayed.add(1)]; // Add score\r\n\r\n                        emit PlayerWonRound(Games[_inviteCode].PlayerByMove[Games[_inviteCode].RoundsPlayed.add(1)], otherPlayer(Games[_inviteCode].PlayerByMove[Games[_inviteCode].RoundsPlayed.add(1)], Games[_inviteCode].Players), _inviteCode, block.number);\r\n                    }\r\n\r\n                    Games[_inviteCode].RoundWinners[Games[_inviteCode].RoundsPlayed] = Games[_inviteCode].PlayerByMove[Games[_inviteCode].RoundsPlayed.add(3)]; // Add score\r\n\r\n                    emit PlayerWonRound(Games[_inviteCode].PlayerByMove[Games[_inviteCode].RoundsPlayed.add(3)], otherPlayer(Games[_inviteCode].PlayerByMove[Games[_inviteCode].RoundsPlayed.add(3)], Games[_inviteCode].Players), _inviteCode, block.number);\r\n                }\r\n\r\n                Games[_inviteCode].RoundsPlayed++; // Increment rounds played\r\n\r\n                if (Games[_inviteCode].RoundsPlayed == 3) { // Check if game finished\r\n                    address winner = msg.sender; // Default\r\n                    address loser = otherPlayer(msg.sender, Games[_inviteCode].Players);\r\n\r\n                    if (winCount(_inviteCode, otherPlayer(msg.sender, Games[_inviteCode].Players)) >= 2) { // Check who won\r\n                        winner = otherPlayer(msg.sender, Games[_inviteCode].Players); // Set winner address\r\n                        loser = msg.sender; // Set loser\r\n                    }\r\n\r\n                    Games[_inviteCode].Winner = winner; // Set winner\r\n\r\n                    emit PlayerWon(winner, loser, _inviteCode, block.number); // Emit player won\r\n                }\r\n            }\r\n        }\r\n    }\r\n\r\n    function bet(bytes32 _inviteCode) public payable {\r\n        require(Games[_inviteCode].Initialized == true, \"Game does not exist.\"); // Check game exists\r\n        require(Games[_inviteCode].RoundsPlayed == 0, \"Game already started.\"); // Check game hasn't already started\r\n        require(isIn(msg.sender, Games[_inviteCode].Players), \"Player not in game.\"); // Check player is in game\r\n\r\n        Games[_inviteCode].Bets[msg.sender] += msg.value; // Add bet\r\n\r\n        emit PlayerMadeBet(msg.sender, msg.value, _inviteCode, block.number); // Emit made bet\r\n    }\r\n\r\n    function claimBet(bytes32 _inviteCode) public {\r\n        require(Games[_inviteCode].Initialized == true, \"Game does not exist.\"); // Check game exists\r\n        require(Games[_inviteCode].RoundsPlayed == 3, \"Game hasn't finished.\"); // Check game hasn't already started\r\n        require(isIn(msg.sender, Games[_inviteCode].Players), \"Player not in game.\"); // Check player is in game\r\n        require(Games[_inviteCode].Winner == msg.sender, \"Player didn't win game.\"); // Check won game\r\n\r\n        uint256 betVal = Games[_inviteCode].Bets[msg.sender].add(Games[_inviteCode].Bets[otherPlayer(msg.sender, Games[_inviteCode].Players)]); // Calculate reward\r\n\r\n        Games[_inviteCode].Bets[otherPlayer(msg.sender, Games[_inviteCode].Players)] = 0; // Reset bet balance\r\n        Games[_inviteCode].Bets[msg.sender] = 0; // Reset bet balance\r\n\r\n        msg.sender.transfer(betVal); // Send wager\r\n\r\n        emit PlayerClaimedBet(msg.sender, Games[_inviteCode].Bets[msg.sender].add(Games[_inviteCode].Bets[otherPlayer(msg.sender, Games[_inviteCode].Players)]), _inviteCode, block.number); // Emit claimed bet\r\n    }\r\n\r\n    function winCount(bytes32 _inviteCode, address _address) view public returns (uint _winCount) {\r\n        uint z = 0; // Set wins iterator\r\n        \r\n        for (uint x = 0; x != 3; x++) { // Iterate through wins\r\n            if (Games[_inviteCode].RoundWinners[x] == _address) { // Check won round\r\n                z++; // Increment win count\r\n            }\r\n        }\r\n\r\n        return z; // Return win count\r\n    }\r\n\r\n    function otherPlayer(address _value, address[] _array) pure internal returns (address _address) {\r\n        for (uint x = 0; x != _array.length; x++) {\r\n            if (_array[x] != _value) {\r\n                return _array[x]; // Found value\r\n            }\r\n        }\r\n\r\n        return 0; // Reached end of array\r\n    }\r\n\r\n    function isIn(address _value, address[] _array) pure internal returns (bool _isIn) {\r\n        for (uint x = 0; x != _array.length; x++) {\r\n            if (_array[x] == _value) {\r\n                return true; // Found value\r\n            }\r\n        }\r\n\r\n        return false; // Reached end of array\r\n    }\r\n\r\n    function emptyIndex(address[] _array) pure internal returns (uint _emptyIndex) {\r\n        for (uint x = 0; x != _array.length; x++) {\r\n            if (_array[x] == 0) {\r\n                return x; // Found index\r\n            }\r\n        }\r\n\r\n        revert(); // Reached end of array\r\n    }\r\n}\r\n\r\n/**\r\n * @title SafeMath\r\n * @dev Math operations with safety checks that revert on error\r\n */\r\nlibrary SafeMath {\r\n\r\n    /**\r\n    * @dev Multiplies two numbers, reverts on overflow.\r\n    */\r\n    function mul(uint256 a, uint256 b) internal pure returns (uint256) {\r\n        // Gas optimization: this is cheaper than requiring 'a' not being zero, but the\r\n        // benefit is lost if 'b' is also tested.\r\n        // See: https://github.com/OpenZeppelin/openzeppelin-solidity/pull/522\r\n        if (a == 0) {\r\n        return 0;\r\n        }\r\n\r\n        uint256 c = a * b;\r\n        require(c / a == b);\r\n\r\n        return c;\r\n    }\r\n\r\n    /**\r\n    * @dev Integer division of two numbers truncating the quotient, reverts on division by zero.\r\n    */\r\n    function div(uint256 a, uint256 b) internal pure returns (uint256) {\r\n        require(b > 0); // Solidity only automatically asserts when dividing by 0\r\n        uint256 c = a / b;\r\n        // assert(a == b * c + a % b); // There is no case in which this doesn't hold\r\n\r\n        return c;\r\n    }\r\n\r\n    /**\r\n    * @dev Subtracts two numbers, reverts on overflow (i.e. if subtrahend is greater than minuend).\r\n    */\r\n    function sub(uint256 a, uint256 b) internal pure returns (uint256) {\r\n        require(b <= a);\r\n        uint256 c = a - b;\r\n\r\n        return c;\r\n    }\r\n\r\n    /**\r\n    * @dev Adds two numbers, reverts on overflow.\r\n    */\r\n    function add(uint256 a, uint256 b) internal pure returns (uint256) {\r\n        uint256 c = a + b;\r\n        require(c >= a);\r\n\r\n        return c;\r\n    }\r\n\r\n    /**\r\n    * @dev Divides two numbers and returns the remainder (unsigned integer modulo),\r\n    * reverts when dividing by zero.\r\n    */\r\n    function mod(uint256 a, uint256 b) internal pure returns (uint256) {\r\n        require(b != 0);\r\n        return a % b;\r\n    }\r\n}",
  "sourcePath": "R:\\B9Lab-Assignments\\RockPaperScissors\\contracts\\RockPaperScissors.sol",
  "compiler": {
    "name": "solc",
    "version": "0.4.24+commit.e67f0147.Emscripten.clang"
  },
  "schemaVersion": "2.0.1",
  "updatedAt": "2018-10-09T23:42:06.910Z"
}