{
  "contractName": "RockPaperScissors",
  "abi": [
    {
      "constant": true,
      "inputs": [
        {
          "name": "",
          "type": "bytes32"
        }
      ],
      "name": "Games",
      "outputs": [
        {
          "name": "Initialized",
          "type": "bool"
        },
        {
          "name": "InviteCode",
          "type": "bytes32"
        },
        {
          "name": "GameFinished",
          "type": "bool"
        },
        {
          "name": "Block",
          "type": "uint256"
        },
        {
          "name": "RoundsPlayed",
          "type": "uint256"
        },
        {
          "name": "Winner",
          "type": "address"
        }
      ],
      "payable": false,
      "stateMutability": "view",
      "type": "function"
    },
    {
      "anonymous": false,
      "inputs": [
        {
          "indexed": false,
          "name": "FirstPlayer",
          "type": "address"
        },
        {
          "indexed": false,
          "name": "InviteCode",
          "type": "bytes32"
        },
        {
          "indexed": false,
          "name": "Block",
          "type": "uint256"
        }
      ],
      "name": "NewGame",
      "type": "event"
    },
    {
      "anonymous": false,
      "inputs": [
        {
          "indexed": false,
          "name": "Player",
          "type": "address"
        },
        {
          "indexed": false,
          "name": "InviteCode",
          "type": "bytes32"
        },
        {
          "indexed": false,
          "name": "Block",
          "type": "uint256"
        }
      ],
      "name": "PlayerJoinedGame",
      "type": "event"
    },
    {
      "anonymous": false,
      "inputs": [
        {
          "indexed": false,
          "name": "Player",
          "type": "address"
        },
        {
          "indexed": false,
          "name": "Move",
          "type": "uint256"
        },
        {
          "indexed": false,
          "name": "InviteCode",
          "type": "bytes32"
        },
        {
          "indexed": false,
          "name": "Block",
          "type": "uint256"
        }
      ],
      "name": "PlayerMadeMove",
      "type": "event"
    },
    {
      "anonymous": false,
      "inputs": [
        {
          "indexed": false,
          "name": "Player",
          "type": "address"
        },
        {
          "indexed": false,
          "name": "Value",
          "type": "uint256"
        },
        {
          "indexed": false,
          "name": "InviteCode",
          "type": "bytes32"
        },
        {
          "indexed": false,
          "name": "Block",
          "type": "uint256"
        }
      ],
      "name": "PlayerMadeBet",
      "type": "event"
    },
    {
      "anonymous": false,
      "inputs": [
        {
          "indexed": false,
          "name": "Player",
          "type": "address"
        },
        {
          "indexed": false,
          "name": "Value",
          "type": "uint256"
        },
        {
          "indexed": false,
          "name": "InviteCode",
          "type": "bytes32"
        },
        {
          "indexed": false,
          "name": "Block",
          "type": "uint256"
        }
      ],
      "name": "PlayerClaimedBet",
      "type": "event"
    },
    {
      "anonymous": false,
      "inputs": [
        {
          "indexed": false,
          "name": "WinningPlayer",
          "type": "address"
        },
        {
          "indexed": false,
          "name": "LosingPlayer",
          "type": "address"
        },
        {
          "indexed": false,
          "name": "InviteCode",
          "type": "bytes32"
        },
        {
          "indexed": false,
          "name": "Block",
          "type": "uint256"
        }
      ],
      "name": "PlayerWonRound",
      "type": "event"
    },
    {
      "anonymous": false,
      "inputs": [
        {
          "indexed": false,
          "name": "WinningPlayer",
          "type": "address"
        },
        {
          "indexed": false,
          "name": "LosingPlayer",
          "type": "address"
        },
        {
          "indexed": false,
          "name": "InviteCode",
          "type": "bytes32"
        },
        {
          "indexed": false,
          "name": "Block",
          "type": "uint256"
        }
      ],
      "name": "PlayerWon",
      "type": "event"
    },
    {
      "constant": false,
      "inputs": [],
      "name": "newGame",
      "outputs": [
        {
          "name": "_inviteCode",
          "type": "bytes32"
        }
      ],
      "payable": false,
      "stateMutability": "nonpayable",
      "type": "function"
    },
    {
      "constant": false,
      "inputs": [
        {
          "name": "_inviteCode",
          "type": "bytes32"
        }
      ],
      "name": "joinGame",
      "outputs": [],
      "payable": false,
      "stateMutability": "nonpayable",
      "type": "function"
    },
    {
      "constant": false,
      "inputs": [
        {
          "name": "_inviteCode",
          "type": "bytes32"
        },
        {
          "name": "_encryptedMove",
          "type": "bytes32"
        }
      ],
      "name": "commitMove",
      "outputs": [],
      "payable": false,
      "stateMutability": "nonpayable",
      "type": "function"
    },
    {
      "constant": false,
      "inputs": [
        {
          "name": "_inviteCode",
          "type": "bytes32"
        },
        {
          "name": "_move",
          "type": "uint256"
        },
        {
          "name": "_privateKey",
          "type": "bytes32"
        }
      ],
      "name": "revealMove",
      "outputs": [],
      "payable": false,
      "stateMutability": "nonpayable",
      "type": "function"
    },
    {
      "constant": false,
      "inputs": [
        {
          "name": "_inviteCode",
          "type": "bytes32"
        }
      ],
      "name": "bet",
      "outputs": [],
      "payable": true,
      "stateMutability": "payable",
      "type": "function"
    },
    {
      "constant": false,
      "inputs": [
        {
          "name": "_inviteCode",
          "type": "bytes32"
        }
      ],
      "name": "claimBet",
      "outputs": [],
      "payable": false,
      "stateMutability": "nonpayable",
      "type": "function"
    },
    {
      "constant": true,
      "inputs": [
        {
          "name": "_inviteCode",
          "type": "bytes32"
        },
        {
          "name": "_address",
          "type": "address"
        }
      ],
      "name": "winCount",
      "outputs": [
        {
          "name": "_winCount",
          "type": "uint256"
        }
      ],
      "payable": false,
      "stateMutability": "view",
      "type": "function"
    }
  ],
  "bytecode": "0x608060405234801561001057600080fd5b50614c6d806100206000396000f30060806040526004361061008e576000357c0100000000000000000000000000000000000000000000000000000000900463ffffffff168063177413da1461009357806322cd5ea8146100b75780637d03f5f3146100e8578063a72408d21461011b578063af2768ec14610180578063bf474766146101bf578063e8d2e78b146101f0578063f89ca00114610294575b600080fd5b6100b560048036038101908080356000191690602001909291905050506102dd565b005b3480156100c357600080fd5b506100e66004803603810190808035600019169060200190929190505050610625565b005b3480156100f457600080fd5b506100fd610e7c565b60405180826000191660001916815260200191505060405180910390f35b34801561012757600080fd5b5061016a6004803603810190808035600019169060200190929190803573ffffffffffffffffffffffffffffffffffffffff1690602001909291905050506111e3565b6040518082815260200191505060405180910390f35b34801561018c57600080fd5b506101bd600480360381019080803560001916906020019092919080356000191690602001909291905050506112a3565b005b3480156101cb57600080fd5b506101ee600480360381019080803560001916906020019092919050505061165f565b005b3480156101fc57600080fd5b5061021f6004803603810190808035600019169060200190929190505050611a17565b60405180871515151581526020018660001916600019168152602001851515151581526020018481526020018381526020018273ffffffffffffffffffffffffffffffffffffffff1673ffffffffffffffffffffffffffffffffffffffff168152602001965050505050505060405180910390f35b3480156102a057600080fd5b506102db6004803603810190808035600019169060200190929190803590602001909291908035600019169060200190929190505050611a8d565b005b60011515600080836000191660001916815260200190815260200160002060000160009054906101000a900460ff161515141515610383576040517f08c379a00000000000000000000000000000000000000000000000000000000081526004018080602001828103825260148152602001807f47616d6520646f6573206e6f742065786973742e00000000000000000000000081525060200191505060405180910390fd5b6000806000836000191660001916815260200190815260200160002060050154141515610418576040517f08c379a00000000000000000000000000000000000000000000000000000000081526004018080602001828103825260158152602001807f47616d6520616c726561647920737461727465642e000000000000000000000081525060200191505060405180910390fd5b6104c33360008084600019166000191681526020019081526020016000206001018054806020026020016040519081016040528092919081815260200182805480156104b957602002820191906000526020600020905b8160009054906101000a900473ffffffffffffffffffffffffffffffffffffffff1673ffffffffffffffffffffffffffffffffffffffff168152602001906001019080831161046f575b50505050506148f6565b1515610537576040517f08c379a00000000000000000000000000000000000000000000000000000000081526004018080602001828103825260138152602001807f506c61796572206e6f7420696e2067616d652e0000000000000000000000000081525060200191505060405180910390fd5b34600080836000191660001916815260200190815260200160002060080160003373ffffffffffffffffffffffffffffffffffffffff1673ffffffffffffffffffffffffffffffffffffffff168152602001908152602001600020600082825401925050819055507fb261f7e3c46b898f28fa63832cfac6b7aa325d9327d1d9ef2769da3f642b377433348343604051808573ffffffffffffffffffffffffffffffffffffffff1673ffffffffffffffffffffffffffffffffffffffff168152602001848152602001836000191660001916815260200182815260200194505050505060405180910390a150565b600060011515600080846000191660001916815260200190815260200160002060000160009054906101000a900460ff1615151415156106cd576040517f08c379a00000000000000000000000000000000000000000000000000000000081526004018080602001828103825260148152602001807f47616d6520646f6573206e6f742065786973742e00000000000000000000000081525060200191505060405180910390fd5b6003600080846000191660001916815260200190815260200160002060050154141515610762576040517f08c379a00000000000000000000000000000000000000000000000000000000081526004018080602001828103825260158152602001807f47616d65206861736e27742066696e69736865642e000000000000000000000081525060200191505060405180910390fd5b61080d33600080856000191660001916815260200190815260200160002060010180548060200260200160405190810160405280929190818152602001828054801561080357602002820191906000526020600020905b8160009054906101000a900473ffffffffffffffffffffffffffffffffffffffff1673ffffffffffffffffffffffffffffffffffffffff16815260200190600101908083116107b9575b50505050506148f6565b1515610881576040517f08c379a00000000000000000000000000000000000000000000000000000000081526004018080602001828103825260138152602001807f506c61796572206e6f7420696e2067616d652e0000000000000000000000000081525060200191505060405180910390fd5b3373ffffffffffffffffffffffffffffffffffffffff16600080846000191660001916815260200190815260200160002060070160009054906101000a900473ffffffffffffffffffffffffffffffffffffffff1673ffffffffffffffffffffffffffffffffffffffff16141515610961576040517f08c379a00000000000000000000000000000000000000000000000000000000081526004018080602001828103825260178152602001807f506c61796572206469646e27742077696e2067616d652e00000000000000000081525060200191505060405180910390fd5b610ad260008084600019166000191681526020019081526020016000206008016000610a2e336000808860001916600019168152602001908152602001600020600101805480602002602001604051908101604052809291908181526020018280548015610a2457602002820191906000526020600020905b8160009054906101000a900473ffffffffffffffffffffffffffffffffffffffff1673ffffffffffffffffffffffffffffffffffffffff16815260200190600101908083116109da575b5050505050614975565b73ffffffffffffffffffffffffffffffffffffffff1673ffffffffffffffffffffffffffffffffffffffff16815260200190815260200160002054600080856000191660001916815260200190815260200160002060080160003373ffffffffffffffffffffffffffffffffffffffff1673ffffffffffffffffffffffffffffffffffffffff16815260200190815260200160002054614a0b90919063ffffffff16565b9050600080600084600019166000191681526020019081526020016000206008016000610ba0336000808860001916600019168152602001908152602001600020600101805480602002602001604051908101604052809291908181526020018280548015610b9657602002820191906000526020600020905b8160009054906101000a900473ffffffffffffffffffffffffffffffffffffffff1673ffffffffffffffffffffffffffffffffffffffff1681526020019060010190808311610b4c575b5050505050614975565b73ffffffffffffffffffffffffffffffffffffffff1673ffffffffffffffffffffffffffffffffffffffff168152602001908152602001600020819055506000806000846000191660001916815260200190815260200160002060080160003373ffffffffffffffffffffffffffffffffffffffff1673ffffffffffffffffffffffffffffffffffffffff168152602001908152602001600020819055503373ffffffffffffffffffffffffffffffffffffffff166108fc829081150290604051600060405180830381858888f19350505050158015610c84573d6000803e3d6000fd5b507f49b9eccd8c556ec199a811793a0c33d24bc8f1aba9fc577b7d2fcde053801dea33610e1860008086600019166000191681526020019081526020016000206008016000610d74336000808a60001916600019168152602001908152602001600020600101805480602002602001604051908101604052809291908181526020018280548015610d6a57602002820191906000526020600020905b8160009054906101000a900473ffffffffffffffffffffffffffffffffffffffff1673ffffffffffffffffffffffffffffffffffffffff1681526020019060010190808311610d20575b5050505050614975565b73ffffffffffffffffffffffffffffffffffffffff1673ffffffffffffffffffffffffffffffffffffffff16815260200190815260200160002054600080876000191660001916815260200190815260200160002060080160003373ffffffffffffffffffffffffffffffffffffffff1673ffffffffffffffffffffffffffffffffffffffff16815260200190815260200160002054614a0b90919063ffffffff16565b8443604051808573ffffffffffffffffffffffffffffffffffffffff1673ffffffffffffffffffffffffffffffffffffffff168152602001848152602001836000191660001916815260200182815260200194505050505060405180910390a15050565b6000606080610e89614a94565b6002604051908082528060200260200182016040528015610eb95781602001602082028038833980820191505090505b5092506003604051908082528060200260200182016040528015610eec5781602001602082028038833980820191505090505b50915033836000815181101515610eff57fe5b9060200190602002019073ffffffffffffffffffffffffffffffffffffffff16908173ffffffffffffffffffffffffffffffffffffffff168152505061010060405190810160405280600115158152602001848152602001844360405160200180838051906020019060200280838360005b83811015610f8c578082015181840152602081019050610f71565b50505050905001828152602001925050506040516020818303038152906040526040518082805190602001908083835b602083101515610fe15780518252602082019150602081019050602083039250610fbc565b6001836020036101000a038019825116818451168082178552505050505050905001915050604051809103902060001916815260200160001515815260200143815260200160008152602001838152602001600073ffffffffffffffffffffffffffffffffffffffff1681525090508060008083604001516000191660001916815260200190815260200160002060008201518160000160006101000a81548160ff02191690831515021790555060208201518160010190805190602001906110ab929190614af7565b506040820151816002019060001916905560608201518160030160006101000a81548160ff0219169083151502179055506080820151816004015560a0820151816005015560c082015181600601908051906020019061110c929190614af7565b5060e08201518160070160006101000a81548173ffffffffffffffffffffffffffffffffffffffff021916908373ffffffffffffffffffffffffffffffffffffffff1602179055509050507f3d6c02e74ba05913874ba8d477497510df840bf93bfa5a2a8d8943766678a0e333826040015143604051808473ffffffffffffffffffffffffffffffffffffffff1673ffffffffffffffffffffffffffffffffffffffff1681526020018360001916600019168152602001828152602001935050505060405180910390a18060400151935050505090565b6000806000809150600090505b600381141515611298578373ffffffffffffffffffffffffffffffffffffffff1660008087600019166000191681526020019081526020016000206006018281548110151561123b57fe5b9060005260206000200160009054906101000a900473ffffffffffffffffffffffffffffffffffffffff1673ffffffffffffffffffffffffffffffffffffffff16141561128b5781806001019250505b80806001019150506111f0565b819250505092915050565b60011515600080846000191660001916815260200190815260200160002060000160009054906101000a900460ff161515141515611349576040517f08c379a00000000000000000000000000000000000000000000000000000000081526004018080602001828103825260128152602001807f47616d6520646f6573206e6f742065786974000000000000000000000000000081525060200191505060405180910390fd5b6003600080846000191660001916815260200190815260200160002060050154141515156113df576040517f08c379a00000000000000000000000000000000000000000000000000000000081526004018080602001828103825260168152602001807f47616d6520616c72656164792066696e69736865642e0000000000000000000081525060200191505060405180910390fd5b61148a33600080856000191660001916815260200190815260200160002060010180548060200260200160405190810160405280929190818152602001828054801561148057602002820191906000526020600020905b8160009054906101000a900473ffffffffffffffffffffffffffffffffffffffff1673ffffffffffffffffffffffffffffffffffffffff1681526020019060010190808311611436575b50505050506148f6565b15156114fe576040517f08c379a00000000000000000000000000000000000000000000000000000000081526004018080602001828103825260138152602001807f506c61796572206e6f7420696e2067616d652e0000000000000000000000000081525060200191505060405180910390fd5b600073ffffffffffffffffffffffffffffffffffffffff166000808460001916600019168152602001908152602001600020600101600081548110151561154157fe5b9060005260206000200160009054906101000a900473ffffffffffffffffffffffffffffffffffffffff1673ffffffffffffffffffffffffffffffffffffffff16141515156115f8576040517f08c379a00000000000000000000000000000000000000000000000000000000081526004018080602001828103825260138152602001807f4e6f7420656e6f75676820706c61796572732e0000000000000000000000000081525060200191505060405180910390fd5b806000808460001916600019168152602001908152602001600020600a0160003373ffffffffffffffffffffffffffffffffffffffff1673ffffffffffffffffffffffffffffffffffffffff16815260200190815260200160002081600019169055505050565b60011515600080836000191660001916815260200190815260200160002060000160009054906101000a900460ff161515141515611705576040517f08c379a00000000000000000000000000000000000000000000000000000000081526004018080602001828103825260148152602001807f47616d6520646f6573206e6f742065786973742e00000000000000000000000081525060200191505060405180910390fd5b60008060008360001916600019168152602001908152602001600020600101600181548110151561173257fe5b9060005260206000200160009054906101000a900473ffffffffffffffffffffffffffffffffffffffff1673ffffffffffffffffffffffffffffffffffffffff161415156117e8576040517f08c379a00000000000000000000000000000000000000000000000000000000081526004018080602001828103825260128152602001807f47616d6520616c72656164792066756c6c2e000000000000000000000000000081525060200191505060405180910390fd5b600080600083600019166000191681526020019081526020016000206005015414151561187d576040517f08c379a00000000000000000000000000000000000000000000000000000000081526004018080602001828103825260158152602001807f47616d6520616c726561647920737461727465642e000000000000000000000081525060200191505060405180910390fd5b336000808360001916600019168152602001908152602001600020600101611945600080856000191660001916815260200190815260200160002060010180548060200260200160405190810160405280929190818152602001828054801561193b57602002820191906000526020600020905b8160009054906101000a900473ffffffffffffffffffffffffffffffffffffffff1673ffffffffffffffffffffffffffffffffffffffff16815260200190600101908083116118f1575b5050505050614a2c565b81548110151561195157fe5b9060005260206000200160006101000a81548173ffffffffffffffffffffffffffffffffffffffff021916908373ffffffffffffffffffffffffffffffffffffffff1602179055507feb9863b2d0818b8590f0108ccbd30a1b74b21f32ba6533329df1aeb0d52ee775338243604051808473ffffffffffffffffffffffffffffffffffffffff1673ffffffffffffffffffffffffffffffffffffffff1681526020018360001916600019168152602001828152602001935050505060405180910390a150565b60006020528060005260406000206000915090508060000160009054906101000a900460ff16908060020154908060030160009054906101000a900460ff16908060040154908060050154908060070160009054906101000a900473ffffffffffffffffffffffffffffffffffffffff16905086565b60008060008060006001026000808960001916600019168152602001908152602001600020600a0160003373ffffffffffffffffffffffffffffffffffffffff1673ffffffffffffffffffffffffffffffffffffffff168152602001908152602001600020546000191614158015611c11575060006001026000808960001916600019168152602001908152602001600020600a016000611bcf336000808d60001916600019168152602001908152602001600020600101805480602002602001604051908101604052809291908181526020018280548015611bc557602002820191906000526020600020905b8160009054906101000a900473ffffffffffffffffffffffffffffffffffffffff1673ffffffffffffffffffffffffffffffffffffffff1681526020019060010190808311611b7b575b5050505050614975565b73ffffffffffffffffffffffffffffffffffffffff1673ffffffffffffffffffffffffffffffffffffffff168152602001908152602001600020546000191614155b1515611cab576040517f08c379a000000000000000000000000000000000000000000000000000000000815260040180806020018281038252602a8152602001807f4e6f7420616c6c20706c6179657273206861766520636f6d6d6974746564206181526020017f206d6f7665207965742e0000000000000000000000000000000000000000000081525060400191505060405180910390fd5b6000808860001916600019168152602001908152602001600020600a0160003373ffffffffffffffffffffffffffffffffffffffff1673ffffffffffffffffffffffffffffffffffffffff16815260200190815260200160002054600019168686604051602001808381526020018260001916600019168152602001925050506040516020818303038152906040526040518082805190602001908083835b602083101515611d6f5780518252602082019150602081019050602083039250611d4a565b6001836020036101000a038019825116818451168082178552505050505050905001915050604051809103902060001916141515611e3b576040517f08c379a00000000000000000000000000000000000000000000000000000000081526004018080602001828103825260238152602001807f496e76616c6964206d6f76652028646f65736e2774206d6174636820636f6d6d81526020017f697429000000000000000000000000000000000000000000000000000000000081525060400191505060405180910390fd5b600086118015611e4b5750600486105b1515611ebf576040517f08c379a000000000000000000000000000000000000000000000000000000000815260040180806020018281038252600c8152602001807f496e76616c6964206d6f7665000000000000000000000000000000000000000081525060200191505060405180910390fd5b60011515600080896000191660001916815260200190815260200160002060000160009054906101000a900460ff161515141515611f65576040517f08c379a00000000000000000000000000000000000000000000000000000000081526004018080602001828103825260148152602001807f47616d6520646f6573206e6f742065786973742e00000000000000000000000081525060200191505060405180910390fd5b600360008089600019166000191681526020019081526020016000206005015414151515611ffb576040517f08c379a00000000000000000000000000000000000000000000000000000000081526004018080602001828103825260168152602001807f47616d6520616c72656164792066696e69736865642e0000000000000000000081525060200191505060405180910390fd5b6120a6336000808a6000191660001916815260200190815260200160002060010180548060200260200160405190810160405280929190818152602001828054801561209c57602002820191906000526020600020905b8160009054906101000a900473ffffffffffffffffffffffffffffffffffffffff1673ffffffffffffffffffffffffffffffffffffffff1681526020019060010190808311612052575b50505050506148f6565b151561211a576040517f08c379a00000000000000000000000000000000000000000000000000000000081526004018080602001828103825260138152602001807f506c61796572206e6f7420696e2067616d652e0000000000000000000000000081525060200191505060405180910390fd5b600073ffffffffffffffffffffffffffffffffffffffff166000808960001916600019168152602001908152602001600020600101600081548110151561215d57fe5b9060005260206000200160009054906101000a900473ffffffffffffffffffffffffffffffffffffffff1673ffffffffffffffffffffffffffffffffffffffff1614151515612214576040517f08c379a00000000000000000000000000000000000000000000000000000000081526004018080602001828103825260138152602001807f4e6f7420656e6f75676820706c61796572732e0000000000000000000000000081525060200191505060405180910390fd5b600080886000191660001916815260200190815260200160002060090160006122de336000808c600019166000191681526020019081526020016000206001018054806020026020016040519081016040528092919081815260200182805480156122d457602002820191906000526020600020905b8160009054906101000a900473ffffffffffffffffffffffffffffffffffffffff1673ffffffffffffffffffffffffffffffffffffffff168152602001906001019080831161228a575b5050505050614975565b73ffffffffffffffffffffffffffffffffffffffff1673ffffffffffffffffffffffffffffffffffffffff16815260200190815260200160002080549050600080896000191660001916815260200190815260200160002060090160003373ffffffffffffffffffffffffffffffffffffffff1673ffffffffffffffffffffffffffffffffffffffff16815260200190815260200160002080549050111515156123f0576040517f08c379a000000000000000000000000000000000000000000000000000000000815260040180806020018281038252601e8152602001807f4f7468657220706c61796572206861736e2774206d6f766564207965742e000081525060200191505060405180910390fd5b600080886000191660001916815260200190815260200160002060090160003373ffffffffffffffffffffffffffffffffffffffff1673ffffffffffffffffffffffffffffffffffffffff168152602001908152602001600020805480919060010161245c9190614b81565b5085600080896000191660001916815260200190815260200160002060090160003373ffffffffffffffffffffffffffffffffffffffff1673ffffffffffffffffffffffffffffffffffffffff1681526020019081526020016000206000808a60001916600019168152602001908152602001600020600501548154811015156124e257fe5b9060005260206000200181905550336000808960001916600019168152602001908152602001600020600b016000612540896000808d6000191660001916815260200190815260200160002060050154614a0b90919063ffffffff16565b815260200190815260200160002060006101000a81548173ffffffffffffffffffffffffffffffffffffffff021916908373ffffffffffffffffffffffffffffffffffffffff1602179055507f1d5ad503e2037ec9786501836c2879ce894cbccab52fb32b62235f0ed6ccf49933878943604051808573ffffffffffffffffffffffffffffffffffffffff1673ffffffffffffffffffffffffffffffffffffffff168152602001848152602001836000191660001916815260200182815260200194505050505060405180910390a1600080886000191660001916815260200190815260200160002060090160006126d9336000808c600019166000191681526020019081526020016000206001018054806020026020016040519081016040528092919081815260200182805480156126cf57602002820191906000526020600020905b8160009054906101000a900473ffffffffffffffffffffffffffffffffffffffff1673ffffffffffffffffffffffffffffffffffffffff1681526020019060010190808311612685575b5050505050614975565b73ffffffffffffffffffffffffffffffffffffffff1673ffffffffffffffffffffffffffffffffffffffff16815260200190815260200160002080549050600080896000191660001916815260200190815260200160002060090160003373ffffffffffffffffffffffffffffffffffffffff1673ffffffffffffffffffffffffffffffffffffffff1681526020019081526020016000208054905014156148ed57600080886000191660001916815260200190815260200160002060090160003373ffffffffffffffffffffffffffffffffffffffff1673ffffffffffffffffffffffffffffffffffffffff1681526020019081526020016000206000808960001916600019168152602001908152602001600020600501548154811015156127ff57fe5b90600052602060002001549350600080886000191660001916815260200190815260200160002060090160006128d6336000808c600019166000191681526020019081526020016000206001018054806020026020016040519081016040528092919081815260200182805480156128cc57602002820191906000526020600020905b8160009054906101000a900473ffffffffffffffffffffffffffffffffffffffff1673ffffffffffffffffffffffffffffffffffffffff1681526020019060010190808311612882575b5050505050614975565b73ffffffffffffffffffffffffffffffffffffffff1673ffffffffffffffffffffffffffffffffffffffff16815260200190815260200160002060008089600019166000191681526020019081526020016000206005015481548110151561293a57fe5b9060005260206000200154925082841415156148ec576000808860001916600019168152602001908152602001600020600601805480919060010161297f9190614bad565b50600184148061298f5750600183145b1561308e5760038414806129a35750600383145b15612d10576000808860001916600019168152602001908152602001600020600b0160006129f860016000808c6000191660001916815260200190815260200160002060050154614a0b90919063ffffffff16565b815260200190815260200160002060009054906101000a900473ffffffffffffffffffffffffffffffffffffffff1660008089600019166000191681526020019081526020016000206006016000808a6000191660001916815260200190815260200160002060050154815481101515612a6e57fe5b9060005260206000200160006101000a81548173ffffffffffffffffffffffffffffffffffffffff021916908373ffffffffffffffffffffffffffffffffffffffff1602179055507f70c5dd4aa77b3c67df232934ca4739f2a4ecd16c97f6ce0844c154a10e743f036000808960001916600019168152602001908152602001600020600b016000612b2760016000808d6000191660001916815260200190815260200160002060050154614a0b90919063ffffffff16565b815260200190815260200160002060009054906101000a900473ffffffffffffffffffffffffffffffffffffffff16612c7f6000808b60001916600019168152602001908152602001600020600b016000612ba960016000808f6000191660001916815260200190815260200160002060050154614a0b90919063ffffffff16565b815260200190815260200160002060009054906101000a900473ffffffffffffffffffffffffffffffffffffffff166000808c60001916600019168152602001908152602001600020600101805480602002602001604051908101604052809291908181526020018280548015612c7557602002820191906000526020600020905b8160009054906101000a900473ffffffffffffffffffffffffffffffffffffffff1673ffffffffffffffffffffffffffffffffffffffff1681526020019060010190808311612c2b575b5050505050614975565b8943604051808573ffffffffffffffffffffffffffffffffffffffff1673ffffffffffffffffffffffffffffffffffffffff1681526020018473ffffffffffffffffffffffffffffffffffffffff1673ffffffffffffffffffffffffffffffffffffffff168152602001836000191660001916815260200182815260200194505050505060405180910390a1613089565b6002841480612d1f5750600283145b15613088576000808860001916600019168152602001908152602001600020600b016000612d7460026000808c6000191660001916815260200190815260200160002060050154614a0b90919063ffffffff16565b815260200190815260200160002060009054906101000a900473ffffffffffffffffffffffffffffffffffffffff1660008089600019166000191681526020019081526020016000206006016000808a6000191660001916815260200190815260200160002060050154815481101515612dea57fe5b9060005260206000200160006101000a81548173ffffffffffffffffffffffffffffffffffffffff021916908373ffffffffffffffffffffffffffffffffffffffff1602179055507f70c5dd4aa77b3c67df232934ca4739f2a4ecd16c97f6ce0844c154a10e743f036000808960001916600019168152602001908152602001600020600b016000612ea360026000808d6000191660001916815260200190815260200160002060050154614a0b90919063ffffffff16565b815260200190815260200160002060009054906101000a900473ffffffffffffffffffffffffffffffffffffffff16612ffb6000808b60001916600019168152602001908152602001600020600b016000612f2560026000808f6000191660001916815260200190815260200160002060050154614a0b90919063ffffffff16565b815260200190815260200160002060009054906101000a900473ffffffffffffffffffffffffffffffffffffffff166000808c60001916600019168152602001908152602001600020600101805480602002602001604051908101604052809291908181526020018280548015612ff157602002820191906000526020600020905b8160009054906101000a900473ffffffffffffffffffffffffffffffffffffffff1673ffffffffffffffffffffffffffffffffffffffff1681526020019060010190808311612fa7575b5050505050614975565b8943604051808573ffffffffffffffffffffffffffffffffffffffff1673ffffffffffffffffffffffffffffffffffffffff1681526020018473ffffffffffffffffffffffffffffffffffffffff1673ffffffffffffffffffffffffffffffffffffffff168152602001836000191660001916815260200182815260200194505050505060405180910390a15b5b61456e565b600284148061309d5750600283145b15613aff5760018414806130b15750600183145b1561341e576000808860001916600019168152602001908152602001600020600b01600061310660026000808c6000191660001916815260200190815260200160002060050154614a0b90919063ffffffff16565b815260200190815260200160002060009054906101000a900473ffffffffffffffffffffffffffffffffffffffff1660008089600019166000191681526020019081526020016000206006016000808a600019166000191681526020019081526020016000206005015481548110151561317c57fe5b9060005260206000200160006101000a81548173ffffffffffffffffffffffffffffffffffffffff021916908373ffffffffffffffffffffffffffffffffffffffff1602179055507f70c5dd4aa77b3c67df232934ca4739f2a4ecd16c97f6ce0844c154a10e743f036000808960001916600019168152602001908152602001600020600b01600061323560026000808d6000191660001916815260200190815260200160002060050154614a0b90919063ffffffff16565b815260200190815260200160002060009054906101000a900473ffffffffffffffffffffffffffffffffffffffff1661338d6000808b60001916600019168152602001908152602001600020600b0160006132b760026000808f6000191660001916815260200190815260200160002060050154614a0b90919063ffffffff16565b815260200190815260200160002060009054906101000a900473ffffffffffffffffffffffffffffffffffffffff166000808c6000191660001916815260200190815260200160002060010180548060200260200160405190810160405280929190818152602001828054801561338357602002820191906000526020600020905b8160009054906101000a900473ffffffffffffffffffffffffffffffffffffffff1673ffffffffffffffffffffffffffffffffffffffff1681526020019060010190808311613339575b5050505050614975565b8943604051808573ffffffffffffffffffffffffffffffffffffffff1673ffffffffffffffffffffffffffffffffffffffff1681526020018473ffffffffffffffffffffffffffffffffffffffff1673ffffffffffffffffffffffffffffffffffffffff168152602001836000191660001916815260200182815260200194505050505060405180910390a1613797565b600384148061342d5750600383145b15613796576000808860001916600019168152602001908152602001600020600b01600061348260036000808c6000191660001916815260200190815260200160002060050154614a0b90919063ffffffff16565b815260200190815260200160002060009054906101000a900473ffffffffffffffffffffffffffffffffffffffff1660008089600019166000191681526020019081526020016000206006016000808a60001916600019168152602001908152602001600020600501548154811015156134f857fe5b9060005260206000200160006101000a81548173ffffffffffffffffffffffffffffffffffffffff021916908373ffffffffffffffffffffffffffffffffffffffff1602179055507f70c5dd4aa77b3c67df232934ca4739f2a4ecd16c97f6ce0844c154a10e743f036000808960001916600019168152602001908152602001600020600b0160006135b160036000808d6000191660001916815260200190815260200160002060050154614a0b90919063ffffffff16565b815260200190815260200160002060009054906101000a900473ffffffffffffffffffffffffffffffffffffffff166137096000808b60001916600019168152602001908152602001600020600b01600061363360036000808f6000191660001916815260200190815260200160002060050154614a0b90919063ffffffff16565b815260200190815260200160002060009054906101000a900473ffffffffffffffffffffffffffffffffffffffff166000808c600019166000191681526020019081526020016000206001018054806020026020016040519081016040528092919081815260200182805480156136ff57602002820191906000526020600020905b8160009054906101000a900473ffffffffffffffffffffffffffffffffffffffff1673ffffffffffffffffffffffffffffffffffffffff16815260200190600101908083116136b5575b5050505050614975565b8943604051808573ffffffffffffffffffffffffffffffffffffffff1673ffffffffffffffffffffffffffffffffffffffff1681526020018473ffffffffffffffffffffffffffffffffffffffff1673ffffffffffffffffffffffffffffffffffffffff168152602001836000191660001916815260200182815260200194505050505060405180910390a15b5b6000808860001916600019168152602001908152602001600020600b0160006137e760026000808c6000191660001916815260200190815260200160002060050154614a0b90919063ffffffff16565b815260200190815260200160002060009054906101000a900473ffffffffffffffffffffffffffffffffffffffff1660008089600019166000191681526020019081526020016000206006016000808a600019166000191681526020019081526020016000206005015481548110151561385d57fe5b9060005260206000200160006101000a81548173ffffffffffffffffffffffffffffffffffffffff021916908373ffffffffffffffffffffffffffffffffffffffff1602179055507f70c5dd4aa77b3c67df232934ca4739f2a4ecd16c97f6ce0844c154a10e743f036000808960001916600019168152602001908152602001600020600b01600061391660026000808d6000191660001916815260200190815260200160002060050154614a0b90919063ffffffff16565b815260200190815260200160002060009054906101000a900473ffffffffffffffffffffffffffffffffffffffff16613a6e6000808b60001916600019168152602001908152602001600020600b01600061399860026000808f6000191660001916815260200190815260200160002060050154614a0b90919063ffffffff16565b815260200190815260200160002060009054906101000a900473ffffffffffffffffffffffffffffffffffffffff166000808c60001916600019168152602001908152602001600020600101805480602002602001604051908101604052809291908181526020018280548015613a6457602002820191906000526020600020905b8160009054906101000a900473ffffffffffffffffffffffffffffffffffffffff1673ffffffffffffffffffffffffffffffffffffffff1681526020019060010190808311613a1a575b5050505050614975565b8943604051808573ffffffffffffffffffffffffffffffffffffffff1673ffffffffffffffffffffffffffffffffffffffff1681526020018473ffffffffffffffffffffffffffffffffffffffff1673ffffffffffffffffffffffffffffffffffffffff168152602001836000191660001916815260200182815260200194505050505060405180910390a161456d565b6003841480613b0e5750600383145b1561456c576002841480613b225750600283145b15613e8f576000808860001916600019168152602001908152602001600020600b016000613b7760036000808c6000191660001916815260200190815260200160002060050154614a0b90919063ffffffff16565b815260200190815260200160002060009054906101000a900473ffffffffffffffffffffffffffffffffffffffff1660008089600019166000191681526020019081526020016000206006016000808a6000191660001916815260200190815260200160002060050154815481101515613bed57fe5b9060005260206000200160006101000a81548173ffffffffffffffffffffffffffffffffffffffff021916908373ffffffffffffffffffffffffffffffffffffffff1602179055507f70c5dd4aa77b3c67df232934ca4739f2a4ecd16c97f6ce0844c154a10e743f036000808960001916600019168152602001908152602001600020600b016000613ca660036000808d6000191660001916815260200190815260200160002060050154614a0b90919063ffffffff16565b815260200190815260200160002060009054906101000a900473ffffffffffffffffffffffffffffffffffffffff16613dfe6000808b60001916600019168152602001908152602001600020600b016000613d2860036000808f6000191660001916815260200190815260200160002060050154614a0b90919063ffffffff16565b815260200190815260200160002060009054906101000a900473ffffffffffffffffffffffffffffffffffffffff166000808c60001916600019168152602001908152602001600020600101805480602002602001604051908101604052809291908181526020018280548015613df457602002820191906000526020600020905b8160009054906101000a900473ffffffffffffffffffffffffffffffffffffffff1673ffffffffffffffffffffffffffffffffffffffff1681526020019060010190808311613daa575b5050505050614975565b8943604051808573ffffffffffffffffffffffffffffffffffffffff1673ffffffffffffffffffffffffffffffffffffffff1681526020018473ffffffffffffffffffffffffffffffffffffffff1673ffffffffffffffffffffffffffffffffffffffff168152602001836000191660001916815260200182815260200194505050505060405180910390a1614208565b6001841480613e9e5750600183145b15614207576000808860001916600019168152602001908152602001600020600b016000613ef360016000808c6000191660001916815260200190815260200160002060050154614a0b90919063ffffffff16565b815260200190815260200160002060009054906101000a900473ffffffffffffffffffffffffffffffffffffffff1660008089600019166000191681526020019081526020016000206006016000808a6000191660001916815260200190815260200160002060050154815481101515613f6957fe5b9060005260206000200160006101000a81548173ffffffffffffffffffffffffffffffffffffffff021916908373ffffffffffffffffffffffffffffffffffffffff1602179055507f70c5dd4aa77b3c67df232934ca4739f2a4ecd16c97f6ce0844c154a10e743f036000808960001916600019168152602001908152602001600020600b01600061402260016000808d6000191660001916815260200190815260200160002060050154614a0b90919063ffffffff16565b815260200190815260200160002060009054906101000a900473ffffffffffffffffffffffffffffffffffffffff1661417a6000808b60001916600019168152602001908152602001600020600b0160006140a460016000808f6000191660001916815260200190815260200160002060050154614a0b90919063ffffffff16565b815260200190815260200160002060009054906101000a900473ffffffffffffffffffffffffffffffffffffffff166000808c6000191660001916815260200190815260200160002060010180548060200260200160405190810160405280929190818152602001828054801561417057602002820191906000526020600020905b8160009054906101000a900473ffffffffffffffffffffffffffffffffffffffff1673ffffffffffffffffffffffffffffffffffffffff1681526020019060010190808311614126575b5050505050614975565b8943604051808573ffffffffffffffffffffffffffffffffffffffff1673ffffffffffffffffffffffffffffffffffffffff1681526020018473ffffffffffffffffffffffffffffffffffffffff1673ffffffffffffffffffffffffffffffffffffffff168152602001836000191660001916815260200182815260200194505050505060405180910390a15b5b6000808860001916600019168152602001908152602001600020600b01600061425860036000808c6000191660001916815260200190815260200160002060050154614a0b90919063ffffffff16565b815260200190815260200160002060009054906101000a900473ffffffffffffffffffffffffffffffffffffffff1660008089600019166000191681526020019081526020016000206006016000808a60001916600019168152602001908152602001600020600501548154811015156142ce57fe5b9060005260206000200160006101000a81548173ffffffffffffffffffffffffffffffffffffffff021916908373ffffffffffffffffffffffffffffffffffffffff1602179055507f70c5dd4aa77b3c67df232934ca4739f2a4ecd16c97f6ce0844c154a10e743f036000808960001916600019168152602001908152602001600020600b01600061438760036000808d6000191660001916815260200190815260200160002060050154614a0b90919063ffffffff16565b815260200190815260200160002060009054906101000a900473ffffffffffffffffffffffffffffffffffffffff166144df6000808b60001916600019168152602001908152602001600020600b01600061440960036000808f6000191660001916815260200190815260200160002060050154614a0b90919063ffffffff16565b815260200190815260200160002060009054906101000a900473ffffffffffffffffffffffffffffffffffffffff166000808c600019166000191681526020019081526020016000206001018054806020026020016040519081016040528092919081815260200182805480156144d557602002820191906000526020600020905b8160009054906101000a900473ffffffffffffffffffffffffffffffffffffffff1673ffffffffffffffffffffffffffffffffffffffff168152602001906001019080831161448b575b5050505050614975565b8943604051808573ffffffffffffffffffffffffffffffffffffffff1673ffffffffffffffffffffffffffffffffffffffff1681526020018473ffffffffffffffffffffffffffffffffffffffff1673ffffffffffffffffffffffffffffffffffffffff168152602001836000191660001916815260200182815260200194505050505060405180910390a15b5b5b600080886000191660001916815260200190815260200160002060050160008154809291906001019190505550600360008089600019166000191681526020019081526020016000206005015414156148eb5733915061466f336000808a6000191660001916815260200190815260200160002060010180548060200260200160405190810160405280929190818152602001828054801561466557602002820191906000526020600020905b8160009054906101000a900473ffffffffffffffffffffffffffffffffffffffff1673ffffffffffffffffffffffffffffffffffffffff168152602001906001019080831161461b575b5050505050614975565b9050600261472788614722336000808d6000191660001916815260200190815260200160002060010180548060200260200160405190810160405280929190818152602001828054801561471857602002820191906000526020600020905b8160009054906101000a900473ffffffffffffffffffffffffffffffffffffffff1673ffffffffffffffffffffffffffffffffffffffff16815260200190600101908083116146ce575b5050505050614975565b6111e3565b1015156147df576147d9336000808a600019166000191681526020019081526020016000206001018054806020026020016040519081016040528092919081815260200182805480156147cf57602002820191906000526020600020905b8160009054906101000a900473ffffffffffffffffffffffffffffffffffffffff1673ffffffffffffffffffffffffffffffffffffffff1681526020019060010190808311614785575b5050505050614975565b91503390505b81600080896000191660001916815260200190815260200160002060070160006101000a81548173ffffffffffffffffffffffffffffffffffffffff021916908373ffffffffffffffffffffffffffffffffffffffff1602179055507fb20fdc17b0d97be5f2217745aeb7a58d60749f40112a08bb9bb43a404f89aa7482828943604051808573ffffffffffffffffffffffffffffffffffffffff1673ffffffffffffffffffffffffffffffffffffffff1681526020018473ffffffffffffffffffffffffffffffffffffffff1673ffffffffffffffffffffffffffffffffffffffff168152602001836000191660001916815260200182815260200194505050505060405180910390a15b5b5b50505050505050565b600080600090505b825181141515614969578373ffffffffffffffffffffffffffffffffffffffff16838281518110151561492d57fe5b9060200190602002015173ffffffffffffffffffffffffffffffffffffffff16141561495c576001915061496e565b80806001019150506148fe565b600091505b5092915050565b600080600090505b8251811415156149ff578373ffffffffffffffffffffffffffffffffffffffff1683828151811015156149ac57fe5b9060200190602002015173ffffffffffffffffffffffffffffffffffffffff161415156149f25782818151811015156149e157fe5b906020019060200201519150614a04565b808060010191505061497d565b600091505b5092915050565b6000808284019050838110151515614a2257600080fd5b8091505092915050565b600080600090505b825181141515614a895760008382815181101515614a4e57fe5b9060200190602002015173ffffffffffffffffffffffffffffffffffffffff161415614a7c57809150614a8e565b8080600101915050614a34565b600080fd5b50919050565b610100604051908101604052806000151581526020016060815260200160008019168152602001600015158152602001600081526020016000815260200160608152602001600073ffffffffffffffffffffffffffffffffffffffff1681525090565b828054828255906000526020600020908101928215614b70579160200282015b82811115614b6f5782518260006101000a81548173ffffffffffffffffffffffffffffffffffffffff021916908373ffffffffffffffffffffffffffffffffffffffff16021790555091602001919060010190614b17565b5b509050614b7d9190614bd9565b5090565b815481835581811115614ba857818360005260206000209182019101614ba79190614c1c565b5b505050565b815481835581811115614bd457818360005260206000209182019101614bd39190614c1c565b5b505050565b614c1991905b80821115614c1557600081816101000a81549073ffffffffffffffffffffffffffffffffffffffff021916905550600101614bdf565b5090565b90565b614c3e91905b80821115614c3a576000816000905550600101614c22565b5090565b905600a165627a7a723058201909145263f20d6beae479bcdc58bf0c8a1d08b148e9818001f4925865a1a4600029",
  "source": "pragma solidity ^0.4.24; // Specify compiler version\n\ncontract RockPaperScissors {\n    using SafeMath for uint256;\n\n    struct Game {\n        bool Initialized; // Game initialized\n        address[] Players; // Players in game\n        bytes32 InviteCode; // Game invitecode\n        bool GameFinished; // Game finished\n        uint Block; // Origin block\n        uint RoundsPlayed; // Rounds played\n        address[] RoundWinners; // Winner of each round\n        address Winner;\n        mapping(address => uint) Bets; // Bets\n        mapping(address => uint[]) Moves; // Moves\n        mapping(address => bytes32) Commits; // Commits\n        mapping(uint => address) PlayerByMove; // Find player by move\n    }\n\n    event NewGame (\n        address FirstPlayer, // Player initializing game\n        bytes32 InviteCode, // Game invite code\n        uint Block // Origin block\n    );\n\n    event PlayerJoinedGame (\n        address Player, // Player joining game\n        bytes32 InviteCode, // Game invite code\n        uint Block // Origin block\n    );\n\n    event PlayerMadeMove (\n        address Player, // Player making move\n        uint Move, // move\n        bytes32 InviteCode, // Game invite code\n        uint Block // Origin block\n    );\n\n    event PlayerMadeBet (\n        address Player, // Player making bet\n        uint256 Value, // Value of bet\n        bytes32 InviteCode, // Game invite code\n        uint Block // Origin block\n    );\n\n    event PlayerClaimedBet (\n        address Player, // Player claiming bet\n        uint256 Value, // Value of bet\n        bytes32 InviteCode, // Game invite code\n        uint Block // Origin block\n    );\n\n    event PlayerWonRound (\n        address WinningPlayer, // Winning player\n        address LosingPlayer, // Losing player\n        bytes32 InviteCode, // Game invite code\n        uint Block // Win block\n    );\n\n    event PlayerWon (\n        address WinningPlayer, // Winning player\n        address LosingPlayer, // Losing player\n        bytes32 InviteCode, // Game invite code\n        uint Block // Win block\n    );\n\n    mapping(bytes32 => Game) public Games;\n\n    function newGame() public returns (bytes32 _inviteCode) {\n        address[] memory players = new address[](2); // Initialize array\n        address[] memory roundWinners = new address[](3); // Initialize array\n\n        players[0] = msg.sender; // Append sender to players\n\n        Game memory game = Game(true, players, keccak256(abi.encodePacked(players, block.number)), false, block.number, 0, roundWinners, 0); // Initialize game\n\n        Games[game.InviteCode] = game; // Append game to games list\n\n        emit NewGame(msg.sender, game.InviteCode, block.number); // Emit initialized game\n\n        return game.InviteCode; // Return invite code\n    }\n\n    function joinGame(bytes32 _inviteCode) public {\n        require(Games[_inviteCode].Initialized == true, \"Game does not exist.\"); // Check game exists\n        require(Games[_inviteCode].Players[1] == 0, \"Game already full.\"); // Check game isn't full\n        require(Games[_inviteCode].RoundsPlayed == 0, \"Game already started.\"); // Check game hasn't already started\n\n        Games[_inviteCode].Players[emptyIndex(Games[_inviteCode].Players)] = msg.sender; // Set player\n\n        emit PlayerJoinedGame(msg.sender, _inviteCode, block.number); // Emit joined game\n    }\n\n    function commitMove(bytes32 _inviteCode, bytes32 _encryptedMove) public {\n        require(Games[_inviteCode].Initialized == true, \"Game does not exit\"); // Check game exists\n        require(Games[_inviteCode].RoundsPlayed != 3, \"Game already finished.\"); // Check game hasn't already ended\n        require(isIn(msg.sender, Games[_inviteCode].Players), \"Player not in game.\"); // Check player is in game\n        require(Games[_inviteCode].Players[0] != address(0), \"Not enough players.\"); // Check enough players\n\n        Games[_inviteCode].Commits[msg.sender] = _encryptedMove; // Commit\n    }\n\n    function revealMove(bytes32 _inviteCode, uint _move, bytes32 _privateKey) public {\n        require(Games[_inviteCode].Commits[msg.sender] != 0 && Games[_inviteCode].Commits[otherPlayer(msg.sender, Games[_inviteCode].Players)] != 0, \"Not all players have committed a move yet.\"); // Check committed\n        require(keccak256(abi.encodePacked(_move, _privateKey)) == Games[_inviteCode].Commits[msg.sender], \"Invalid move (doesn't match commit)\");\n        require(_move > 0 && _move < 4, \"Invalid move\"); // Check for valid move\n        require(Games[_inviteCode].Initialized == true, \"Game does not exist.\"); // Check game exists\n        require(Games[_inviteCode].RoundsPlayed != 3, \"Game already finished.\"); // Check game hasn't already ended\n        require(isIn(msg.sender, Games[_inviteCode].Players), \"Player not in game.\"); // Check player is in game\n        require(Games[_inviteCode].Players[0] != address(0), \"Not enough players.\"); // Check enough players\n        require(Games[_inviteCode].Moves[msg.sender].length <= Games[_inviteCode].Moves[otherPlayer(msg.sender, Games[_inviteCode].Players)].length, \"Other player hasn't moved yet.\"); // Check other player moved\n\n        Games[_inviteCode].Moves[msg.sender].length++; // Increment capacity\n        Games[_inviteCode].Moves[msg.sender][Games[_inviteCode].RoundsPlayed] = _move; // Append move\n        Games[_inviteCode].PlayerByMove[Games[_inviteCode].RoundsPlayed.add(_move)] = msg.sender; // Set player by move\n\n        emit PlayerMadeMove(msg.sender, _move, _inviteCode, block.number); // Emit made move\n\n        if (Games[_inviteCode].Moves[msg.sender].length == Games[_inviteCode].Moves[otherPlayer(msg.sender, Games[_inviteCode].Players)].length) {\n            uint PlayerOneMove = Games[_inviteCode].Moves[msg.sender][Games[_inviteCode].RoundsPlayed]; // Fetch sender move\n            uint OtherPlayerMove = Games[_inviteCode].Moves[otherPlayer(msg.sender, Games[_inviteCode].Players)][Games[_inviteCode].RoundsPlayed]; // Fetch other player move\n\n            if (PlayerOneMove != OtherPlayerMove) { // Check didn't make same move\n                Games[_inviteCode].RoundWinners.length++; // Increment capacity\n\n                if (PlayerOneMove == 1 || OtherPlayerMove == 1) { // Check for rock\n                    if (PlayerOneMove == 3 || OtherPlayerMove == 3) { // Check for scissors\n                        Games[_inviteCode].RoundWinners[Games[_inviteCode].RoundsPlayed] = Games[_inviteCode].PlayerByMove[Games[_inviteCode].RoundsPlayed.add(1)]; // Add score\n\n                        emit PlayerWonRound(Games[_inviteCode].PlayerByMove[Games[_inviteCode].RoundsPlayed.add(1)], otherPlayer(Games[_inviteCode].PlayerByMove[Games[_inviteCode].RoundsPlayed.add(1)], Games[_inviteCode].Players), _inviteCode, block.number);\n                    } else if (PlayerOneMove == 2 || OtherPlayerMove == 2) { // Check for paper\n                        Games[_inviteCode].RoundWinners[Games[_inviteCode].RoundsPlayed] = Games[_inviteCode].PlayerByMove[Games[_inviteCode].RoundsPlayed.add(2)]; // Add score\n\n                        emit PlayerWonRound(Games[_inviteCode].PlayerByMove[Games[_inviteCode].RoundsPlayed.add(2)], otherPlayer(Games[_inviteCode].PlayerByMove[Games[_inviteCode].RoundsPlayed.add(2)], Games[_inviteCode].Players), _inviteCode, block.number);\n                    }\n                } else if (PlayerOneMove == 2 || OtherPlayerMove == 2) { // Check for paper\n                    if (PlayerOneMove == 1 || OtherPlayerMove == 1) {\n                        Games[_inviteCode].RoundWinners[Games[_inviteCode].RoundsPlayed] = Games[_inviteCode].PlayerByMove[Games[_inviteCode].RoundsPlayed.add(2)]; // Add score\n\n                        emit PlayerWonRound(Games[_inviteCode].PlayerByMove[Games[_inviteCode].RoundsPlayed.add(2)], otherPlayer(Games[_inviteCode].PlayerByMove[Games[_inviteCode].RoundsPlayed.add(2)], Games[_inviteCode].Players), _inviteCode, block.number);\n                    } else if (PlayerOneMove == 3 || OtherPlayerMove == 3) {\n                        Games[_inviteCode].RoundWinners[Games[_inviteCode].RoundsPlayed] = Games[_inviteCode].PlayerByMove[Games[_inviteCode].RoundsPlayed.add(3)]; // Add score\n\n                        emit PlayerWonRound(Games[_inviteCode].PlayerByMove[Games[_inviteCode].RoundsPlayed.add(3)], otherPlayer(Games[_inviteCode].PlayerByMove[Games[_inviteCode].RoundsPlayed.add(3)], Games[_inviteCode].Players), _inviteCode, block.number);\n                    }\n\n                    Games[_inviteCode].RoundWinners[Games[_inviteCode].RoundsPlayed] = Games[_inviteCode].PlayerByMove[Games[_inviteCode].RoundsPlayed.add(2)]; // Add score\n\n                    emit PlayerWonRound(Games[_inviteCode].PlayerByMove[Games[_inviteCode].RoundsPlayed.add(2)], otherPlayer(Games[_inviteCode].PlayerByMove[Games[_inviteCode].RoundsPlayed.add(2)], Games[_inviteCode].Players), _inviteCode, block.number);\n                } else if (PlayerOneMove == 3 || OtherPlayerMove == 3) { // Check for scissors\n                    if (PlayerOneMove == 2 || OtherPlayerMove == 2) {\n                        Games[_inviteCode].RoundWinners[Games[_inviteCode].RoundsPlayed] = Games[_inviteCode].PlayerByMove[Games[_inviteCode].RoundsPlayed.add(3)]; // Add score\n\n                        emit PlayerWonRound(Games[_inviteCode].PlayerByMove[Games[_inviteCode].RoundsPlayed.add(3)], otherPlayer(Games[_inviteCode].PlayerByMove[Games[_inviteCode].RoundsPlayed.add(3)], Games[_inviteCode].Players), _inviteCode, block.number);\n                    } else if (PlayerOneMove == 1 || OtherPlayerMove == 1) {\n                        Games[_inviteCode].RoundWinners[Games[_inviteCode].RoundsPlayed] = Games[_inviteCode].PlayerByMove[Games[_inviteCode].RoundsPlayed.add(1)]; // Add score\n\n                        emit PlayerWonRound(Games[_inviteCode].PlayerByMove[Games[_inviteCode].RoundsPlayed.add(1)], otherPlayer(Games[_inviteCode].PlayerByMove[Games[_inviteCode].RoundsPlayed.add(1)], Games[_inviteCode].Players), _inviteCode, block.number);\n                    }\n\n                    Games[_inviteCode].RoundWinners[Games[_inviteCode].RoundsPlayed] = Games[_inviteCode].PlayerByMove[Games[_inviteCode].RoundsPlayed.add(3)]; // Add score\n\n                    emit PlayerWonRound(Games[_inviteCode].PlayerByMove[Games[_inviteCode].RoundsPlayed.add(3)], otherPlayer(Games[_inviteCode].PlayerByMove[Games[_inviteCode].RoundsPlayed.add(3)], Games[_inviteCode].Players), _inviteCode, block.number);\n                }\n\n                Games[_inviteCode].RoundsPlayed++; // Increment rounds played\n\n                if (Games[_inviteCode].RoundsPlayed == 3) { // Check if game finished\n                    address winner = msg.sender; // Default\n                    address loser = otherPlayer(msg.sender, Games[_inviteCode].Players);\n\n                    if (winCount(_inviteCode, otherPlayer(msg.sender, Games[_inviteCode].Players)) >= 2) { // Check who won\n                        winner = otherPlayer(msg.sender, Games[_inviteCode].Players); // Set winner address\n                        loser = msg.sender; // Set loser\n                    }\n\n                    Games[_inviteCode].Winner = winner; // Set winner\n\n                    emit PlayerWon(winner, loser, _inviteCode, block.number); // Emit player won\n                }\n            }\n        }\n    }\n\n    function bet(bytes32 _inviteCode) public payable {\n        require(Games[_inviteCode].Initialized == true, \"Game does not exist.\"); // Check game exists\n        require(Games[_inviteCode].RoundsPlayed == 0, \"Game already started.\"); // Check game hasn't already started\n        require(isIn(msg.sender, Games[_inviteCode].Players), \"Player not in game.\"); // Check player is in game\n\n        Games[_inviteCode].Bets[msg.sender] += msg.value; // Add bet\n\n        emit PlayerMadeBet(msg.sender, msg.value, _inviteCode, block.number); // Emit made bet\n    }\n\n    function claimBet(bytes32 _inviteCode) public {\n        require(Games[_inviteCode].Initialized == true, \"Game does not exist.\"); // Check game exists\n        require(Games[_inviteCode].RoundsPlayed == 3, \"Game hasn't finished.\"); // Check game hasn't already started\n        require(isIn(msg.sender, Games[_inviteCode].Players), \"Player not in game.\"); // Check player is in game\n        require(Games[_inviteCode].Winner == msg.sender, \"Player didn't win game.\"); // Check won game\n\n        uint256 betVal = Games[_inviteCode].Bets[msg.sender].add(Games[_inviteCode].Bets[otherPlayer(msg.sender, Games[_inviteCode].Players)]); // Calculate reward\n\n        Games[_inviteCode].Bets[otherPlayer(msg.sender, Games[_inviteCode].Players)] = 0; // Reset bet balance\n        Games[_inviteCode].Bets[msg.sender] = 0; // Reset bet balance\n\n        msg.sender.transfer(betVal); // Send wager\n\n        emit PlayerClaimedBet(msg.sender, Games[_inviteCode].Bets[msg.sender].add(Games[_inviteCode].Bets[otherPlayer(msg.sender, Games[_inviteCode].Players)]), _inviteCode, block.number); // Emit claimed bet\n    }\n\n    function winCount(bytes32 _inviteCode, address _address) view public returns (uint _winCount) {\n        uint z = 0; // Set wins iterator\n        \n        for (uint x = 0; x != 3; x++) { // Iterate through wins\n            if (Games[_inviteCode].RoundWinners[x] == _address) { // Check won round\n                z++; // Increment win count\n            }\n        }\n\n        return z; // Return win count\n    }\n\n    function otherPlayer(address _value, address[] _array) pure internal returns (address _address) {\n        for (uint x = 0; x != _array.length; x++) {\n            if (_array[x] != _value) {\n                return _array[x]; // Found value\n            }\n        }\n\n        return 0; // Reached end of array\n    }\n\n    function isIn(address _value, address[] _array) pure internal returns (bool _isIn) {\n        for (uint x = 0; x != _array.length; x++) {\n            if (_array[x] == _value) {\n                return true; // Found value\n            }\n        }\n\n        return false; // Reached end of array\n    }\n\n    function emptyIndex(address[] _array) pure internal returns (uint _emptyIndex) {\n        for (uint x = 0; x != _array.length; x++) {\n            if (_array[x] == 0) {\n                return x; // Found index\n            }\n        }\n\n        revert(); // Reached end of array\n    }\n}\n\n/**\n * @title SafeMath\n * @dev Math operations with safety checks that revert on error\n */\nlibrary SafeMath {\n\n    /**\n    * @dev Multiplies two numbers, reverts on overflow.\n    */\n    function mul(uint256 a, uint256 b) internal pure returns (uint256) {\n        // Gas optimization: this is cheaper than requiring 'a' not being zero, but the\n        // benefit is lost if 'b' is also tested.\n        // See: https://github.com/OpenZeppelin/openzeppelin-solidity/pull/522\n        if (a == 0) {\n        return 0;\n        }\n\n        uint256 c = a * b;\n        require(c / a == b);\n\n        return c;\n    }\n\n    /**\n    * @dev Integer division of two numbers truncating the quotient, reverts on division by zero.\n    */\n    function div(uint256 a, uint256 b) internal pure returns (uint256) {\n        require(b > 0); // Solidity only automatically asserts when dividing by 0\n        uint256 c = a / b;\n        // assert(a == b * c + a % b); // There is no case in which this doesn't hold\n\n        return c;\n    }\n\n    /**\n    * @dev Subtracts two numbers, reverts on overflow (i.e. if subtrahend is greater than minuend).\n    */\n    function sub(uint256 a, uint256 b) internal pure returns (uint256) {\n        require(b <= a);\n        uint256 c = a - b;\n\n        return c;\n    }\n\n    /**\n    * @dev Adds two numbers, reverts on overflow.\n    */\n    function add(uint256 a, uint256 b) internal pure returns (uint256) {\n        uint256 c = a + b;\n        require(c >= a);\n\n        return c;\n    }\n\n    /**\n    * @dev Divides two numbers and returns the remainder (unsigned integer modulo),\n    * reverts when dividing by zero.\n    */\n    function mod(uint256 a, uint256 b) internal pure returns (uint256) {\n        require(b != 0);\n        return a % b;\n    }\n}",
  "sourcePath": "/Users/dowlandaiello/Desktop/B9Lab-Assignments/RockPaperScissors/contracts/RockPaperScissors.sol",
  "compiler": {
    "name": "solc",
    "version": "0.4.24+commit.e67f0147.Emscripten.clang"
  },
  "schemaVersion": "2.0.1",
  "updatedAt": "2018-10-12T12:24:38.410Z"
}