{
  "contractName": "PiggyBank",
  "abi": [
    {
      "payable": true,
      "stateMutability": "payable",
      "type": "fallback"
    },
    {
      "constant": false,
      "inputs": [
        {
          "name": "_hashedPassword",
          "type": "bytes32"
        }
      ],
      "name": "piggyBank",
      "outputs": [],
      "payable": false,
      "stateMutability": "nonpayable",
      "type": "function"
    },
    {
      "constant": false,
      "inputs": [
        {
          "name": "password",
          "type": "bytes32"
        }
      ],
      "name": "kill",
      "outputs": [],
      "payable": false,
      "stateMutability": "nonpayable",
      "type": "function"
    }
  ],
  "bytecode": "0x608060405234801561001057600080fd5b50610366806100206000396000f30060806040526004361061004c576000357c0100000000000000000000000000000000000000000000000000000000900463ffffffff168063b4f9b6c814610130578063ce6122dc14610161575b6000809054906101000a900473ffffffffffffffffffffffffffffffffffffffff1673ffffffffffffffffffffffffffffffffffffffff163373ffffffffffffffffffffffffffffffffffffffff161415156100a757600080fd5b34600160008282829054906101000a90047effffffffffffffffffffffffffffffffffffffffffffffffffffffffffffff160192506101000a8154817effffffffffffffffffffffffffffffffffffffffffffffffffffffffffffff02191690837effffffffffffffffffffffffffffffffffffffffffffffffffffffffffffff160217905550005b34801561013c57600080fd5b5061015f6004803603810190808035600019169060200190929190505050610192565b005b34801561016d57600080fd5b506101906004803603810190808035600019169060200190929190505050610265565b005b600254600019166000809054906101000a900473ffffffffffffffffffffffffffffffffffffffff1682604051808373ffffffffffffffffffffffffffffffffffffffff1673ffffffffffffffffffffffffffffffffffffffff166c0100000000000000000000000002815260140182600019166000191681526020019250505060405180910390206000191614151561022b57600080fd5b6000809054906101000a900473ffffffffffffffffffffffffffffffffffffffff1673ffffffffffffffffffffffffffffffffffffffff16ff5b336000806101000a81548173ffffffffffffffffffffffffffffffffffffffff021916908373ffffffffffffffffffffffffffffffffffffffff16021790555034600160008282829054906101000a90047effffffffffffffffffffffffffffffffffffffffffffffffffffffffffffff160192506101000a8154817effffffffffffffffffffffffffffffffffffffffffffffffffffffffffffff02191690837effffffffffffffffffffffffffffffffffffffffffffffffffffffffffffff1602179055508060028160001916905550505600a165627a7a72305820875448b90aa07e2a5474081750fa9368e2632e1baf1031cbe743e175814c4b9b0029",
  "source": "contract PiggyBank {\r\n    address owner;\r\n    uint248 balance;\r\n    bytes32 hashedPassword;\r\n\r\n    function piggyBank(bytes32 _hashedPassword) {\r\n        owner = msg.sender;\r\n        balance += uint248(msg.value);\r\n        hashedPassword = _hashedPassword;\r\n    }\r\n\r\n    function () payable {\r\n        if (msg.sender != owner) revert();\r\n        balance += uint248(msg.value);\r\n    }\r\n\r\n    function kill(bytes32 password) {\r\n        if (keccak256(owner, password) != hashedPassword) revert();\r\n        selfdestruct(owner);\r\n    }\r\n}",
  "sourcePath": "R:\\B9Lab-Assignments\\Debugging\\piggybank\\contracts\\PiggyBank.sol",
  "compiler": {
    "name": "solc",
    "version": "0.4.24+commit.e67f0147.Emscripten.clang"
  },
  "schemaVersion": "2.0.1",
  "updatedAt": "2018-11-03T23:35:05.688Z"
}