{
  "contractName": "PiggyBank",
  "abi": [
    {
      "inputs": [],
      "payable": true,
      "stateMutability": "payable",
      "type": "constructor"
    },
    {
      "constant": false,
      "inputs": [],
      "name": "deposit",
      "outputs": [],
      "payable": true,
      "stateMutability": "payable",
      "type": "function"
    },
    {
      "constant": false,
      "inputs": [],
      "name": "kill",
      "outputs": [],
      "payable": false,
      "stateMutability": "nonpayable",
      "type": "function"
    }
  ],
  "bytecode": "0x6080604052336000806101000a81548173ffffffffffffffffffffffffffffffffffffffff021916908373ffffffffffffffffffffffffffffffffffffffff16021790555034600160008282829054906101000a90047effffffffffffffffffffffffffffffffffffffffffffffffffffffffffffff160192506101000a8154817effffffffffffffffffffffffffffffffffffffffffffffffffffffffffffff02191690837effffffffffffffffffffffffffffffffffffffffffffffffffffffffffffff160217905550610217806100da6000396000f30060806040526004361061004c576000357c0100000000000000000000000000000000000000000000000000000000900463ffffffff16806341c0e1b514610051578063d0e30db014610068575b600080fd5b34801561005d57600080fd5b50610066610072565b005b610070610107565b005b6000809054906101000a900473ffffffffffffffffffffffffffffffffffffffff1673ffffffffffffffffffffffffffffffffffffffff163373ffffffffffffffffffffffffffffffffffffffff161415156100cd57600080fd5b6000809054906101000a900473ffffffffffffffffffffffffffffffffffffffff1673ffffffffffffffffffffffffffffffffffffffff16ff5b6000809054906101000a900473ffffffffffffffffffffffffffffffffffffffff1673ffffffffffffffffffffffffffffffffffffffff163373ffffffffffffffffffffffffffffffffffffffff1614151561016257600080fd5b34600160008282829054906101000a90047effffffffffffffffffffffffffffffffffffffffffffffffffffffffffffff160192506101000a8154817effffffffffffffffffffffffffffffffffffffffffffffffffffffffffffff02191690837effffffffffffffffffffffffffffffffffffffffffffffffffffffffffffff1602179055505600a165627a7a723058202a18d118fccdbc7972fd7a458607b78422891f99e6fbeea25806e37237b6ff1d0029",
  "source": "pragma solidity^0.4.24;\r\n\r\ncontract PiggyBank {\r\n    address owner;\r\n    uint248 balance;\r\n\r\n    modifier isOwner() {\r\n        require(msg.sender == owner); // Check is owner\r\n\r\n        _; // Continue\r\n    }\r\n\r\n    constructor() payable public {\r\n        owner = msg.sender;\r\n        balance += uint248(msg.value);\r\n    }\r\n\r\n    function deposit() isOwner payable public {\r\n        balance += uint248(msg.value);\r\n    }\r\n\r\n    function kill() isOwner public {\r\n        selfdestruct(owner);\r\n    }\r\n}",
  "sourcePath": "R:\\B9Lab-Assignments\\Debugging\\piggybank\\contracts\\PiggyBank.sol",
  "compiler": {
    "name": "solc",
    "version": "0.4.24+commit.e67f0147.Emscripten.clang"
  },
  "schemaVersion": "2.0.1",
  "updatedAt": "2018-11-04T02:19:29.451Z"
}