{
  "contractName": "Splitter",
  "abi": [
    {
      "constant": false,
      "inputs": [
        {
          "name": "destinationAddresses",
          "type": "address[]"
        }
      ],
      "name": "split",
      "outputs": [],
      "payable": true,
      "stateMutability": "payable",
      "type": "function"
    }
  ],
  "bytecode": "0x608060405234801561001057600080fd5b5061026e806100206000396000f300608060405260043610610041576000357c0100000000000000000000000000000000000000000000000000000000900463ffffffff16806394e4a82214610046575b600080fd5b61009d6004803603810190808035906020019082018035906020019080806020026020016040519081016040528093929190818152602001838360200280828437820191505050505050919291929050505061009f565b005b80600090805190602001906100b5929190610175565b506100be6100c1565b50565b60008090505b60008054905081141515610172576000818154811015156100e457fe5b9060005260206000200160009054906101000a900473ffffffffffffffffffffffffffffffffffffffff1673ffffffffffffffffffffffffffffffffffffffff166108fc6000805490503481151561013857fe5b049081150290604051600060405180830381858888f19350505050158015610164573d6000803e3d6000fd5b5080806001019150506100c7565b50565b8280548282559060005260206000209081019282156101ee579160200282015b828111156101ed5782518260006101000a81548173ffffffffffffffffffffffffffffffffffffffff021916908373ffffffffffffffffffffffffffffffffffffffff16021790555091602001919060010190610195565b5b5090506101fb91906101ff565b5090565b61023f91905b8082111561023b57600081816101000a81549073ffffffffffffffffffffffffffffffffffffffff021916905550600101610205565b5090565b905600a165627a7a723058208bac12b31b6f51ec4a430628e6052e9dc5a7f63bcfea9c48432a51dbaa4ebcd30029",
  "source": "pragma solidity^0.4.23; // Specify compiler version\r\n\r\n// Init splitter contract\r\ncontract Splitter {\r\n    address[] splitAddresses;\r\n\r\n    function split(address[] destinationAddresses) public payable {\r\n        splitAddresses = destinationAddresses; // Get specified addresses\r\n\r\n        sendEth(); // Send ether\r\n    }\r\n\r\n    function sendEth() internal {\r\n        for (uint x = 0; x != splitAddresses.length; x++) {\r\n            splitAddresses[x].transfer(msg.value/splitAddresses.length); // Send ether\r\n        }\r\n    }\r\n}",
  "sourcePath": "R:\\B9Lab-Assignments\\splitter\\contracts\\Splitter.sol",
  "compiler": {
    "name": "solc",
    "version": "0.4.24+commit.e67f0147.Emscripten.clang"
  },
  "schemaVersion": "2.0.1",
  "updatedAt": "2018-09-08T13:45:49.321Z"
}