{
  "contractName": "Splitter",
  "abi": [
    {
      "anonymous": false,
      "inputs": [
        {
          "indexed": false,
          "name": "sender",
          "type": "address"
        },
        {
          "indexed": false,
          "name": "firstDestinationAddress",
          "type": "address"
        },
        {
          "indexed": false,
          "name": "secondDestinationAddress",
          "type": "address"
        },
        {
          "indexed": false,
          "name": "amount",
          "type": "uint256"
        },
        {
          "indexed": false,
          "name": "remainder",
          "type": "uint256"
        }
      ],
      "name": "registeredSplit",
      "type": "event"
    },
    {
      "anonymous": false,
      "inputs": [
        {
          "indexed": false,
          "name": "sender",
          "type": "address"
        },
        {
          "indexed": false,
          "name": "amount",
          "type": "uint256"
        }
      ],
      "name": "registeredRemainderRefund",
      "type": "event"
    },
    {
      "anonymous": false,
      "inputs": [
        {
          "indexed": false,
          "name": "withdrawalAddress",
          "type": "address"
        },
        {
          "indexed": false,
          "name": "amount",
          "type": "uint256"
        }
      ],
      "name": "attemptedWithdrawal",
      "type": "event"
    },
    {
      "anonymous": false,
      "inputs": [
        {
          "indexed": false,
          "name": "withdrawalAddress",
          "type": "address"
        },
        {
          "indexed": false,
          "name": "amount",
          "type": "uint256"
        }
      ],
      "name": "finishedWithdrawal",
      "type": "event"
    },
    {
      "constant": false,
      "inputs": [
        {
          "name": "destinationAddress1",
          "type": "address"
        },
        {
          "name": "destinationAddress2",
          "type": "address"
        }
      ],
      "name": "split",
      "outputs": [],
      "payable": true,
      "stateMutability": "payable",
      "type": "function"
    },
    {
      "constant": false,
      "inputs": [],
      "name": "withdraw",
      "outputs": [],
      "payable": false,
      "stateMutability": "nonpayable",
      "type": "function"
    }
  ],
  "bytecode": "0x608060405234801561001057600080fd5b50610514806100206000396000f30060806040526004361061004c576000357c0100000000000000000000000000000000000000000000000000000000900463ffffffff1680630f2c9329146100515780633ccfd60b146100a7575b600080fd5b6100a5600480360381019080803573ffffffffffffffffffffffffffffffffffffffff169060200190929190803573ffffffffffffffffffffffffffffffffffffffff1690602001909291905050506100be565b005b3480156100b357600080fd5b506100bc6102f7565b005b6000806002348115156100cd57fe5b0491508160020234039050600081111561019057806000803373ffffffffffffffffffffffffffffffffffffffff1673ffffffffffffffffffffffffffffffffffffffff168152602001908152602001600020819055507fc361a7ea0419e35b02fba4c2f337598052db07b7faa1a8d4947bc1603b70d96b3382604051808373ffffffffffffffffffffffffffffffffffffffff1673ffffffffffffffffffffffffffffffffffffffff1681526020018281526020019250505060405180910390a15b816000808673ffffffffffffffffffffffffffffffffffffffff1673ffffffffffffffffffffffffffffffffffffffff16815260200190815260200160002081905550816000808573ffffffffffffffffffffffffffffffffffffffff1673ffffffffffffffffffffffffffffffffffffffff168152602001908152602001600020819055507f8b0539d3f3b46d83587e89b66f1d1c3ec85f259a649225de171d22dc4aa17f763385858585604051808673ffffffffffffffffffffffffffffffffffffffff1673ffffffffffffffffffffffffffffffffffffffff1681526020018573ffffffffffffffffffffffffffffffffffffffff1673ffffffffffffffffffffffffffffffffffffffff1681526020018473ffffffffffffffffffffffffffffffffffffffff1673ffffffffffffffffffffffffffffffffffffffff1681526020018381526020018281526020019550505050505060405180910390a150505050565b61030033610302565b565b60008060008373ffffffffffffffffffffffffffffffffffffffff1673ffffffffffffffffffffffffffffffffffffffff1681526020019081526020016000205490507f4b9e51fd5cc77c3f5ed53ff15923883c37168d60f13c16b4c6b809a49b44b9d48282604051808373ffffffffffffffffffffffffffffffffffffffff1673ffffffffffffffffffffffffffffffffffffffff1681526020018281526020019250505060405180910390a160008060008473ffffffffffffffffffffffffffffffffffffffff1673ffffffffffffffffffffffffffffffffffffffff168152602001908152602001600020819055508173ffffffffffffffffffffffffffffffffffffffff166108fc6000808573ffffffffffffffffffffffffffffffffffffffff1673ffffffffffffffffffffffffffffffffffffffff168152602001908152602001600020549081150290604051600060405180830381858888f19350505050158015610478573d6000803e3d6000fd5b507f0d48a6e463ac19b7459dab12f2dc4596a3e201e2b4779761f147a324502cf8b08282604051808373ffffffffffffffffffffffffffffffffffffffff1673ffffffffffffffffffffffffffffffffffffffff1681526020018281526020019250505060405180910390a150505600a165627a7a72305820c88e5f0f0c3fccf726983b4f3bf9f0302b1981574b2319a6097e6c80d3ed451c0029",
  "source": "pragma solidity^0.4.24; // Specify compiler version\r\n\r\n// Init Splitter contract\r\ncontract Splitter {\r\n    mapping (address => uint256) unspentSplits; // Store pending withdrawals\r\n\r\n    event registeredSplit(address sender, address firstDestinationAddress, address secondDestinationAddress, uint amount, uint remainder); // Log split\r\n    event registeredRemainderRefund(address sender, uint amount); // Log remainder\r\n    event attemptedWithdrawal(address withdrawalAddress, uint amount);\r\n    event finishedWithdrawal(address withdrawalAddress, uint amount);\r\n\r\n    function split(address destinationAddress1, address destinationAddress2) public payable {\r\n        uint256 splitValue = msg.value / 2; // Calculate split value\r\n\r\n        uint remainder = msg.value - 2 * splitValue; // Calculate remainder\r\n\r\n        if (remainder > 0) { // Check for existing remainder\r\n            unspentSplits[msg.sender] = remainder; // Set to split\r\n\r\n            emit registeredRemainderRefund(msg.sender, remainder);\r\n        }\r\n\r\n        unspentSplits[destinationAddress1] = splitValue; // Set to split\r\n        unspentSplits[destinationAddress2] = splitValue; // Set to split\r\n\r\n        emit registeredSplit(msg.sender, destinationAddress1, destinationAddress2, splitValue, remainder);\r\n    }\r\n\r\n    function withdraw() public {\r\n        sendEth(msg.sender); // Send ether\r\n    }\r\n\r\n    function sendEth(address destinationAddress) internal {\r\n        uint withdrawalValue = unspentSplits[destinationAddress];\r\n\r\n        emit attemptedWithdrawal(destinationAddress, withdrawalValue);\r\n\r\n        unspentSplits[destinationAddress] = 0; // Set address pending split to 0\r\n\r\n        destinationAddress.transfer(unspentSplits[destinationAddress]); // Attempt to transfer to specified address\r\n\r\n        emit finishedWithdrawal(destinationAddress, withdrawalValue);\r\n    }\r\n}",
  "sourcePath": "R:\\B9Lab-Assignments\\splitter\\contracts\\Splitter.sol",
  "compiler": {
    "name": "solc",
    "version": "0.4.24+commit.e67f0147.Emscripten.clang"
  },
  "schemaVersion": "2.0.1",
  "updatedAt": "2018-09-10T21:20:17.464Z"
}