{
  "contractName": "Splitter",
  "abi": [
    {
      "constant": false,
      "inputs": [
        {
          "name": "destinationAddress1",
          "type": "address"
        },
        {
          "name": "destinationAddress2",
          "type": "address"
        }
      ],
      "name": "split",
      "outputs": [],
      "payable": true,
      "stateMutability": "payable",
      "type": "function"
    }
  ],
  "bytecode": "0x608060405234801561001057600080fd5b506102d3806100206000396000f300608060405260043610610041576000357c0100000000000000000000000000000000000000000000000000000000900463ffffffff1680630f2c932914610046575b600080fd5b61009a600480360381019080803573ffffffffffffffffffffffffffffffffffffffff169060200190929190803573ffffffffffffffffffffffffffffffffffffffff16906020019092919050505061009c565b005b60408051908101604052808373ffffffffffffffffffffffffffffffffffffffff1673ffffffffffffffffffffffffffffffffffffffff1681526020018273ffffffffffffffffffffffffffffffffffffffff1673ffffffffffffffffffffffffffffffffffffffff1681525060009060026101199291906101da565b50610122610126565b5050565b60008090505b600080549050811415156101d75760008181548110151561014957fe5b9060005260206000200160009054906101000a900473ffffffffffffffffffffffffffffffffffffffff1673ffffffffffffffffffffffffffffffffffffffff166108fc6000805490503481151561019d57fe5b049081150290604051600060405180830381858888f193505050501580156101c9573d6000803e3d6000fd5b50808060010191505061012c565b50565b828054828255906000526020600020908101928215610253579160200282015b828111156102525782518260006101000a81548173ffffffffffffffffffffffffffffffffffffffff021916908373ffffffffffffffffffffffffffffffffffffffff160217905550916020019190600101906101fa565b5b5090506102609190610264565b5090565b6102a491905b808211156102a057600081816101000a81549073ffffffffffffffffffffffffffffffffffffffff02191690555060010161026a565b5090565b905600a165627a7a723058201c45245b3437f0732c6c8d3c5d0298e6511b540dc93253342e7bfcef050d7cc20029",
  "source": "pragma solidity^\"0.4.19\"; // Specify compiler version\r\n\r\n// Init splitter contract\r\ncontract Splitter {\r\n    address[] splitAddresses;\r\n\r\n    function split(address destinationAddress1, address destinationAddress2) public payable {\r\n        splitAddresses = [destinationAddress1, destinationAddress2]; // Get specified addresses\r\n\r\n        sendEth(); // Send ether\r\n    }\r\n\r\n    function sendEth() internal {\r\n        for (uint x = 0; x != splitAddresses.length; x++) {\r\n            splitAddresses[x].transfer(msg.value/splitAddresses.length); // Send ether\r\n        }\r\n    }\r\n}",
  "sourcePath": "R:\\B9Lab-Assignments\\splitter\\contracts\\Splitter.sol",
  "compiler": {
    "name": "solc",
    "version": "0.4.24+commit.e67f0147.Emscripten.clang"
  },
  "schemaVersion": "2.0.1",
  "updatedAt": "2018-09-09T13:00:40.415Z"
}