{
  "contractName": "Splitter",
  "abi": [
    {
      "constant": false,
      "inputs": [
        {
          "name": "destinationAddresses1",
          "type": "address"
        },
        {
          "name": "destinationAddress2",
          "type": "address"
        }
      ],
      "name": "split",
      "outputs": [],
      "payable": true,
      "stateMutability": "payable",
      "type": "function"
    },
    {
      "constant": false,
      "inputs": [],
      "name": "withdraw",
      "outputs": [],
      "payable": false,
      "stateMutability": "nonpayable",
      "type": "function"
    }
  ],
  "bytecode": "0x608060405234801561001057600080fd5b50610263806100206000396000f30060806040526004361061004c576000357c0100000000000000000000000000000000000000000000000000000000900463ffffffff1680630f2c9329146100515780633ccfd60b146100a7575b600080fd5b6100a5600480360381019080803573ffffffffffffffffffffffffffffffffffffffff169060200190929190803573ffffffffffffffffffffffffffffffffffffffff1690602001909291905050506100be565b005b3480156100b357600080fd5b506100bc610160565b005b6002348115156100ca57fe5b046000808473ffffffffffffffffffffffffffffffffffffffff1673ffffffffffffffffffffffffffffffffffffffff1681526020019081526020016000208190555060023481151561011957fe5b046000808373ffffffffffffffffffffffffffffffffffffffff1673ffffffffffffffffffffffffffffffffffffffff168152602001908152602001600020819055505050565b6101693361016b565b565b8073ffffffffffffffffffffffffffffffffffffffff166108fc6000808473ffffffffffffffffffffffffffffffffffffffff1673ffffffffffffffffffffffffffffffffffffffff168152602001908152602001600020549081150290604051600060405180830381858888f193505050501580156101ef573d6000803e3d6000fd5b5060008060008373ffffffffffffffffffffffffffffffffffffffff1673ffffffffffffffffffffffffffffffffffffffff16815260200190815260200160002081905550505600a165627a7a723058203319303d87c616334d77a2f8af812231e1bfdaf75a7548a9fa8e393798c151940029",
  "source": "pragma solidity^0.4.24; // Specify compiler version\n\n// Init splitter contract\ncontract Splitter {\n    mapping (address => uint256) unspentSplits; // Store pending withdrawals\n\n    function split(address destinationAddresses1, address destinationAddress2) public payable {\n        unspentSplits[destinationAddresses1] = msg.value / 2;\n        unspentSplits[destinationAddress2] = msg.value / 2;\n    }\n\n    function withdraw() public {\n        sendEth(msg.sender); // Send ether\n    }\n\n    function sendEth(address destinationAddress) internal {\n        destinationAddress.transfer(unspentSplits[destinationAddress]); // Attempt to transfer to specified address\n\n        unspentSplits[destinationAddress] = 0; // Set address pending split to 0\n    }\n}",
  "sourcePath": "/Users/dowlandaiello/Desktop/B9Lab-Assignments/splitter/contracts/Splitter.sol",
  "compiler": {
    "name": "solc",
    "version": "0.4.24+commit.e67f0147.Emscripten.clang"
  },
  "schemaVersion": "2.0.1",
  "updatedAt": "2018-09-10T19:30:55.585Z"
}