{
  "contractName": "Splitter",
  "abi": [
    {
      "constant": false,
      "inputs": [
        {
          "name": "destinationAddresses",
          "type": "address[]"
        }
      ],
      "name": "split",
      "outputs": [],
      "payable": true,
      "stateMutability": "payable",
      "type": "function"
    }
  ],
  "bytecode": "0x6060604052341561000f57600080fd5b61025e8061001e6000396000f300606060405260043610610041576000357c0100000000000000000000000000000000000000000000000000000000900463ffffffff16806394e4a82214610046575b600080fd5b610093600480803590602001908201803590602001908080602002602001604051908101604052809392919081815260200183836020028082843782019150505050505091905050610095565b005b80600090805190602001906100ab929190610165565b506100b46100b7565b50565b60008090505b60008054905081141515610162576000818154811015156100da57fe5b906000526020600020900160009054906101000a900473ffffffffffffffffffffffffffffffffffffffff1673ffffffffffffffffffffffffffffffffffffffff166108fc6000805490503481151561012f57fe5b049081150290604051600060405180830381858888f19350505050151561015557600080fd5b80806001019150506100bd565b50565b8280548282559060005260206000209081019282156101de579160200282015b828111156101dd5782518260006101000a81548173ffffffffffffffffffffffffffffffffffffffff021916908373ffffffffffffffffffffffffffffffffffffffff16021790555091602001919060010190610185565b5b5090506101eb91906101ef565b5090565b61022f91905b8082111561022b57600081816101000a81549073ffffffffffffffffffffffffffffffffffffffff0219169055506001016101f5565b5090565b905600a165627a7a72305820adc34776bbf30eaac0f15951f43d7dbea2d0c1a3e3ee0b7bd3cab71e79d250f90029",
  "source": "pragma solidity^\"0.4.19\"; // Specify compiler version\n\n// Init splitter contract\ncontract Splitter {\n    address[] splitAddresses;\n\n    function split(address[] destinationAddresses) public payable {\n        splitAddresses = destinationAddresses; // Get specified addresses\n\n        sendEth(); // Send ether\n    }\n\n    function sendEth() internal {\n        for (uint x = 0; x != splitAddresses.length; x++) {\n            require(splitAddresses[x].send(msg.value/splitAddresses.length)); // Send ether\n        }\n    }\n}",
  "sourcePath": "/Users/dowlandaiello/Desktop/B9Lab-Assignments/splitter/contracts/Splitter.sol",
  "compiler": {
    "name": "solc",
    "version": "0.4.19+commit.c4cbbb05.Emscripten.clang"
  },
  "schemaVersion": "2.0.0",
  "updatedAt": "2018-09-10T17:22:10.553Z"
}