{
  "contractName": "Splitter",
  "abi": [
    {
      "constant": false,
      "inputs": [
        {
          "name": "destinationAddresses",
          "type": "address[]"
        }
      ],
      "name": "split",
      "outputs": [],
      "payable": true,
      "stateMutability": "payable",
      "type": "function"
    },
    {
      "constant": false,
      "inputs": [],
      "name": "withdraw",
      "outputs": [],
      "payable": false,
      "stateMutability": "nonpayable",
      "type": "function"
    }
  ],
  "bytecode": "0x608060405234801561001057600080fd5b5061024b806100206000396000f30060806040526004361061004c576000357c0100000000000000000000000000000000000000000000000000000000900463ffffffff1680633ccfd60b1461005157806394e4a82214610068575b600080fd5b34801561005d57600080fd5b506100666100c1565b005b6100bf600480360381019080803590602001908201803590602001908080602002602001604051908101604052809392919081815260200183836020028082843782019150505050505091929192905050506100cc565b005b6100ca33610153565b565b60008090505b81518114151561014f578151348115156100e857fe5b0460008084848151811015156100fa57fe5b9060200190602002015173ffffffffffffffffffffffffffffffffffffffff1673ffffffffffffffffffffffffffffffffffffffff1681526020019081526020016000208190555080806001019150506100d2565b5050565b8073ffffffffffffffffffffffffffffffffffffffff166108fc6000808473ffffffffffffffffffffffffffffffffffffffff1673ffffffffffffffffffffffffffffffffffffffff168152602001908152602001600020549081150290604051600060405180830381858888f193505050501580156101d7573d6000803e3d6000fd5b5060008060008373ffffffffffffffffffffffffffffffffffffffff1673ffffffffffffffffffffffffffffffffffffffff16815260200190815260200160002081905550505600a165627a7a7230582056bfeea1db2f016209db4b98d08383f74b0fa98464e950e3d04991256fad95410029",
  "source": "pragma solidity^0.4.24; // Specify compiler version\n\n// Init splitter contract\ncontract Splitter {\n    mapping (address => uint256) unspentSplits; // Store pending withdrawals\n\n    function split(address[] destinationAddresses) public payable {\n        for (uint x = 0; x != destinationAddresses.length; x++) {\n            unspentSplits[destinationAddresses[x]] = msg.value / destinationAddresses.length;\n        }\n    }\n\n    function withdraw() public {\n        sendEth(msg.sender); // Send ether\n    }\n\n    function sendEth(address destinationAddress) internal {\n        destinationAddress.transfer(unspentSplits[destinationAddress]); // Attempt to transfer to specified address\n\n        unspentSplits[destinationAddress] = 0; // Set address pending split to 0\n    }\n}",
  "sourcePath": "/Users/dowlandaiello/Desktop/B9Lab-Assignments/splitter/contracts/Splitter.sol",
  "compiler": {
    "name": "solc",
    "version": "0.4.24+commit.e67f0147.Emscripten.clang"
  },
  "schemaVersion": "2.0.1",
  "updatedAt": "2018-09-10T19:23:03.260Z"
}