{
  "contractName": "Splitter",
  "abi": [
    {
      "constant": false,
      "inputs": [
        {
          "name": "destinationAddress1",
          "type": "address"
        },
        {
          "name": "destinationAddress2",
          "type": "address"
        }
      ],
      "name": "split",
      "outputs": [],
      "payable": true,
      "stateMutability": "payable",
      "type": "function"
    }
  ],
  "bytecode": "0x608060405234801561001057600080fd5b50610335806100206000396000f300608060405260043610610041576000357c0100000000000000000000000000000000000000000000000000000000900463ffffffff1680630f2c932914610046575b600080fd5b61009a600480360381019080803573ffffffffffffffffffffffffffffffffffffffff169060200190929190803573ffffffffffffffffffffffffffffffffffffffff16906020019092919050505061009c565b005b60408051908101604052808373ffffffffffffffffffffffffffffffffffffffff1673ffffffffffffffffffffffffffffffffffffffff1681526020018273ffffffffffffffffffffffffffffffffffffffff1673ffffffffffffffffffffffffffffffffffffffff16815250600090600261011992919061023c565b50610122610126565b5050565b60008090505b600080549050811415156102395760008181548110151561014957fe5b9060005260206000200160009054906101000a900473ffffffffffffffffffffffffffffffffffffffff1673ffffffffffffffffffffffffffffffffffffffff166108fc6000805490503481151561019d57fe5b049081150290604051600060405180830381858888f19350505050151561022c576040517f08c379a00000000000000000000000000000000000000000000000000000000081526004018080602001828103825260128152602001807f5472616e73616374696f6e206661696c6564000000000000000000000000000081525060200191505060405180910390fd5b808060010191505061012c565b50565b8280548282559060005260206000209081019282156102b5579160200282015b828111156102b45782518260006101000a81548173ffffffffffffffffffffffffffffffffffffffff021916908373ffffffffffffffffffffffffffffffffffffffff1602179055509160200191906001019061025c565b5b5090506102c291906102c6565b5090565b61030691905b8082111561030257600081816101000a81549073ffffffffffffffffffffffffffffffffffffffff0219169055506001016102cc565b5090565b905600a165627a7a723058203bb1a251b3104d442dd283030566fdcc7a2c93ed1bd298bba0e150899ab3abba0029",
  "source": "pragma solidity^0.4.24; // Specify compiler version\n\n// Init splitter contract\ncontract Splitter {\n    address[] splitAddresses;\n\n    function split(address destinationAddress1, address destinationAddress2) public payable {\n        splitAddresses = [destinationAddress1, destinationAddress2]; // Get specified addresses\n\n        sendEth(); // Send ether\n    }\n\n    function sendEth() internal {\n        for (uint x = 0; x != splitAddresses.length; x++) {\n            require(splitAddresses[x].send(msg.value/splitAddresses.length), \"Transaction failed\"); // Send ether\n        }\n    }\n}",
  "sourcePath": "/Users/dowlandaiello/Desktop/B9Lab-Assignments/splitter/contracts/Splitter.sol",
  "compiler": {
    "name": "solc",
    "version": "0.4.24+commit.e67f0147.Emscripten.clang"
  },
  "schemaVersion": "2.0.1",
  "updatedAt": "2018-09-10T18:03:16.638Z"
}