{
  "contractName": "KeyGeneration",
  "abi": [
    {
      "constant": true,
      "inputs": [
        {
          "name": "_privateKey1",
          "type": "string"
        },
        {
          "name": "_privateKey2",
          "type": "string"
        }
      ],
      "name": "GeneratePublicKey",
      "outputs": [
        {
          "name": "publicKey",
          "type": "bytes32"
        }
      ],
      "payable": false,
      "stateMutability": "pure",
      "type": "function"
    }
  ],
  "bytecode": "0x608060405234801561001057600080fd5b5061026b806100206000396000f300608060405260043610610041576000357c0100000000000000000000000000000000000000000000000000000000900463ffffffff1680638267230414610046575b600080fd5b34801561005257600080fd5b506100f3600480360381019080803590602001908201803590602001908080601f0160208091040260200160405190810160405280939291908181526020018383808284378201915050505050509192919290803590602001908201803590602001908080601f0160208091040260200160405190810160405280939291908181526020018383808284378201915050505050509192919290505050610111565b60405180826000191660001916815260200191505060405180910390f35b600082826040516020018083805190602001908083835b60208310151561014d5780518252602082019150602081019050602083039250610128565b6001836020036101000a03801982511681845116808217855250505050505090500182805190602001908083835b6020831015156101a0578051825260208201915060208101905060208303925061017b565b6001836020036101000a038019825116818451168082178552505050505050905001925050506040516020818303038152906040526040518082805190602001908083835b60208310151561020a57805182526020820191506020810190506020830392506101e5565b6001836020036101000a03801982511681845116808217855250505050505090500191505060405180910390209050929150505600a165627a7a723058200cc25fb0a378b6976295889ae12fe8858b18fccc1532e339050e886efb00de5b0029",
  "source": "pragma solidity ^0.4.24; // Specify compiler version\r\n\r\ncontract KeyGeneration {\r\n    function GeneratePublicKey(string _privateKey1, string _privateKey2) pure public returns (bytes32 publicKey) {\r\n        return keccak256(abi.encodePacked(_privateKey1, _privateKey2));\r\n    }\r\n}",
  "sourcePath": "R:\\B9Lab-Assignments\\remittance\\contracts\\KeyGeneration.sol",
  "compiler": {
    "name": "solc",
    "version": "0.4.24+commit.e67f0147.Emscripten.clang"
  },
  "schemaVersion": "2.0.1",
  "updatedAt": "2018-10-08T17:34:43.530Z"
}