{
  "contractName": "Remittance",
  "abi": [
    {
      "anonymous": false,
      "inputs": [
        {
          "indexed": false,
          "name": "sender",
          "type": "address"
        },
        {
          "indexed": false,
          "name": "publicKey",
          "type": "bytes32"
        },
        {
          "indexed": false,
          "name": "amount",
          "type": "uint256"
        }
      ],
      "name": "deposited",
      "type": "event"
    },
    {
      "anonymous": false,
      "inputs": [
        {
          "indexed": false,
          "name": "claimant",
          "type": "address"
        },
        {
          "indexed": false,
          "name": "claimAddress",
          "type": "address"
        },
        {
          "indexed": false,
          "name": "publicKey",
          "type": "bytes32"
        },
        {
          "indexed": false,
          "name": "amount",
          "type": "uint256"
        }
      ],
      "name": "attemptedClaim",
      "type": "event"
    },
    {
      "anonymous": false,
      "inputs": [
        {
          "indexed": false,
          "name": "withdrawer",
          "type": "address"
        },
        {
          "indexed": false,
          "name": "blockTime",
          "type": "uint256"
        },
        {
          "indexed": false,
          "name": "amount",
          "type": "uint256"
        }
      ],
      "name": "attemptedWithdrawal",
      "type": "event"
    },
    {
      "constant": false,
      "inputs": [
        {
          "name": "_publicKey",
          "type": "bytes32"
        }
      ],
      "name": "deposit",
      "outputs": [],
      "payable": true,
      "stateMutability": "payable",
      "type": "function"
    },
    {
      "constant": false,
      "inputs": [
        {
          "name": "_publicKey",
          "type": "bytes32"
        },
        {
          "name": "_privatekey1",
          "type": "string"
        },
        {
          "name": "_privatekey2",
          "type": "string"
        }
      ],
      "name": "claim",
      "outputs": [],
      "payable": false,
      "stateMutability": "nonpayable",
      "type": "function"
    },
    {
      "constant": false,
      "inputs": [
        {
          "name": "_publicKey",
          "type": "bytes32"
        }
      ],
      "name": "withdraw",
      "outputs": [],
      "payable": false,
      "stateMutability": "nonpayable",
      "type": "function"
    }
  ],
  "bytecode": "0x6080604052603c60005534801561001557600080fd5b50610abc806100256000396000f300608060405260043610610057576000357c0100000000000000000000000000000000000000000000000000000000900463ffffffff1680638e19899e1461005c578063b214faa51461008d578063e1539c53146100b1575b600080fd5b34801561006857600080fd5b5061008b600480360381019080803560001916906020019092919050505061016e565b005b6100af600480360381019080803560001916906020019092919050505061042e565b005b3480156100bd57600080fd5b5061016c6004803603810190808035600019169060200190929190803590602001908201803590602001908080601f0160208091040260200160405190810160405280939291908181526020018383808284378201915050505050509192919290803590602001908201803590602001908080601f016020809104026020016040519081016040528093929190818152602001838380828437820191505050505050919291929050505061060b565b005b60006001600083600019166000191681526020019081526020016000206001015490507fe1f19986e93eb2cff6b4d1b5e14ff4d990030f99bd72cc7047c62966aa843f59334360016000866000191660001916815260200190815260200160002060010154604051808473ffffffffffffffffffffffffffffffffffffffff1673ffffffffffffffffffffffffffffffffffffffff168152602001838152602001828152602001935050505060405180910390a16001600083600019166000191681526020019081526020016000206002015443101515156102de576040517f08c379a000000000000000000000000000000000000000000000000000000000815260040180806020018281038252602b8152602001807f42616c616e6365206973206e6f742079657420656c696769626c6520666f722081526020017f7769746864726177616c2e00000000000000000000000000000000000000000081525060400191505060405180910390fd5b60016000836000191660001916815260200190815260200160002060000160009054906101000a900473ffffffffffffffffffffffffffffffffffffffff1673ffffffffffffffffffffffffffffffffffffffff163373ffffffffffffffffffffffffffffffffffffffff161415156103bf576040517f08c379a000000000000000000000000000000000000000000000000000000000815260040180806020018281038252601a8152602001807f4e6f6e2d6f776e65722063616e6e6f742077697468647261772e00000000000081525060200191505060405180910390fd5b6000600160008460001916600019168152602001908152602001600020600101819055503373ffffffffffffffffffffffffffffffffffffffff166108fc829081150290604051600060405180830381858888f19350505050158015610429573d6000803e3d6000fd5b505050565b6000600160008360001916600019168152602001908152602001600020600101541415156104c4576040517f08c379a000000000000000000000000000000000000000000000000000000000815260040180806020018281038252601f8152602001807f416c7265616479206465706f7369742077697468207075626c6963206b65790081525060200191505060405180910390fd5b6080604051908101604052803373ffffffffffffffffffffffffffffffffffffffff16815260200134815260200160005443018152602001826000191681525060016000836000191660001916815260200190815260200160002060008201518160000160006101000a81548173ffffffffffffffffffffffffffffffffffffffff021916908373ffffffffffffffffffffffffffffffffffffffff1602179055506020820151816001015560408201518160020155606082015181600301906000191690559050507f5e85d68b092edda9ab888db019d637ddd63d6af544931d930102a23042875d95338234604051808473ffffffffffffffffffffffffffffffffffffffff1673ffffffffffffffffffffffffffffffffffffffff1681526020018360001916600019168152602001828152602001935050505060405180910390a150565b60006001600085600019166000191681526020019081526020016000206001015490507ff6603fb351709ec7ade89e4d2db1ac2db5007c7bc5f05ac0826e14ebba37dceb3360016000876000191660001916815260200190815260200160002060000160009054906101000a900473ffffffffffffffffffffffffffffffffffffffff166001600088600019166000191681526020019081526020016000206003015460016000896000191660001916815260200190815260200160002060010154604051808573ffffffffffffffffffffffffffffffffffffffff1673ffffffffffffffffffffffffffffffffffffffff1681526020018473ffffffffffffffffffffffffffffffffffffffff1673ffffffffffffffffffffffffffffffffffffffff168152602001836000191660001916815260200182815260200194505050505060405180910390a1600160008560001916600019168152602001908152602001600020600301546000191683836040516020018083805190602001908083835b6020831015156107b4578051825260208201915060208101905060208303925061078f565b6001836020036101000a03801982511681845116808217855250505050505090500182805190602001908083835b60208310151561080757805182526020820191506020810190506020830392506107e2565b6001836020036101000a038019825116818451168082178552505050505050905001925050506040516020818303038152906040526040518082805190602001908083835b602083101515610871578051825260208201915060208101905060208303925061084c565b6001836020036101000a038019825116818451168082178552505050505050905001915050604051809103902060001916141515610917576040517f08c379a00000000000000000000000000000000000000000000000000000000081526004018080602001828103825260158152602001807f496e76616c69642070726976617465206b6579732e000000000000000000000081525060200191505060405180910390fd5b60016000856000191660001916815260200190815260200160002060000160009054906101000a900473ffffffffffffffffffffffffffffffffffffffff1673ffffffffffffffffffffffffffffffffffffffff163373ffffffffffffffffffffffffffffffffffffffff1614151515610a1f576040517f08c379a00000000000000000000000000000000000000000000000000000000081526004018080602001828103825260388152602001807f43616e6e6f7420636c61696d206f776e2062616c616e6365202872657175657381526020017f742061207769746864726177616c20696e7374656164292e000000000000000081525060400191505060405180910390fd5b6000600160008660001916600019168152602001908152602001600020600101819055503373ffffffffffffffffffffffffffffffffffffffff166108fc829081150290604051600060405180830381858888f19350505050158015610a89573d6000803e3d6000fd5b50505050505600a165627a7a72305820c5a5338f4ab1f66cb0aef552f5388d1bee1b85696a5e181ea4389cc4bc44d86f0029",
  "source": "pragma solidity ^0.4.24; // Specify compiler version\n\n// Init remittance contract\ncontract Remittance {\n    uint withdrawalDelay = 60; // Time before withdrawal can be made\n\n    struct Deposit {\n        address Sender;\n        uint256 Balance;\n        uint256 Deadline;\n        bytes32 PublicKey;\n    }\n\n    mapping (bytes32 => Deposit) Deposits; // Deposits by public key\n\n    event deposited(address sender, bytes32 publicKey, uint amount); // Log deposit\n    event attemptedClaim(address claimant, address claimAddress, bytes32 publicKey, uint amount); // Log claim\n    event attemptedWithdrawal(address withdrawer, uint blockTime, uint amount); // Log withdrawal\n    \n    function deposit(bytes32 _publicKey) public payable {\n        require(Deposits[_publicKey].Balance == 0, \"Already deposit with public key\"); // Check not existing\n        Deposits[_publicKey] = Deposit(msg.sender, msg.value, block.number + withdrawalDelay, _publicKey); // Set deposit\n\n        emit deposited(msg.sender, _publicKey, msg.value); // Send deposit event\n    }\n\n    function claim(bytes32 _publicKey, string _privatekey1, string _privatekey2) public {\n        uint balance = Deposits[_publicKey].Balance; // Store balance\n\n        emit attemptedClaim(msg.sender, Deposits[_publicKey].Sender, Deposits[_publicKey].PublicKey, Deposits[_publicKey].Balance);\n\n        require(keccak256(abi.encodePacked(_privatekey1, _privatekey2)) == Deposits[_publicKey].PublicKey, \"Invalid private keys.\");\n        require(msg.sender != Deposits[_publicKey].Sender, \"Cannot claim own balance (request a withdrawal instead).\");\n\n        Deposits[_publicKey].Balance = 0; // Reset balance\n\n        msg.sender.transfer(balance); // Transfer to specified claim address\n    }\n\n    function withdraw(bytes32 _publicKey) public {\n        uint balance = Deposits[_publicKey].Balance; // Store balance\n\n        emit attemptedWithdrawal(msg.sender, block.number, Deposits[_publicKey].Balance); // Send withdrawal event\n\n        require(block.number >= Deposits[_publicKey].Deadline, \"Balance is not yet eligible for withdrawal.\"); // Check is ready for withdrawal\n        require(msg.sender == Deposits[_publicKey].Sender, \"Non-owner cannot withdraw.\"); // Check owner is requesting withdrawal\n\n        Deposits[_publicKey].Balance = 0; // Rest balance\n\n        msg.sender.transfer(balance); // Transfer ether\n    }\n}",
  "sourcePath": "/Users/dowlandaiello/Desktop/B9Lab-Assignments/remittance/contracts/Remittance.sol",
  "compiler": {
    "name": "solc",
    "version": "0.4.24+commit.e67f0147.Emscripten.clang"
  },
  "schemaVersion": "2.0.1",
  "updatedAt": "2018-10-08T14:57:49.454Z"
}