{
  "contractName": "Remittance",
  "abi": [
    {
      "anonymous": false,
      "inputs": [
        {
          "indexed": false,
          "name": "sender",
          "type": "address"
        },
        {
          "indexed": false,
          "name": "publicKey",
          "type": "bytes32"
        },
        {
          "indexed": false,
          "name": "amount",
          "type": "uint256"
        }
      ],
      "name": "deposited",
      "type": "event"
    },
    {
      "anonymous": false,
      "inputs": [
        {
          "indexed": false,
          "name": "claimant",
          "type": "address"
        },
        {
          "indexed": false,
          "name": "claimAddress",
          "type": "address"
        },
        {
          "indexed": false,
          "name": "publicKey",
          "type": "bytes32"
        },
        {
          "indexed": false,
          "name": "amount",
          "type": "uint256"
        }
      ],
      "name": "attemptedClaim",
      "type": "event"
    },
    {
      "anonymous": false,
      "inputs": [
        {
          "indexed": false,
          "name": "withdrawer",
          "type": "address"
        },
        {
          "indexed": false,
          "name": "balanceMaturity",
          "type": "uint256"
        },
        {
          "indexed": false,
          "name": "amount",
          "type": "uint256"
        }
      ],
      "name": "attemptedWithdrawal",
      "type": "event"
    },
    {
      "constant": false,
      "inputs": [
        {
          "name": "privatekey1",
          "type": "string"
        },
        {
          "name": "privatekey2",
          "type": "string"
        }
      ],
      "name": "deposit",
      "outputs": [],
      "payable": true,
      "stateMutability": "payable",
      "type": "function"
    },
    {
      "constant": false,
      "inputs": [
        {
          "name": "claimAddress",
          "type": "address"
        },
        {
          "name": "privatekey1",
          "type": "string"
        },
        {
          "name": "privatekey2",
          "type": "string"
        }
      ],
      "name": "claim",
      "outputs": [],
      "payable": false,
      "stateMutability": "nonpayable",
      "type": "function"
    },
    {
      "constant": false,
      "inputs": [],
      "name": "withdraw",
      "outputs": [],
      "payable": false,
      "stateMutability": "nonpayable",
      "type": "function"
    }
  ],
  "bytecode": "0x608060405234801561001057600080fd5b50610c55806100206000396000f300608060405260043610610057576000357c0100000000000000000000000000000000000000000000000000000000900463ffffffff1680633ccfd60b1461005c5780637a9b486d14610073578063831f750e14610115575b600080fd5b34801561006857600080fd5b506100716101e4565b005b610113600480360381019080803590602001908201803590602001908080601f0160208091040260200160405190810160405280939291908181526020018383808284378201915050505050509192919290803590602001908201803590602001908080601f01602080910402602001604051908101604052809392919081815260200183838082843782019150505050505091929192905050506104c8565b005b34801561012157600080fd5b506101e2600480360381019080803573ffffffffffffffffffffffffffffffffffffffff169060200190929190803590602001908201803590602001908080601f0160208091040260200160405190810160405280939291908181526020018383808284378201915050505050509192919290803590602001908201803590602001908080601f0160208091040260200160405190810160405280939291908181526020018383808284378201915050505050509192919290505050610778565b005b60008060003373ffffffffffffffffffffffffffffffffffffffff1673ffffffffffffffffffffffffffffffffffffffff1681526020019081526020016000205490507fe1f19986e93eb2cff6b4d1b5e14ff4d990030f99bd72cc7047c62966aa843f5933600160003373ffffffffffffffffffffffffffffffffffffffff1673ffffffffffffffffffffffffffffffffffffffff168152602001908152602001600020546000803373ffffffffffffffffffffffffffffffffffffffff1673ffffffffffffffffffffffffffffffffffffffff16815260200190815260200160002054604051808473ffffffffffffffffffffffffffffffffffffffff1673ffffffffffffffffffffffffffffffffffffffff168152602001838152602001828152602001935050505060405180910390a1603c600160003373ffffffffffffffffffffffffffffffffffffffff1673ffffffffffffffffffffffffffffffffffffffff1681526020019081526020016000205443031115156103f6576040517f08c379a000000000000000000000000000000000000000000000000000000000815260040180806020018281038252602b8152602001807f42616c616e6365206973206e6f742079657420656c696769626c6520666f722081526020017f7769746864726177616c2e00000000000000000000000000000000000000000081525060400191505060405180910390fd5b60008060003373ffffffffffffffffffffffffffffffffffffffff1673ffffffffffffffffffffffffffffffffffffffff1681526020019081526020016000208190555043600160003373ffffffffffffffffffffffffffffffffffffffff1673ffffffffffffffffffffffffffffffffffffffff168152602001908152602001600020819055503373ffffffffffffffffffffffffffffffffffffffff166108fc829081150290604051600060405180830381858888f193505050501580156104c4573d6000803e3d6000fd5b5050565b346000803373ffffffffffffffffffffffffffffffffffffffff1673ffffffffffffffffffffffffffffffffffffffff1681526020019081526020016000208190555043600160003373ffffffffffffffffffffffffffffffffffffffff1673ffffffffffffffffffffffffffffffffffffffff1681526020019081526020016000208190555081816040516020018083805190602001908083835b6020831015156105895780518252602082019150602081019050602083039250610564565b6001836020036101000a03801982511681845116808217855250505050505090500182805190602001908083835b6020831015156105dc57805182526020820191506020810190506020830392506105b7565b6001836020036101000a038019825116818451168082178552505050505050905001925050506040516020818303038152906040526040518082805190602001908083835b6020831015156106465780518252602082019150602081019050602083039250610621565b6001836020036101000a0380198251168184511680821785525050505050509050019150506040518091039020600260003373ffffffffffffffffffffffffffffffffffffffff1673ffffffffffffffffffffffffffffffffffffffff16815260200190815260200160002081600019169055507f5e85d68b092edda9ab888db019d637ddd63d6af544931d930102a23042875d9533600260003373ffffffffffffffffffffffffffffffffffffffff1673ffffffffffffffffffffffffffffffffffffffff1681526020019081526020016000205434604051808473ffffffffffffffffffffffffffffffffffffffff1673ffffffffffffffffffffffffffffffffffffffff1681526020018360001916600019168152602001828152602001935050505060405180910390a15050565b60008060008573ffffffffffffffffffffffffffffffffffffffff1673ffffffffffffffffffffffffffffffffffffffff1681526020019081526020016000205490507ff6603fb351709ec7ade89e4d2db1ac2db5007c7bc5f05ac0826e14ebba37dceb3385600260008873ffffffffffffffffffffffffffffffffffffffff1673ffffffffffffffffffffffffffffffffffffffff1681526020019081526020016000205484604051808573ffffffffffffffffffffffffffffffffffffffff1673ffffffffffffffffffffffffffffffffffffffff1681526020018473ffffffffffffffffffffffffffffffffffffffff1673ffffffffffffffffffffffffffffffffffffffff168152602001836000191660001916815260200182815260200194505050505060405180910390a1600260008573ffffffffffffffffffffffffffffffffffffffff1673ffffffffffffffffffffffffffffffffffffffff168152602001908152602001600020546000191683836040516020018083805190602001908083835b6020831015156109275780518252602082019150602081019050602083039250610902565b6001836020036101000a03801982511681845116808217855250505050505090500182805190602001908083835b60208310151561097a5780518252602082019150602081019050602083039250610955565b6001836020036101000a038019825116818451168082178552505050505050905001925050506040516020818303038152906040526040518082805190602001908083835b6020831015156109e457805182526020820191506020810190506020830392506109bf565b6001836020036101000a038019825116818451168082178552505050505050905001915050604051809103902060001916141515610a8a576040517f08c379a00000000000000000000000000000000000000000000000000000000081526004018080602001828103825260158152602001807f496e76616c69642070726976617465206b6579732e000000000000000000000081525060200191505060405180910390fd5b8373ffffffffffffffffffffffffffffffffffffffff163373ffffffffffffffffffffffffffffffffffffffff1614151515610b54576040517f08c379a00000000000000000000000000000000000000000000000000000000081526004018080602001828103825260388152602001807f43616e6e6f7420636c61696d206f776e2062616c616e6365202872657175657381526020017f742061207769746864726177616c20696e7374656164292e000000000000000081525060400191505060405180910390fd5b60008060008673ffffffffffffffffffffffffffffffffffffffff1673ffffffffffffffffffffffffffffffffffffffff1681526020019081526020016000208190555043600160008673ffffffffffffffffffffffffffffffffffffffff1673ffffffffffffffffffffffffffffffffffffffff168152602001908152602001600020819055503373ffffffffffffffffffffffffffffffffffffffff166108fc829081150290604051600060405180830381858888f19350505050158015610c22573d6000803e3d6000fd5b50505050505600a165627a7a723058205ff707f178c42b812d24b41ff245cf98e7f6a5c3ccf09cb5450ffa39400a70630029",
  "source": "pragma solidity ^0.4.24; // Specify compiler version\r\n\r\n// Init remittance contract\r\ncontract Remittance {\r\n    mapping (address => uint256) balances; // Balance of each address\r\n    mapping (address => uint256) balanceMaturity; // Last time balance was updated\r\n    mapping (address => bytes32) publicKeys; // Public key associated with each address\r\n\r\n    event deposited(address sender, bytes32 publicKey, uint amount); // Log deposit\r\n    event attemptedClaim(address claimant, address claimAddress, bytes32 publicKey, uint amount); // Log claim\r\n    event attemptedWithdrawal(address withdrawer, uint balanceMaturity, uint amount); // Log withdrawal\r\n    \r\n    function deposit(string privatekey1, string privatekey2) public payable {\r\n        balances[msg.sender] = msg.value; // Set user balance\r\n        balanceMaturity[msg.sender] = block.number; // Set updated time\r\n\r\n        publicKeys[msg.sender] = keccak256(abi.encodePacked(privatekey1, privatekey2)); // Generate public key\r\n\r\n        emit deposited(msg.sender, publicKeys[msg.sender], msg.value); // Send deposit event\r\n    }\r\n\r\n    function claim(address claimAddress, string privatekey1, string privatekey2) public {\r\n        uint balance = balances[claimAddress]; // Store balance\r\n\r\n        emit attemptedClaim(msg.sender, claimAddress, publicKeys[claimAddress], balance); // Send claim event\r\n\r\n        require(keccak256(abi.encodePacked(privatekey1, privatekey2)) == publicKeys[claimAddress], \"Invalid private keys.\"); // Check for matching privatekeys\r\n        require(msg.sender != claimAddress, \"Cannot claim own balance (request a withdrawal instead).\"); // Check that claimant isn't issuer\r\n\r\n        balances[claimAddress] = 0; // Reset balance\r\n        balanceMaturity[claimAddress] = block.number; // Rest maturity\r\n\r\n        msg.sender.transfer(balance); // Transfer to specified claim address\r\n    }\r\n\r\n    function withdraw() public {\r\n        uint balance = balances[msg.sender]; // Store balance\r\n\r\n        emit attemptedWithdrawal(msg.sender, balanceMaturity[msg.sender], balances[msg.sender]); // Send withdrawal event\r\n\r\n        require((block.number - balanceMaturity[msg.sender]) > 60, \"Balance is not yet eligible for withdrawal.\"); // Check balance is mature enough for a withdrawal\r\n\r\n        balances[msg.sender] = 0; // Rest balance\r\n        balanceMaturity[msg.sender] = block.number; // Reset maturity\r\n\r\n        msg.sender.transfer(balance); // Transfer ether\r\n    }\r\n}",
  "sourcePath": "R:\\B9Lab-Assignments\\remittance\\contracts\\Remittance.sol",
  "compiler": {
    "name": "solc",
    "version": "0.4.24+commit.e67f0147.Emscripten.clang"
  },
  "schemaVersion": "2.0.1",
  "updatedAt": "2018-09-22T04:27:45.192Z"
}