{
  "contractName": "Remittance",
  "abi": [
    {
      "anonymous": false,
      "inputs": [
        {
          "indexed": false,
          "name": "sender",
          "type": "address"
        },
        {
          "indexed": false,
          "name": "publicKey",
          "type": "bytes32"
        },
        {
          "indexed": false,
          "name": "amount",
          "type": "uint256"
        }
      ],
      "name": "deposited",
      "type": "event"
    },
    {
      "anonymous": false,
      "inputs": [
        {
          "indexed": false,
          "name": "claimant",
          "type": "address"
        },
        {
          "indexed": false,
          "name": "claimAddress",
          "type": "address"
        },
        {
          "indexed": false,
          "name": "publicKey",
          "type": "bytes32"
        },
        {
          "indexed": false,
          "name": "amount",
          "type": "uint256"
        }
      ],
      "name": "claimed",
      "type": "event"
    },
    {
      "anonymous": false,
      "inputs": [
        {
          "indexed": false,
          "name": "withdrawer",
          "type": "address"
        },
        {
          "indexed": false,
          "name": "blockTime",
          "type": "uint256"
        },
        {
          "indexed": false,
          "name": "amount",
          "type": "uint256"
        }
      ],
      "name": "withdrew",
      "type": "event"
    },
    {
      "constant": false,
      "inputs": [
        {
          "name": "_publicKey",
          "type": "bytes32"
        }
      ],
      "name": "deposit",
      "outputs": [],
      "payable": true,
      "stateMutability": "payable",
      "type": "function"
    },
    {
      "constant": false,
      "inputs": [
        {
          "name": "_publicKey",
          "type": "bytes32"
        },
        {
          "name": "_privateKey1",
          "type": "string"
        }
      ],
      "name": "claim",
      "outputs": [],
      "payable": false,
      "stateMutability": "nonpayable",
      "type": "function"
    },
    {
      "constant": false,
      "inputs": [
        {
          "name": "_publicKey",
          "type": "bytes32"
        },
        {
          "name": "_privateKey2",
          "type": "string"
        }
      ],
      "name": "approveClaim",
      "outputs": [],
      "payable": false,
      "stateMutability": "nonpayable",
      "type": "function"
    },
    {
      "constant": false,
      "inputs": [
        {
          "name": "_publicKey",
          "type": "bytes32"
        }
      ],
      "name": "withdraw",
      "outputs": [],
      "payable": false,
      "stateMutability": "nonpayable",
      "type": "function"
    }
  ],
  "bytecode": "0x6080604052603c60005534801561001557600080fd5b50610f2d806100256000396000f300608060405260043610610062576000357c0100000000000000000000000000000000000000000000000000000000900463ffffffff16806311e84c71146100675780636520715a146100de5780638e19899e14610155578063b214faa514610186575b600080fd5b34801561007357600080fd5b506100dc6004803603810190808035600019169060200190929190803590602001908201803590602001908080601f01602080910402602001604051908101604052809392919081815260200183838082843782019150505050505091929192905050506101aa565b005b3480156100ea57600080fd5b506101536004803603810190808035600019169060200190929190803590602001908201803590602001908080601f0160208091040260200160405190810160405280939291908181526020018383808284378201915050505050509192919290505050610346565b005b34801561016157600080fd5b5061018460048036038101908080356000191690602001909291905050506108a8565b005b6101a86004803603810190808035600019169060200190929190505050610b68565b005b60016000836000191660001916815260200190815260200160002060000160009054906101000a900473ffffffffffffffffffffffffffffffffffffffff1673ffffffffffffffffffffffffffffffffffffffff163373ffffffffffffffffffffffffffffffffffffffff16141515156102b2576040517f08c379a00000000000000000000000000000000000000000000000000000000081526004018080602001828103825260388152602001807f43616e6e6f7420636c61696d206f776e2062616c616e6365202872657175657381526020017f742061207769746864726177616c20696e7374656164292e000000000000000081525060400191505060405180910390fd5b3360016000846000191660001916815260200190815260200160002060040160006101000a81548173ffffffffffffffffffffffffffffffffffffffff021916908373ffffffffffffffffffffffffffffffffffffffff160217905550806001600084600019166000191681526020019081526020016000206005019080519060200190610341929190610ddc565b505050565b60003373ffffffffffffffffffffffffffffffffffffffff1660016000856000191660001916815260200190815260200160002060040160009054906101000a900473ffffffffffffffffffffffffffffffffffffffff1673ffffffffffffffffffffffffffffffffffffffff161415151561042a576040517f08c379a00000000000000000000000000000000000000000000000000000000081526004018080602001828103825260198152602001807f43616e6e6f7420617070726f7665206f776e20636c61696d2e0000000000000081525060200191505060405180910390fd5b3373ffffffffffffffffffffffffffffffffffffffff1660016000856000191660001916815260200190815260200160002060000160009054906101000a900473ffffffffffffffffffffffffffffffffffffffff1673ffffffffffffffffffffffffffffffffffffffff1614151561050b576040517f08c379a000000000000000000000000000000000000000000000000000000000815260040180806020018281038252601f8152602001807f497373756572206d75737420617070726f766520616c6c20636c61696d732e0081525060200191505060405180910390fd5b60016000846000191660001916815260200190815260200160002060030154600019166001600085600019166000191681526020019081526020016000206005018360405160200180838054600181600116156101000203166002900480156105ab5780601f106105895761010080835404028352918201916105ab565b820191906000526020600020905b815481529060010190602001808311610597575b505082805190602001908083835b6020831015156105de57805182526020820191506020810190506020830392506105b9565b6001836020036101000a038019825116818451168082178552505050505050905001925050506040516020818303038152906040526040518082805190602001908083835b6020831015156106485780518252602082019150602081019050602083039250610623565b6001836020036101000a0380198251168184511680821785525050505050509050019150506040518091039020600019161415156106ee576040517f08c379a00000000000000000000000000000000000000000000000000000000081526004018080602001828103825260158152602001807f496e76616c69642070726976617465206b6579732e000000000000000000000081525060200191505060405180910390fd5b6001600084600019166000191681526020019081526020016000206001015490507fb14cd4728a20ae064005fa5da140988b7411d3dda4ac7a59d17fb895b690c5ec3360016000866000191660001916815260200190815260200160002060000160009054906101000a900473ffffffffffffffffffffffffffffffffffffffff166001600087600019166000191681526020019081526020016000206003015460016000886000191660001916815260200190815260200160002060010154604051808573ffffffffffffffffffffffffffffffffffffffff1673ffffffffffffffffffffffffffffffffffffffff1681526020018473ffffffffffffffffffffffffffffffffffffffff1673ffffffffffffffffffffffffffffffffffffffff168152602001836000191660001916815260200182815260200194505050505060405180910390a16000600160008560001916600019168152602001908152602001600020600101819055503373ffffffffffffffffffffffffffffffffffffffff166108fc829081150290604051600060405180830381858888f193505050501580156108a2573d6000803e3d6000fd5b50505050565b6000600160008360001916600019168152602001908152602001600020600101549050600160008360001916600019168152602001908152602001600020600201544310151515610987576040517f08c379a000000000000000000000000000000000000000000000000000000000815260040180806020018281038252602b8152602001807f42616c616e6365206973206e6f742079657420656c696769626c6520666f722081526020017f7769746864726177616c2e00000000000000000000000000000000000000000081525060400191505060405180910390fd5b60016000836000191660001916815260200190815260200160002060000160009054906101000a900473ffffffffffffffffffffffffffffffffffffffff1673ffffffffffffffffffffffffffffffffffffffff163373ffffffffffffffffffffffffffffffffffffffff16141515610a68576040517f08c379a000000000000000000000000000000000000000000000000000000000815260040180806020018281038252601a8152602001807f4e6f6e2d6f776e65722063616e6e6f742077697468647261772e00000000000081525060200191505060405180910390fd5b7f8bb2c75524d6c82dc6b277e37374c67c147a3f8442adcf257b0a7da6f17f9349334360016000866000191660001916815260200190815260200160002060010154604051808473ffffffffffffffffffffffffffffffffffffffff1673ffffffffffffffffffffffffffffffffffffffff168152602001838152602001828152602001935050505060405180910390a16000600160008460001916600019168152602001908152602001600020600101819055503373ffffffffffffffffffffffffffffffffffffffff166108fc829081150290604051600060405180830381858888f19350505050158015610b63573d6000803e3d6000fd5b505050565b600060016000836000191660001916815260200190815260200160002060010154141515610bfe576040517f08c379a000000000000000000000000000000000000000000000000000000000815260040180806020018281038252601f8152602001807f416c7265616479206465706f7369742077697468207075626c6963206b65790081525060200191505060405180910390fd5b60c0604051908101604052803373ffffffffffffffffffffffffffffffffffffffff1681526020013481526020016000544301815260200182600019168152602001600073ffffffffffffffffffffffffffffffffffffffff168152602001602060405190810160405280600081525081525060016000836000191660001916815260200190815260200160002060008201518160000160006101000a81548173ffffffffffffffffffffffffffffffffffffffff021916908373ffffffffffffffffffffffffffffffffffffffff16021790555060208201518160010155604082015181600201556060820151816003019060001916905560808201518160040160006101000a81548173ffffffffffffffffffffffffffffffffffffffff021916908373ffffffffffffffffffffffffffffffffffffffff16021790555060a0820151816005019080519060200190610d5a929190610e5c565b509050507f5e85d68b092edda9ab888db019d637ddd63d6af544931d930102a23042875d95338234604051808473ffffffffffffffffffffffffffffffffffffffff1673ffffffffffffffffffffffffffffffffffffffff1681526020018360001916600019168152602001828152602001935050505060405180910390a150565b828054600181600116156101000203166002900490600052602060002090601f016020900481019282601f10610e1d57805160ff1916838001178555610e4b565b82800160010185558215610e4b579182015b82811115610e4a578251825591602001919060010190610e2f565b5b509050610e589190610edc565b5090565b828054600181600116156101000203166002900490600052602060002090601f016020900481019282601f10610e9d57805160ff1916838001178555610ecb565b82800160010185558215610ecb579182015b82811115610eca578251825591602001919060010190610eaf565b5b509050610ed89190610edc565b5090565b610efe91905b80821115610efa576000816000905550600101610ee2565b5090565b905600a165627a7a723058203a52b415868219c7c6f16a9a87bcca124c84392be475744565de427c74f5b1b80029",
  "source": "pragma solidity ^0.4.24; // Specify compiler version\r\n\r\n// Init remittance contract\r\ncontract Remittance {\r\n    uint withdrawalDelay = 60; // Time before withdrawal can be made\r\n\r\n    struct Deposit {\r\n        address Sender;\r\n        uint256 Balance;\r\n        uint256 Deadline;\r\n        bytes32 PublicKey;\r\n        address Claimant;\r\n        string PrivateKey1;\r\n    }\r\n\r\n    mapping (bytes32 => Deposit) Deposits; // Deposits by public key\r\n\r\n    event deposited(address sender, bytes32 publicKey, uint amount); // Log deposit\r\n    event claimed(address claimant, address claimAddress, bytes32 publicKey, uint amount); // Log claim\r\n    event withdrew(address withdrawer, uint blockTime, uint amount); // Log withdrawal\r\n    \r\n    function deposit(bytes32 _publicKey) public payable {\r\n        require(Deposits[_publicKey].Balance == 0, \"Already deposit with public key\"); // Check not existing\r\n        Deposits[_publicKey] = Deposit(msg.sender, msg.value, block.number + withdrawalDelay, _publicKey, 0, \"\"); // Set deposit\r\n\r\n        emit deposited(msg.sender, _publicKey, msg.value); // Send deposit event\r\n    }\r\n\r\n    function claim(bytes32 _publicKey, string _privateKey1) public {\r\n        require(msg.sender != Deposits[_publicKey].Sender, \"Cannot claim own balance (request a withdrawal instead).\"); // Check isn't issuer\r\n\r\n        Deposits[_publicKey].Claimant = msg.sender; // Set claimant\r\n        Deposits[_publicKey].PrivateKey1 = _privateKey1; // Set private key 1\r\n    }\r\n\r\n    function approveClaim(bytes32 _publicKey, string _privateKey2) public {\r\n        require(Deposits[_publicKey].Claimant != msg.sender, \"Cannot approve own claim.\"); // Check isn't claimant\r\n        require(Deposits[_publicKey].Sender == msg.sender, \"Issuer must approve all claims.\"); // Check is issuer\r\n        require(keccak256(abi.encodePacked(Deposits[_publicKey].PrivateKey1, _privateKey2)) == Deposits[_publicKey].PublicKey, \"Invalid private keys.\");\r\n\r\n        uint balance = Deposits[_publicKey].Balance; // Store balance\r\n\r\n        emit claimed(msg.sender, Deposits[_publicKey].Sender, Deposits[_publicKey].PublicKey, Deposits[_publicKey].Balance);\r\n\r\n        Deposits[_publicKey].Balance = 0; // Reset balance\r\n\r\n        msg.sender.transfer(balance); // Transfer to specified claim address\r\n    }\r\n\r\n    function withdraw(bytes32 _publicKey) public {\r\n        uint balance = Deposits[_publicKey].Balance; // Store balance\r\n\r\n        require(block.number >= Deposits[_publicKey].Deadline, \"Balance is not yet eligible for withdrawal.\"); // Check is ready for withdrawal\r\n        require(msg.sender == Deposits[_publicKey].Sender, \"Non-owner cannot withdraw.\"); // Check owner is requesting withdrawal\r\n\r\n        emit withdrew(msg.sender, block.number, Deposits[_publicKey].Balance); // Send withdrawal event\r\n\r\n        Deposits[_publicKey].Balance = 0; // Rest balance\r\n\r\n        msg.sender.transfer(balance); // Transfer ether\r\n    }\r\n}",
  "sourcePath": "R:\\B9Lab-Assignments\\remittance\\contracts\\Remittance.sol",
  "compiler": {
    "name": "solc",
    "version": "0.4.24+commit.e67f0147.Emscripten.clang"
  },
  "schemaVersion": "2.0.1",
  "updatedAt": "2018-10-08T17:26:14.544Z"
}